{
    "_format": "hh-sol-artifact-1",
    "contractName": "DistributeToken",
    "sourceName": "contracts/DistributeToken.sol",
    "abi": [
        {
            "inputs": [
                {
                    "internalType": "contract ISuperfluid",
                    "name": "_host",
                    "type": "address"
                },
                {
                    "internalType": "contract ISuperToken",
                    "name": "_spreaderToken",
                    "type": "address"
                }
            ],
            "stateMutability": "nonpayable",
            "type": "constructor"
        },
        {
            "inputs": [],
            "name": "INDEX_ID",
            "outputs": [
                {
                    "internalType": "uint32",
                    "name": "",
                    "type": "uint32"
                }
            ],
            "stateMutability": "view",
            "type": "function"
        },
        {
            "inputs": [
                {
                    "internalType": "address",
                    "name": "subscriber",
                    "type": "address"
                }
            ],
            "name": "deleteShares",
            "outputs": [],
            "stateMutability": "nonpayable",
            "type": "function"
        },
        {
            "inputs": [],
            "name": "distribute",
            "outputs": [],
            "stateMutability": "nonpayable",
            "type": "function"
        },
        {
            "inputs": [
                {
                    "internalType": "address",
                    "name": "subscriber",
                    "type": "address"
                },
                {
                    "internalType": "uint256",
                    "name": "units",
                    "type": "uint256"
                }
            ],
            "name": "gainShare",
            "outputs": [],
            "stateMutability": "nonpayable",
            "type": "function"
        },
        {
            "inputs": [],
            "name": "idaV1",
            "outputs": [
                {
                    "internalType": "contract ISuperfluid",
                    "name": "host",
                    "type": "address"
                },
                {
                    "internalType": "contract IInstantDistributionAgreementV1",
                    "name": "ida",
                    "type": "address"
                }
            ],
            "stateMutability": "view",
            "type": "function"
        },
        {
            "inputs": [
                {
                    "internalType": "address",
                    "name": "subscriber",
                    "type": "address"
                },
                {
                    "internalType": "uint256",
                    "name": "units",
                    "type": "uint256"
                }
            ],
            "name": "loseShare",
            "outputs": [],
            "stateMutability": "nonpayable",
            "type": "function"
        },
        {
            "inputs": [],
            "name": "spreaderToken",
            "outputs": [
                {
                    "internalType": "contract ISuperToken",
                    "name": "",
                    "type": "address"
                }
            ],
            "stateMutability": "view",
            "type": "function"
        }
    ],
    "bytecode": "0x60806040523480156200001157600080fd5b506040516200225e3803806200225e8339818101604052810190620000379190620005ef565b8073ffffffffffffffffffffffffffffffffffffffff166320bc44256040518163ffffffff1660e01b8152600401602060405180830381865afa15801562000083573d6000803e3d6000fd5b505050506040513d601f19601f82011682018060405250810190620000a9919062000667565b73ffffffffffffffffffffffffffffffffffffffff168273ffffffffffffffffffffffffffffffffffffffff161462000119576040517f08c379a00000000000000000000000000000000000000000000000000000000081526004016200011090620006fa565b60405180910390fd5b806000806101000a81548173ffffffffffffffffffffffffffffffffffffffff021916908373ffffffffffffffffffffffffffffffffffffffff16021790555060405180604001604052808373ffffffffffffffffffffffffffffffffffffffff1681526020018373ffffffffffffffffffffffffffffffffffffffff1663b6d200de7f8aedc3b5d4bf031e11a7e2940f7251c005698405d58e02e1c247fed3b1b3a6746040518263ffffffff1660e01b8152600401620001db919062000737565b602060405180830381865afa158015620001f9573d6000803e3d6000fd5b505050506040513d601f19601f820116820180604052508101906200021f919062000799565b73ffffffffffffffffffffffffffffffffffffffff16815250600160008201518160000160006101000a81548173ffffffffffffffffffffffffffffffffffffffff021916908373ffffffffffffffffffffffffffffffffffffffff16021790555060208201518160010160006101000a81548173ffffffffffffffffffffffffffffffffffffffff021916908373ffffffffffffffffffffffffffffffffffffffff160217905550905050620002e98160006001620002f160201b620004d7179092919060201c565b505062000b42565b62000356838383600067ffffffffffffffff811115620003165762000315620007cb565b5b6040519080825280601f01601f191660200182016040528015620003495781602001600182028036833780820191505090505b506200035b60201b60201c565b505050565b8360000160009054906101000a900473ffffffffffffffffffffffffffffffffffffffff1673ffffffffffffffffffffffffffffffffffffffff166339255d5b8560010160009054906101000a900473ffffffffffffffffffffffffffffffffffffffff168660010160009054906101000a900473ffffffffffffffffffffffffffffffffffffffff1673ffffffffffffffffffffffffffffffffffffffff1663d787840a8787600067ffffffffffffffff81111562000420576200041f620007cb565b5b6040519080825280601f01601f191660200182016040528015620004535781602001600182028036833780820191505090505b5060405160240162000468939291906200092a565b604051602081830303815290604052915060e01b6020820180517bffffffffffffffffffffffffffffffffffffffffffffffffffffffff8381831617835250505050846040518463ffffffff1660e01b8152600401620004cb9392919062000993565b6000604051808303816000875af1158015620004eb573d6000803e3d6000fd5b505050506040513d6000823e3d601f19601f8201168201806040525081019062000516919062000af1565b5050505050565b6000604051905090565b600080fd5b600080fd5b600073ffffffffffffffffffffffffffffffffffffffff82169050919050565b60006200055e8262000531565b9050919050565b6000620005728262000551565b9050919050565b620005848162000565565b81146200059057600080fd5b50565b600081519050620005a48162000579565b92915050565b6000620005b78262000551565b9050919050565b620005c981620005aa565b8114620005d557600080fd5b50565b600081519050620005e981620005be565b92915050565b6000806040838503121562000609576200060862000527565b5b6000620006198582860162000593565b92505060206200062c85828601620005d8565b9150509250929050565b620006418162000551565b81146200064d57600080fd5b50565b600081519050620006618162000636565b92915050565b60006020828403121562000680576200067f62000527565b5b6000620006908482850162000650565b91505092915050565b600082825260208201905092915050565b7f217375706572546f6b656e000000000000000000000000000000000000000000600082015250565b6000620006e2600b8362000699565b9150620006ef82620006aa565b602082019050919050565b600060208201905081810360008301526200071581620006d3565b9050919050565b6000819050919050565b62000731816200071c565b82525050565b60006020820190506200074e600083018462000726565b92915050565b6000620007618262000551565b9050919050565b620007738162000754565b81146200077f57600080fd5b50565b600081519050620007938162000768565b92915050565b600060208284031215620007b257620007b162000527565b5b6000620007c28482850162000782565b91505092915050565b7f4e487b7100000000000000000000000000000000000000000000000000000000600052604160045260246000fd5b6000819050919050565b6000620008256200081f620008198462000531565b620007fa565b62000531565b9050919050565b6000620008398262000804565b9050919050565b60006200084d826200082c565b9050919050565b6200085f8162000840565b82525050565b600063ffffffff82169050919050565b620008808162000865565b82525050565b600081519050919050565b600082825260208201905092915050565b60005b83811015620008c2578082015181840152602081019050620008a5565b83811115620008d2576000848401525b50505050565b6000601f19601f8301169050919050565b6000620008f68262000886565b62000902818562000891565b935062000914818560208601620008a2565b6200091f81620008d8565b840191505092915050565b600060608201905062000941600083018662000854565b62000950602083018562000875565b8181036040830152620009648184620008e9565b9050949350505050565b60006200097b826200082c565b9050919050565b6200098d816200096e565b82525050565b6000606082019050620009aa600083018662000982565b8181036020830152620009be8185620008e9565b90508181036040830152620009d48184620008e9565b9050949350505050565b600080fd5b600080fd5b620009f382620008d8565b810181811067ffffffffffffffff8211171562000a155762000a14620007cb565b5b80604052505050565b600062000a2a6200051d565b905062000a388282620009e8565b919050565b600067ffffffffffffffff82111562000a5b5762000a5a620007cb565b5b62000a6682620008d8565b9050602081019050919050565b600062000a8a62000a848462000a3d565b62000a1e565b90508281526020810184848401111562000aa95762000aa8620009e3565b5b62000ab6848285620008a2565b509392505050565b600082601f83011262000ad65762000ad5620009de565b5b815162000ae884826020860162000a73565b91505092915050565b60006020828403121562000b0a5762000b0962000527565b5b600082015167ffffffffffffffff81111562000b2b5762000b2a6200052c565b5b62000b398482850162000abe565b91505092915050565b61170c8062000b526000396000f3fe608060405234801561001057600080fd5b506004361061007d5760003560e01c8063844a5f5f1161005b578063844a5f5f146100d95780638c7f0959146100f7578063b908048b14610115578063e4fc6b6d146101315761007d565b80631cc8ca99146100825780632268cacb146100a15780634f514382146100bd575b600080fd5b61008a61013b565b604051610098929190610ea2565b60405180910390f35b6100bb60048036038101906100b69190610f1d565b61018d565b005b6100d760048036038101906100d29190610f80565b6101cb565b005b6100e161026a565b6040516100ee9190610fe1565b60405180910390f35b6100ff61028e565b60405161010c919061101b565b60405180910390f35b61012f600480360381019061012a9190610f80565b610293565b005b610139610332565b005b60018060000160009054906101000a900473ffffffffffffffffffffffffffffffffffffffff16908060010160009054906101000a900473ffffffffffffffffffffffffffffffffffffffff16905082565b6101c860008054906101000a900473ffffffffffffffffffffffffffffffffffffffff1630600084600161053590949392919063ffffffff16565b50565b600061020860008054906101000a900473ffffffffffffffffffffffffffffffffffffffff1630600086600161059790949392919063ffffffff16565b506fffffffffffffffffffffffffffffffff169250505061026560008054906101000a900473ffffffffffffffffffffffffffffffffffffffff1660008585856102529190611065565b600161065590949392919063ffffffff16565b505050565b60008054906101000a900473ffffffffffffffffffffffffffffffffffffffff1681565b600081565b60006102d060008054906101000a900473ffffffffffffffffffffffffffffffffffffffff1630600086600161059790949392919063ffffffff16565b506fffffffffffffffffffffffffffffffff169250505061032d60008054906101000a900473ffffffffffffffffffffffffffffffffffffffff16600085858561031a91906110bb565b600161065590949392919063ffffffff16565b505050565b60008060009054906101000a900473ffffffffffffffffffffffffffffffffffffffff1673ffffffffffffffffffffffffffffffffffffffff166370a08231306040518263ffffffff1660e01b815260040161038e91906110fe565b602060405180830381865afa1580156103ab573d6000803e3d6000fd5b505050506040513d601f19601f820116820180604052508101906103cf919061112e565b905060006001800160009054906101000a900473ffffffffffffffffffffffffffffffffffffffff1673ffffffffffffffffffffffffffffffffffffffff1663899baaec60008054906101000a900473ffffffffffffffffffffffffffffffffffffffff16306000866040518563ffffffff1660e01b8152600401610457949392919061116a565b6040805180830381865afa158015610473573d6000803e3d6000fd5b505050506040513d601f19601f8201168201806040525081019061049791906111f7565b5090506104d360008054906101000a900473ffffffffffffffffffffffffffffffffffffffff1660008360016106b7909392919063ffffffff16565b5050565b610530838383600067ffffffffffffffff8111156104f8576104f7611237565b5b6040519080825280601f01601f19166020018201604052801561052a5781602001600182028036833780820191505090505b50610717565b505050565b6105908585858585600067ffffffffffffffff81111561055857610557611237565b5b6040519080825280601f01601f19166020018201604052801561058a5781602001600182028036833780820191505090505b506108ce565b5050505050565b6000806000808860010160009054906101000a900473ffffffffffffffffffffffffffffffffffffffff1673ffffffffffffffffffffffffffffffffffffffff16635b534051898989896040518563ffffffff1660e01b81526004016106009493929190611287565b608060405180830381865afa15801561061d573d6000803e3d6000fd5b505050506040513d601f19601f820116820180604052508101906106419190611304565b935093509350935095509550955095915050565b6106b08585858585600067ffffffffffffffff81111561067857610677611237565b5b6040519080825280601f01601f1916602001820160405280156106aa5781602001600182028036833780820191505090505b50610a8b565b5050505050565b61071184848484600067ffffffffffffffff8111156106d9576106d8611237565b5b6040519080825280601f01601f19166020018201604052801561070b5781602001600182028036833780820191505090505b50610c48565b50505050565b8360000160009054906101000a900473ffffffffffffffffffffffffffffffffffffffff1673ffffffffffffffffffffffffffffffffffffffff166339255d5b8560010160009054906101000a900473ffffffffffffffffffffffffffffffffffffffff168660010160009054906101000a900473ffffffffffffffffffffffffffffffffffffffff1673ffffffffffffffffffffffffffffffffffffffff1663d787840a8787600067ffffffffffffffff8111156107d9576107d8611237565b5b6040519080825280601f01601f19166020018201604052801561080b5781602001600182028036833780820191505090505b5060405160240161081e93929190611404565b604051602081830303815290604052915060e01b6020820180517bffffffffffffffffffffffffffffffffffffffffffffffffffffffff8381831617835250505050846040518463ffffffff1660e01b815260040161087f93929190611442565b6000604051808303816000875af115801561089e573d6000803e3d6000fd5b505050506040513d6000823e3d601f19601f820116820180604052508101906108c7919061157e565b5050505050565b8560000160009054906101000a900473ffffffffffffffffffffffffffffffffffffffff1673ffffffffffffffffffffffffffffffffffffffff166339255d5b8760010160009054906101000a900473ffffffffffffffffffffffffffffffffffffffff168860010160009054906101000a900473ffffffffffffffffffffffffffffffffffffffff1673ffffffffffffffffffffffffffffffffffffffff16632e5e74c689898989600067ffffffffffffffff81111561099257610991611237565b5b6040519080825280601f01601f1916602001820160405280156109c45781602001600182028036833780820191505090505b506040516024016109d99594939291906115c7565b604051602081830303815290604052915060e01b6020820180517bffffffffffffffffffffffffffffffffffffffffffffffffffffffff8381831617835250505050846040518463ffffffff1660e01b8152600401610a3a93929190611442565b6000604051808303816000875af1158015610a59573d6000803e3d6000fd5b505050506040513d6000823e3d601f19601f82011682018060405250810190610a82919061157e565b50505050505050565b8560000160009054906101000a900473ffffffffffffffffffffffffffffffffffffffff1673ffffffffffffffffffffffffffffffffffffffff166339255d5b8760010160009054906101000a900473ffffffffffffffffffffffffffffffffffffffff168860010160009054906101000a900473ffffffffffffffffffffffffffffffffffffffff1673ffffffffffffffffffffffffffffffffffffffff1663232d2b5889898989600067ffffffffffffffff811115610b4f57610b4e611237565b5b6040519080825280601f01601f191660200182016040528015610b815781602001600182028036833780820191505090505b50604051602401610b96959493929190611630565b604051602081830303815290604052915060e01b6020820180517bffffffffffffffffffffffffffffffffffffffffffffffffffffffff8381831617835250505050846040518463ffffffff1660e01b8152600401610bf793929190611442565b6000604051808303816000875af1158015610c16573d6000803e3d6000fd5b505050506040513d6000823e3d601f19601f82011682018060405250810190610c3f919061157e565b50505050505050565b8460000160009054906101000a900473ffffffffffffffffffffffffffffffffffffffff1673ffffffffffffffffffffffffffffffffffffffff166339255d5b8660010160009054906101000a900473ffffffffffffffffffffffffffffffffffffffff168760010160009054906101000a900473ffffffffffffffffffffffffffffffffffffffff1673ffffffffffffffffffffffffffffffffffffffff1663b96731c2888888600067ffffffffffffffff811115610d0b57610d0a611237565b5b6040519080825280601f01601f191660200182016040528015610d3d5781602001600182028036833780820191505090505b50604051602401610d51949392919061168a565b604051602081830303815290604052915060e01b6020820180517bffffffffffffffffffffffffffffffffffffffffffffffffffffffff8381831617835250505050846040518463ffffffff1660e01b8152600401610db293929190611442565b6000604051808303816000875af1158015610dd1573d6000803e3d6000fd5b505050506040513d6000823e3d601f19601f82011682018060405250810190610dfa919061157e565b505050505050565b600073ffffffffffffffffffffffffffffffffffffffff82169050919050565b6000819050919050565b6000610e47610e42610e3d84610e02565b610e22565b610e02565b9050919050565b6000610e5982610e2c565b9050919050565b6000610e6b82610e4e565b9050919050565b610e7b81610e60565b82525050565b6000610e8c82610e4e565b9050919050565b610e9c81610e81565b82525050565b6000604082019050610eb76000830185610e72565b610ec46020830184610e93565b9392505050565b6000604051905090565b600080fd5b600080fd5b6000610eea82610e02565b9050919050565b610efa81610edf565b8114610f0557600080fd5b50565b600081359050610f1781610ef1565b92915050565b600060208284031215610f3357610f32610ed5565b5b6000610f4184828501610f08565b91505092915050565b6000819050919050565b610f5d81610f4a565b8114610f6857600080fd5b50565b600081359050610f7a81610f54565b92915050565b60008060408385031215610f9757610f96610ed5565b5b6000610fa585828601610f08565b9250506020610fb685828601610f6b565b9150509250929050565b6000610fcb82610e4e565b9050919050565b610fdb81610fc0565b82525050565b6000602082019050610ff66000830184610fd2565b92915050565b600063ffffffff82169050919050565b61101581610ffc565b82525050565b6000602082019050611030600083018461100c565b92915050565b7f4e487b7100000000000000000000000000000000000000000000000000000000600052601160045260246000fd5b600061107082610f4a565b915061107b83610f4a565b9250827fffffffffffffffffffffffffffffffffffffffffffffffffffffffffffffffff038211156110b0576110af611036565b5b828201905092915050565b60006110c682610f4a565b91506110d183610f4a565b9250828210156110e4576110e3611036565b5b828203905092915050565b6110f881610edf565b82525050565b600060208201905061111360008301846110ef565b92915050565b60008151905061112881610f54565b92915050565b60006020828403121561114457611143610ed5565b5b600061115284828501611119565b91505092915050565b61116481610f4a565b82525050565b600060808201905061117f6000830187610fd2565b61118c60208301866110ef565b611199604083018561100c565b6111a6606083018461115b565b95945050505050565b60006fffffffffffffffffffffffffffffffff82169050919050565b6111d4816111af565b81146111df57600080fd5b50565b6000815190506111f1816111cb565b92915050565b6000806040838503121561120e5761120d610ed5565b5b600061121c85828601611119565b925050602061122d858286016111e2565b9150509250929050565b7f4e487b7100000000000000000000000000000000000000000000000000000000600052604160045260246000fd5b600061127182610e4e565b9050919050565b61128181611266565b82525050565b600060808201905061129c6000830187611278565b6112a960208301866110ef565b6112b6604083018561100c565b6112c360608301846110ef565b95945050505050565b60008115159050919050565b6112e1816112cc565b81146112ec57600080fd5b50565b6000815190506112fe816112d8565b92915050565b6000806000806080858703121561131e5761131d610ed5565b5b600061132c878288016112ef565b945050602061133d878288016112ef565b935050604061134e878288016111e2565b925050606061135f87828801611119565b91505092959194509250565b600081519050919050565b600082825260208201905092915050565b60005b838110156113a557808201518184015260208101905061138a565b838111156113b4576000848401525b50505050565b6000601f19601f8301169050919050565b60006113d68261136b565b6113e08185611376565b93506113f0818560208601611387565b6113f9816113ba565b840191505092915050565b60006060820190506114196000830186611278565b611426602083018561100c565b818103604083015261143881846113cb565b9050949350505050565b60006060820190506114576000830186610e93565b818103602083015261146981856113cb565b9050818103604083015261147d81846113cb565b9050949350505050565b600080fd5b600080fd5b61149a826113ba565b810181811067ffffffffffffffff821117156114b9576114b8611237565b5b80604052505050565b60006114cc610ecb565b90506114d88282611491565b919050565b600067ffffffffffffffff8211156114f8576114f7611237565b5b611501826113ba565b9050602081019050919050565b600061152161151c846114dd565b6114c2565b90508281526020810184848401111561153d5761153c61148c565b5b611548848285611387565b509392505050565b600082601f83011261156557611564611487565b5b815161157584826020860161150e565b91505092915050565b60006020828403121561159457611593610ed5565b5b600082015167ffffffffffffffff8111156115b2576115b1610eda565b5b6115be84828501611550565b91505092915050565b600060a0820190506115dc6000830188611278565b6115e960208301876110ef565b6115f6604083018661100c565b61160360608301856110ef565b818103608083015261161581846113cb565b90509695505050505050565b61162a816111af565b82525050565b600060a0820190506116456000830188611278565b611652602083018761100c565b61165f60408301866110ef565b61166c6060830185611621565b818103608083015261167e81846113cb565b90509695505050505050565b600060808201905061169f6000830187611278565b6116ac602083018661100c565b6116b9604083018561115b565b81810360608301526116cb81846113cb565b90509594505050505056fea26469706673582212206d7be849311fb797489d88c88cbba9bc42c90cd5e506dfc46443d2c0a76e14c264736f6c634300080d0033",
    "linkReferences": {},
    "deployedLinkReferences": {}
}