{
  "_format": "hh-sol-artifact-1",
  "contractName": "DistributeToken",
  "sourceName": "contracts/DistributeToken.sol",
  "abi": [
    {
      "inputs": [
        {
          "internalType": "contract ISuperfluid",
          "name": "_host",
          "type": "address"
        },
        {
          "internalType": "contract ISuperToken",
          "name": "_spreaderToken",
          "type": "address"
        }
      ],
      "stateMutability": "nonpayable",
      "type": "constructor"
    },
    {
      "inputs": [],
      "name": "INDEX_ID",
      "outputs": [
        {
          "internalType": "uint32",
          "name": "",
          "type": "uint32"
        }
      ],
      "stateMutability": "view",
      "type": "function"
    },
    {
      "inputs": [
        {
          "internalType": "address",
          "name": "subscriber",
          "type": "address"
        }
      ],
      "name": "deleteShares",
      "outputs": [],
      "stateMutability": "nonpayable",
      "type": "function"
    },
    {
      "inputs": [],
      "name": "distribute",
      "outputs": [],
      "stateMutability": "nonpayable",
      "type": "function"
    },
    {
      "inputs": [
        {
          "internalType": "address",
          "name": "subscriber",
          "type": "address"
        },
        {
          "internalType": "uint256",
          "name": "units",
          "type": "uint256"
        }
      ],
      "name": "gainShare",
      "outputs": [],
      "stateMutability": "nonpayable",
      "type": "function"
    },
    {
      "inputs": [],
      "name": "idaV1",
      "outputs": [
        {
          "internalType": "contract ISuperfluid",
          "name": "host",
          "type": "address"
        },
        {
          "internalType": "contract IInstantDistributionAgreementV1",
          "name": "ida",
          "type": "address"
        }
      ],
      "stateMutability": "view",
      "type": "function"
    },
    {
      "inputs": [
        {
          "internalType": "address",
          "name": "subscriber",
          "type": "address"
        },
        {
          "internalType": "uint256",
          "name": "units",
          "type": "uint256"
        }
      ],
      "name": "loseShare",
      "outputs": [],
      "stateMutability": "nonpayable",
      "type": "function"
    },
    {
      "inputs": [
        {
          "internalType": "address",
          "name": "",
          "type": "address"
        }
      ],
      "name": "shareUnits",
      "outputs": [
        {
          "internalType": "uint128",
          "name": "",
          "type": "uint128"
        }
      ],
      "stateMutability": "view",
      "type": "function"
    },
    {
      "inputs": [],
      "name": "spreaderToken",
      "outputs": [
        {
          "internalType": "contract ISuperToken",
          "name": "",
          "type": "address"
        }
      ],
      "stateMutability": "view",
      "type": "function"
    }
  ],
  "bytecode": "0x60806040523480156200001157600080fd5b506040516200245c3803806200245c8339818101604052810190620000379190620005ef565b8073ffffffffffffffffffffffffffffffffffffffff166320bc44256040518163ffffffff1660e01b8152600401602060405180830381865afa15801562000083573d6000803e3d6000fd5b505050506040513d601f19601f82011682018060405250810190620000a9919062000667565b73ffffffffffffffffffffffffffffffffffffffff168273ffffffffffffffffffffffffffffffffffffffff161462000119576040517f08c379a00000000000000000000000000000000000000000000000000000000081526004016200011090620006fa565b60405180910390fd5b806000806101000a81548173ffffffffffffffffffffffffffffffffffffffff021916908373ffffffffffffffffffffffffffffffffffffffff16021790555060405180604001604052808373ffffffffffffffffffffffffffffffffffffffff1681526020018373ffffffffffffffffffffffffffffffffffffffff1663b6d200de7f8aedc3b5d4bf031e11a7e2940f7251c005698405d58e02e1c247fed3b1b3a6746040518263ffffffff1660e01b8152600401620001db919062000737565b602060405180830381865afa158015620001f9573d6000803e3d6000fd5b505050506040513d601f19601f820116820180604052508101906200021f919062000799565b73ffffffffffffffffffffffffffffffffffffffff16815250600160008201518160000160006101000a81548173ffffffffffffffffffffffffffffffffffffffff021916908373ffffffffffffffffffffffffffffffffffffffff16021790555060208201518160010160006101000a81548173ffffffffffffffffffffffffffffffffffffffff021916908373ffffffffffffffffffffffffffffffffffffffff160217905550905050620002e98160006001620002f160201b620006ba179092919060201c565b505062000b42565b62000356838383600067ffffffffffffffff811115620003165762000315620007cb565b5b6040519080825280601f01601f191660200182016040528015620003495781602001600182028036833780820191505090505b506200035b60201b60201c565b505050565b8360000160009054906101000a900473ffffffffffffffffffffffffffffffffffffffff1673ffffffffffffffffffffffffffffffffffffffff166339255d5b8560010160009054906101000a900473ffffffffffffffffffffffffffffffffffffffff168660010160009054906101000a900473ffffffffffffffffffffffffffffffffffffffff1673ffffffffffffffffffffffffffffffffffffffff1663d787840a8787600067ffffffffffffffff81111562000420576200041f620007cb565b5b6040519080825280601f01601f191660200182016040528015620004535781602001600182028036833780820191505090505b5060405160240162000468939291906200092a565b604051602081830303815290604052915060e01b6020820180517bffffffffffffffffffffffffffffffffffffffffffffffffffffffff8381831617835250505050846040518463ffffffff1660e01b8152600401620004cb9392919062000993565b6000604051808303816000875af1158015620004eb573d6000803e3d6000fd5b505050506040513d6000823e3d601f19601f8201168201806040525081019062000516919062000af1565b5050505050565b6000604051905090565b600080fd5b600080fd5b600073ffffffffffffffffffffffffffffffffffffffff82169050919050565b60006200055e8262000531565b9050919050565b6000620005728262000551565b9050919050565b620005848162000565565b81146200059057600080fd5b50565b600081519050620005a48162000579565b92915050565b6000620005b78262000551565b9050919050565b620005c981620005aa565b8114620005d557600080fd5b50565b600081519050620005e981620005be565b92915050565b6000806040838503121562000609576200060862000527565b5b6000620006198582860162000593565b92505060206200062c85828601620005d8565b9150509250929050565b620006418162000551565b81146200064d57600080fd5b50565b600081519050620006618162000636565b92915050565b60006020828403121562000680576200067f62000527565b5b6000620006908482850162000650565b91505092915050565b600082825260208201905092915050565b7f217375706572546f6b656e000000000000000000000000000000000000000000600082015250565b6000620006e2600b8362000699565b9150620006ef82620006aa565b602082019050919050565b600060208201905081810360008301526200071581620006d3565b9050919050565b6000819050919050565b62000731816200071c565b82525050565b60006020820190506200074e600083018462000726565b92915050565b6000620007618262000551565b9050919050565b620007738162000754565b81146200077f57600080fd5b50565b600081519050620007938162000768565b92915050565b600060208284031215620007b257620007b162000527565b5b6000620007c28482850162000782565b91505092915050565b7f4e487b7100000000000000000000000000000000000000000000000000000000600052604160045260246000fd5b6000819050919050565b6000620008256200081f620008198462000531565b620007fa565b62000531565b9050919050565b6000620008398262000804565b9050919050565b60006200084d826200082c565b9050919050565b6200085f8162000840565b82525050565b600063ffffffff82169050919050565b620008808162000865565b82525050565b600081519050919050565b600082825260208201905092915050565b60005b83811015620008c2578082015181840152602081019050620008a5565b83811115620008d2576000848401525b50505050565b6000601f19601f8301169050919050565b6000620008f68262000886565b62000902818562000891565b935062000914818560208601620008a2565b6200091f81620008d8565b840191505092915050565b600060608201905062000941600083018662000854565b62000950602083018562000875565b8181036040830152620009648184620008e9565b9050949350505050565b60006200097b826200082c565b9050919050565b6200098d816200096e565b82525050565b6000606082019050620009aa600083018662000982565b8181036020830152620009be8185620008e9565b90508181036040830152620009d48184620008e9565b9050949350505050565b600080fd5b600080fd5b620009f382620008d8565b810181811067ffffffffffffffff8211171562000a155762000a14620007cb565b5b80604052505050565b600062000a2a6200051d565b905062000a388282620009e8565b919050565b600067ffffffffffffffff82111562000a5b5762000a5a620007cb565b5b62000a6682620008d8565b9050602081019050919050565b600062000a8a62000a848462000a3d565b62000a1e565b90508281526020810184848401111562000aa95762000aa8620009e3565b5b62000ab6848285620008a2565b509392505050565b600082601f83011262000ad65762000ad5620009de565b5b815162000ae884826020860162000a73565b91505092915050565b60006020828403121562000b0a5762000b0962000527565b5b600082015167ffffffffffffffff81111562000b2b5762000b2a6200052c565b5b62000b398482850162000abe565b91505092915050565b61190a8062000b526000396000f3fe608060405234801561001057600080fd5b50600436106100885760003560e01c8063844a5f5f1161005b578063844a5f5f146101145780638c7f095914610132578063b908048b14610150578063e4fc6b6d1461016c57610088565b80631cc8ca991461008d5780632268cacb146100ac57806348ea9b31146100c85780634f514382146100f8575b600080fd5b610095610176565b6040516100a3929190611085565b60405180910390f35b6100c660048036038101906100c19190611100565b6101c8565b005b6100e260048036038101906100dd9190611100565b61027d565b6040516100ef9190611158565b60405180910390f35b610112600480360381019061010d91906111a9565b6102ac565b005b61011c6103cc565b604051610129919061120a565b60405180910390f35b61013a6103f0565b6040516101479190611244565b60405180910390f35b61016a600480360381019061016591906111a9565b6103f5565b005b610174610515565b005b60018060000160009054906101000a900473ffffffffffffffffffffffffffffffffffffffff16908060010160009054906101000a900473ffffffffffffffffffffffffffffffffffffffff16905082565b61020360008054906101000a900473ffffffffffffffffffffffffffffffffffffffff1630600084600161071890949392919063ffffffff16565b6000600360008373ffffffffffffffffffffffffffffffffffffffff1673ffffffffffffffffffffffffffffffffffffffff16815260200190815260200160002060006101000a8154816fffffffffffffffffffffffffffffffff02191690836fffffffffffffffffffffffffffffffff16021790555050565b60036020528060005260406000206000915054906101000a90046fffffffffffffffffffffffffffffffff1681565b60006102e960008054906101000a900473ffffffffffffffffffffffffffffffffffffffff1630600086600161077a90949392919063ffffffff16565b506fffffffffffffffffffffffffffffffff169250505061034660008054906101000a900473ffffffffffffffffffffffffffffffffffffffff166000858585610333919061128e565b600161083890949392919063ffffffff16565b8181610352919061128e565b600360008573ffffffffffffffffffffffffffffffffffffffff1673ffffffffffffffffffffffffffffffffffffffff16815260200190815260200160002060006101000a8154816fffffffffffffffffffffffffffffffff02191690836fffffffffffffffffffffffffffffffff160217905550505050565b60008054906101000a900473ffffffffffffffffffffffffffffffffffffffff1681565b600081565b600061043260008054906101000a900473ffffffffffffffffffffffffffffffffffffffff1630600086600161077a90949392919063ffffffff16565b506fffffffffffffffffffffffffffffffff169250505061048f60008054906101000a900473ffffffffffffffffffffffffffffffffffffffff16600085858561047c91906112e4565b600161083890949392919063ffffffff16565b818161049b91906112e4565b600360008573ffffffffffffffffffffffffffffffffffffffff1673ffffffffffffffffffffffffffffffffffffffff16815260200190815260200160002060006101000a8154816fffffffffffffffffffffffffffffffff02191690836fffffffffffffffffffffffffffffffff160217905550505050565b60008060009054906101000a900473ffffffffffffffffffffffffffffffffffffffff1673ffffffffffffffffffffffffffffffffffffffff166370a08231306040518263ffffffff1660e01b81526004016105719190611327565b602060405180830381865afa15801561058e573d6000803e3d6000fd5b505050506040513d601f19601f820116820180604052508101906105b29190611357565b905060006001800160009054906101000a900473ffffffffffffffffffffffffffffffffffffffff1673ffffffffffffffffffffffffffffffffffffffff1663899baaec60008054906101000a900473ffffffffffffffffffffffffffffffffffffffff16306000866040518563ffffffff1660e01b815260040161063a9493929190611393565b6040805180830381865afa158015610656573d6000803e3d6000fd5b505050506040513d601f19601f8201168201806040525081019061067a9190611404565b5090506106b660008054906101000a900473ffffffffffffffffffffffffffffffffffffffff16600083600161089a909392919063ffffffff16565b5050565b610713838383600067ffffffffffffffff8111156106db576106da611444565b5b6040519080825280601f01601f19166020018201604052801561070d5781602001600182028036833780820191505090505b506108fa565b505050565b6107738585858585600067ffffffffffffffff81111561073b5761073a611444565b5b6040519080825280601f01601f19166020018201604052801561076d5781602001600182028036833780820191505090505b50610ab1565b5050505050565b6000806000808860010160009054906101000a900473ffffffffffffffffffffffffffffffffffffffff1673ffffffffffffffffffffffffffffffffffffffff16635b534051898989896040518563ffffffff1660e01b81526004016107e39493929190611494565b608060405180830381865afa158015610800573d6000803e3d6000fd5b505050506040513d601f19601f820116820180604052508101906108249190611511565b935093509350935095509550955095915050565b6108938585858585600067ffffffffffffffff81111561085b5761085a611444565b5b6040519080825280601f01601f19166020018201604052801561088d5781602001600182028036833780820191505090505b50610c6e565b5050505050565b6108f484848484600067ffffffffffffffff8111156108bc576108bb611444565b5b6040519080825280601f01601f1916602001820160405280156108ee5781602001600182028036833780820191505090505b50610e2b565b50505050565b8360000160009054906101000a900473ffffffffffffffffffffffffffffffffffffffff1673ffffffffffffffffffffffffffffffffffffffff166339255d5b8560010160009054906101000a900473ffffffffffffffffffffffffffffffffffffffff168660010160009054906101000a900473ffffffffffffffffffffffffffffffffffffffff1673ffffffffffffffffffffffffffffffffffffffff1663d787840a8787600067ffffffffffffffff8111156109bc576109bb611444565b5b6040519080825280601f01601f1916602001820160405280156109ee5781602001600182028036833780820191505090505b50604051602401610a0193929190611611565b604051602081830303815290604052915060e01b6020820180517bffffffffffffffffffffffffffffffffffffffffffffffffffffffff8381831617835250505050846040518463ffffffff1660e01b8152600401610a629392919061164f565b6000604051808303816000875af1158015610a81573d6000803e3d6000fd5b505050506040513d6000823e3d601f19601f82011682018060405250810190610aaa919061178b565b5050505050565b8560000160009054906101000a900473ffffffffffffffffffffffffffffffffffffffff1673ffffffffffffffffffffffffffffffffffffffff166339255d5b8760010160009054906101000a900473ffffffffffffffffffffffffffffffffffffffff168860010160009054906101000a900473ffffffffffffffffffffffffffffffffffffffff1673ffffffffffffffffffffffffffffffffffffffff16632e5e74c689898989600067ffffffffffffffff811115610b7557610b74611444565b5b6040519080825280601f01601f191660200182016040528015610ba75781602001600182028036833780820191505090505b50604051602401610bbc9594939291906117d4565b604051602081830303815290604052915060e01b6020820180517bffffffffffffffffffffffffffffffffffffffffffffffffffffffff8381831617835250505050846040518463ffffffff1660e01b8152600401610c1d9392919061164f565b6000604051808303816000875af1158015610c3c573d6000803e3d6000fd5b505050506040513d6000823e3d601f19601f82011682018060405250810190610c65919061178b565b50505050505050565b8560000160009054906101000a900473ffffffffffffffffffffffffffffffffffffffff1673ffffffffffffffffffffffffffffffffffffffff166339255d5b8760010160009054906101000a900473ffffffffffffffffffffffffffffffffffffffff168860010160009054906101000a900473ffffffffffffffffffffffffffffffffffffffff1673ffffffffffffffffffffffffffffffffffffffff1663232d2b5889898989600067ffffffffffffffff811115610d3257610d31611444565b5b6040519080825280601f01601f191660200182016040528015610d645781602001600182028036833780820191505090505b50604051602401610d7995949392919061182e565b604051602081830303815290604052915060e01b6020820180517bffffffffffffffffffffffffffffffffffffffffffffffffffffffff8381831617835250505050846040518463ffffffff1660e01b8152600401610dda9392919061164f565b6000604051808303816000875af1158015610df9573d6000803e3d6000fd5b505050506040513d6000823e3d601f19601f82011682018060405250810190610e22919061178b565b50505050505050565b8460000160009054906101000a900473ffffffffffffffffffffffffffffffffffffffff1673ffffffffffffffffffffffffffffffffffffffff166339255d5b8660010160009054906101000a900473ffffffffffffffffffffffffffffffffffffffff168760010160009054906101000a900473ffffffffffffffffffffffffffffffffffffffff1673ffffffffffffffffffffffffffffffffffffffff1663b96731c2888888600067ffffffffffffffff811115610eee57610eed611444565b5b6040519080825280601f01601f191660200182016040528015610f205781602001600182028036833780820191505090505b50604051602401610f349493929190611888565b604051602081830303815290604052915060e01b6020820180517bffffffffffffffffffffffffffffffffffffffffffffffffffffffff8381831617835250505050846040518463ffffffff1660e01b8152600401610f959392919061164f565b6000604051808303816000875af1158015610fb4573d6000803e3d6000fd5b505050506040513d6000823e3d601f19601f82011682018060405250810190610fdd919061178b565b505050505050565b600073ffffffffffffffffffffffffffffffffffffffff82169050919050565b6000819050919050565b600061102a61102561102084610fe5565b611005565b610fe5565b9050919050565b600061103c8261100f565b9050919050565b600061104e82611031565b9050919050565b61105e81611043565b82525050565b600061106f82611031565b9050919050565b61107f81611064565b82525050565b600060408201905061109a6000830185611055565b6110a76020830184611076565b9392505050565b6000604051905090565b600080fd5b600080fd5b60006110cd82610fe5565b9050919050565b6110dd816110c2565b81146110e857600080fd5b50565b6000813590506110fa816110d4565b92915050565b600060208284031215611116576111156110b8565b5b6000611124848285016110eb565b91505092915050565b60006fffffffffffffffffffffffffffffffff82169050919050565b6111528161112d565b82525050565b600060208201905061116d6000830184611149565b92915050565b6000819050919050565b61118681611173565b811461119157600080fd5b50565b6000813590506111a38161117d565b92915050565b600080604083850312156111c0576111bf6110b8565b5b60006111ce858286016110eb565b92505060206111df85828601611194565b9150509250929050565b60006111f482611031565b9050919050565b611204816111e9565b82525050565b600060208201905061121f60008301846111fb565b92915050565b600063ffffffff82169050919050565b61123e81611225565b82525050565b60006020820190506112596000830184611235565b92915050565b7f4e487b7100000000000000000000000000000000000000000000000000000000600052601160045260246000fd5b600061129982611173565b91506112a483611173565b9250827fffffffffffffffffffffffffffffffffffffffffffffffffffffffffffffffff038211156112d9576112d861125f565b5b828201905092915050565b60006112ef82611173565b91506112fa83611173565b92508282101561130d5761130c61125f565b5b828203905092915050565b611321816110c2565b82525050565b600060208201905061133c6000830184611318565b92915050565b6000815190506113518161117d565b92915050565b60006020828403121561136d5761136c6110b8565b5b600061137b84828501611342565b91505092915050565b61138d81611173565b82525050565b60006080820190506113a860008301876111fb565b6113b56020830186611318565b6113c26040830185611235565b6113cf6060830184611384565b95945050505050565b6113e18161112d565b81146113ec57600080fd5b50565b6000815190506113fe816113d8565b92915050565b6000806040838503121561141b5761141a6110b8565b5b600061142985828601611342565b925050602061143a858286016113ef565b9150509250929050565b7f4e487b7100000000000000000000000000000000000000000000000000000000600052604160045260246000fd5b600061147e82611031565b9050919050565b61148e81611473565b82525050565b60006080820190506114a96000830187611485565b6114b66020830186611318565b6114c36040830185611235565b6114d06060830184611318565b95945050505050565b60008115159050919050565b6114ee816114d9565b81146114f957600080fd5b50565b60008151905061150b816114e5565b92915050565b6000806000806080858703121561152b5761152a6110b8565b5b6000611539878288016114fc565b945050602061154a878288016114fc565b935050604061155b878288016113ef565b925050606061156c87828801611342565b91505092959194509250565b600081519050919050565b600082825260208201905092915050565b60005b838110156115b2578082015181840152602081019050611597565b838111156115c1576000848401525b50505050565b6000601f19601f8301169050919050565b60006115e382611578565b6115ed8185611583565b93506115fd818560208601611594565b611606816115c7565b840191505092915050565b60006060820190506116266000830186611485565b6116336020830185611235565b818103604083015261164581846115d8565b9050949350505050565b60006060820190506116646000830186611076565b818103602083015261167681856115d8565b9050818103604083015261168a81846115d8565b9050949350505050565b600080fd5b600080fd5b6116a7826115c7565b810181811067ffffffffffffffff821117156116c6576116c5611444565b5b80604052505050565b60006116d96110ae565b90506116e5828261169e565b919050565b600067ffffffffffffffff82111561170557611704611444565b5b61170e826115c7565b9050602081019050919050565b600061172e611729846116ea565b6116cf565b90508281526020810184848401111561174a57611749611699565b5b611755848285611594565b509392505050565b600082601f83011261177257611771611694565b5b815161178284826020860161171b565b91505092915050565b6000602082840312156117a1576117a06110b8565b5b600082015167ffffffffffffffff8111156117bf576117be6110bd565b5b6117cb8482850161175d565b91505092915050565b600060a0820190506117e96000830188611485565b6117f66020830187611318565b6118036040830186611235565b6118106060830185611318565b818103608083015261182281846115d8565b90509695505050505050565b600060a0820190506118436000830188611485565b6118506020830187611235565b61185d6040830186611318565b61186a6060830185611149565b818103608083015261187c81846115d8565b90509695505050505050565b600060808201905061189d6000830187611485565b6118aa6020830186611235565b6118b76040830185611384565b81810360608301526118c981846115d8565b90509594505050505056fea2646970667358221220e3ce91e9be47199d2c61d596377c3b67dc97c668f68483621e2671d79c7e721964736f6c634300080d0033",
  "linkReferences": {},
  "deployedLinkReferences": {}
}