{
  "_format": "hh-sol-artifact-1",
  "contractName": "DistributeToken",
  "sourceName": "contracts/DistributeToken.sol",
  "abi": [
    {
      "inputs": [
        {
          "internalType": "contract ISuperfluid",
          "name": "_host",
          "type": "address"
        },
        {
          "internalType": "contract ISuperToken",
          "name": "_spreaderToken",
          "type": "address"
        }
      ],
      "stateMutability": "nonpayable",
      "type": "constructor"
    },
    {
      "inputs": [],
      "name": "INDEX_ID",
      "outputs": [
        {
          "internalType": "uint32",
          "name": "",
          "type": "uint32"
        }
      ],
      "stateMutability": "view",
      "type": "function"
    },
    {
      "inputs": [
        {
          "internalType": "address",
          "name": "subscriber",
          "type": "address"
        }
      ],
      "name": "deleteShares",
      "outputs": [],
      "stateMutability": "nonpayable",
      "type": "function"
    },
    {
      "inputs": [],
      "name": "distribute",
      "outputs": [],
      "stateMutability": "nonpayable",
      "type": "function"
    },
    {
      "inputs": [
        {
          "internalType": "address",
          "name": "subscriber",
          "type": "address"
        },
        {
          "internalType": "uint256",
          "name": "units",
          "type": "uint256"
        }
      ],
      "name": "gainShare",
      "outputs": [],
      "stateMutability": "nonpayable",
      "type": "function"
    },
    {
      "inputs": [],
      "name": "idaV1",
      "outputs": [
        {
          "internalType": "contract ISuperfluid",
          "name": "host",
          "type": "address"
        },
        {
          "internalType": "contract IInstantDistributionAgreementV1",
          "name": "ida",
          "type": "address"
        }
      ],
      "stateMutability": "view",
      "type": "function"
    },
    {
      "inputs": [
        {
          "internalType": "address",
          "name": "subscriber",
          "type": "address"
        },
        {
          "internalType": "uint256",
          "name": "units",
          "type": "uint256"
        }
      ],
      "name": "loseShare",
      "outputs": [],
      "stateMutability": "nonpayable",
      "type": "function"
    },
    {
      "inputs": [],
      "name": "owner",
      "outputs": [
        {
          "internalType": "address",
          "name": "",
          "type": "address"
        }
      ],
      "stateMutability": "view",
      "type": "function"
    },
    {
      "inputs": [
        {
          "internalType": "address",
          "name": "",
          "type": "address"
        }
      ],
      "name": "shareUnits",
      "outputs": [
        {
          "internalType": "uint128",
          "name": "",
          "type": "uint128"
        }
      ],
      "stateMutability": "view",
      "type": "function"
    },
    {
      "inputs": [],
      "name": "spreaderToken",
      "outputs": [
        {
          "internalType": "contract ISuperToken",
          "name": "",
          "type": "address"
        }
      ],
      "stateMutability": "view",
      "type": "function"
    }
  ],
  "bytecode": "0x608060405273c1c6805b857bef1f412519c4a842522431afed39600460006101000a81548173ffffffffffffffffffffffffffffffffffffffff021916908373ffffffffffffffffffffffffffffffffffffffff1602179055503480156200006657600080fd5b506040516200255a3803806200255a83398181016040528101906200008c919062000644565b8073ffffffffffffffffffffffffffffffffffffffff166320bc44256040518163ffffffff1660e01b8152600401602060405180830381865afa158015620000d8573d6000803e3d6000fd5b505050506040513d601f19601f82011682018060405250810190620000fe9190620006bc565b73ffffffffffffffffffffffffffffffffffffffff168273ffffffffffffffffffffffffffffffffffffffff16146200016e576040517f08c379a000000000000000000000000000000000000000000000000000000000815260040162000165906200074f565b60405180910390fd5b806000806101000a81548173ffffffffffffffffffffffffffffffffffffffff021916908373ffffffffffffffffffffffffffffffffffffffff16021790555060405180604001604052808373ffffffffffffffffffffffffffffffffffffffff1681526020018373ffffffffffffffffffffffffffffffffffffffff1663b6d200de7f8aedc3b5d4bf031e11a7e2940f7251c005698405d58e02e1c247fed3b1b3a6746040518263ffffffff1660e01b81526004016200023091906200078c565b602060405180830381865afa1580156200024e573d6000803e3d6000fd5b505050506040513d601f19601f82011682018060405250810190620002749190620007ee565b73ffffffffffffffffffffffffffffffffffffffff16815250600160008201518160000160006101000a81548173ffffffffffffffffffffffffffffffffffffffff021916908373ffffffffffffffffffffffffffffffffffffffff16021790555060208201518160010160006101000a81548173ffffffffffffffffffffffffffffffffffffffff021916908373ffffffffffffffffffffffffffffffffffffffff1602179055509050506200033e81600060016200034660201b62000763179092919060201c565b505062000b97565b620003ab838383600067ffffffffffffffff8111156200036b576200036a62000820565b5b6040519080825280601f01601f1916602001820160405280156200039e5781602001600182028036833780820191505090505b50620003b060201b60201c565b505050565b8360000160009054906101000a900473ffffffffffffffffffffffffffffffffffffffff1673ffffffffffffffffffffffffffffffffffffffff166339255d5b8560010160009054906101000a900473ffffffffffffffffffffffffffffffffffffffff168660010160009054906101000a900473ffffffffffffffffffffffffffffffffffffffff1673ffffffffffffffffffffffffffffffffffffffff1663d787840a8787600067ffffffffffffffff81111562000475576200047462000820565b5b6040519080825280601f01601f191660200182016040528015620004a85781602001600182028036833780820191505090505b50604051602401620004bd939291906200097f565b604051602081830303815290604052915060e01b6020820180517bffffffffffffffffffffffffffffffffffffffffffffffffffffffff8381831617835250505050846040518463ffffffff1660e01b81526004016200052093929190620009e8565b6000604051808303816000875af115801562000540573d6000803e3d6000fd5b505050506040513d6000823e3d601f19601f820116820180604052508101906200056b919062000b46565b5050505050565b6000604051905090565b600080fd5b600080fd5b600073ffffffffffffffffffffffffffffffffffffffff82169050919050565b6000620005b38262000586565b9050919050565b6000620005c782620005a6565b9050919050565b620005d981620005ba565b8114620005e557600080fd5b50565b600081519050620005f981620005ce565b92915050565b60006200060c82620005a6565b9050919050565b6200061e81620005ff565b81146200062a57600080fd5b50565b6000815190506200063e8162000613565b92915050565b600080604083850312156200065e576200065d6200057c565b5b60006200066e85828601620005e8565b925050602062000681858286016200062d565b9150509250929050565b6200069681620005a6565b8114620006a257600080fd5b50565b600081519050620006b6816200068b565b92915050565b600060208284031215620006d557620006d46200057c565b5b6000620006e584828501620006a5565b91505092915050565b600082825260208201905092915050565b7f217375706572546f6b656e000000000000000000000000000000000000000000600082015250565b600062000737600b83620006ee565b91506200074482620006ff565b602082019050919050565b600060208201905081810360008301526200076a8162000728565b9050919050565b6000819050919050565b620007868162000771565b82525050565b6000602082019050620007a360008301846200077b565b92915050565b6000620007b682620005a6565b9050919050565b620007c881620007a9565b8114620007d457600080fd5b50565b600081519050620007e881620007bd565b92915050565b6000602082840312156200080757620008066200057c565b5b60006200081784828501620007d7565b91505092915050565b7f4e487b7100000000000000000000000000000000000000000000000000000000600052604160045260246000fd5b6000819050919050565b60006200087a620008746200086e8462000586565b6200084f565b62000586565b9050919050565b60006200088e8262000859565b9050919050565b6000620008a28262000881565b9050919050565b620008b48162000895565b82525050565b600063ffffffff82169050919050565b620008d581620008ba565b82525050565b600081519050919050565b600082825260208201905092915050565b60005b8381101562000917578082015181840152602081019050620008fa565b8381111562000927576000848401525b50505050565b6000601f19601f8301169050919050565b60006200094b82620008db565b620009578185620008e6565b935062000969818560208601620008f7565b62000974816200092d565b840191505092915050565b6000606082019050620009966000830186620008a9565b620009a56020830185620008ca565b8181036040830152620009b981846200093e565b9050949350505050565b6000620009d08262000881565b9050919050565b620009e281620009c3565b82525050565b6000606082019050620009ff6000830186620009d7565b818103602083015262000a1381856200093e565b9050818103604083015262000a2981846200093e565b9050949350505050565b600080fd5b600080fd5b62000a48826200092d565b810181811067ffffffffffffffff8211171562000a6a5762000a6962000820565b5b80604052505050565b600062000a7f62000572565b905062000a8d828262000a3d565b919050565b600067ffffffffffffffff82111562000ab05762000aaf62000820565b5b62000abb826200092d565b9050602081019050919050565b600062000adf62000ad98462000a92565b62000a73565b90508281526020810184848401111562000afe5762000afd62000a38565b5b62000b0b848285620008f7565b509392505050565b600082601f83011262000b2b5762000b2a62000a33565b5b815162000b3d84826020860162000ac8565b91505092915050565b60006020828403121562000b5f5762000b5e6200057c565b5b600082015167ffffffffffffffff81111562000b805762000b7f62000581565b5b62000b8e8482850162000b13565b91505092915050565b6119b38062000ba76000396000f3fe608060405234801561001057600080fd5b50600436106100935760003560e01c8063844a5f5f11610066578063844a5f5f1461011f5780638c7f09591461013d5780638da5cb5b1461015b578063b908048b14610179578063e4fc6b6d1461019557610093565b80631cc8ca99146100985780632268cacb146100b757806348ea9b31146100d35780634f51438214610103575b600080fd5b6100a061019f565b6040516100ae92919061112e565b60405180910390f35b6100d160048036038101906100cc91906111a9565b6101f1565b005b6100ed60048036038101906100e891906111a9565b6102a6565b6040516100fa9190611201565b60405180910390f35b61011d60048036038101906101189190611252565b6102d5565b005b6101276103f5565b60405161013491906112b3565b60405180910390f35b610145610419565b60405161015291906112ed565b60405180910390f35b61016361041e565b6040516101709190611317565b60405180910390f35b610193600480360381019061018e9190611252565b610444565b005b61019d610564565b005b60018060000160009054906101000a900473ffffffffffffffffffffffffffffffffffffffff16908060010160009054906101000a900473ffffffffffffffffffffffffffffffffffffffff16905082565b61022c60008054906101000a900473ffffffffffffffffffffffffffffffffffffffff163060008460016107c190949392919063ffffffff16565b6000600360008373ffffffffffffffffffffffffffffffffffffffff1673ffffffffffffffffffffffffffffffffffffffff16815260200190815260200160002060006101000a8154816fffffffffffffffffffffffffffffffff02191690836fffffffffffffffffffffffffffffffff16021790555050565b60036020528060005260406000206000915054906101000a90046fffffffffffffffffffffffffffffffff1681565b600061031260008054906101000a900473ffffffffffffffffffffffffffffffffffffffff1630600086600161082390949392919063ffffffff16565b506fffffffffffffffffffffffffffffffff169250505061036f60008054906101000a900473ffffffffffffffffffffffffffffffffffffffff16600085858561035c9190611361565b60016108e190949392919063ffffffff16565b818161037b9190611361565b600360008573ffffffffffffffffffffffffffffffffffffffff1673ffffffffffffffffffffffffffffffffffffffff16815260200190815260200160002060006101000a8154816fffffffffffffffffffffffffffffffff02191690836fffffffffffffffffffffffffffffffff160217905550505050565b60008054906101000a900473ffffffffffffffffffffffffffffffffffffffff1681565b600081565b600460009054906101000a900473ffffffffffffffffffffffffffffffffffffffff1681565b600061048160008054906101000a900473ffffffffffffffffffffffffffffffffffffffff1630600086600161082390949392919063ffffffff16565b506fffffffffffffffffffffffffffffffff16925050506104de60008054906101000a900473ffffffffffffffffffffffffffffffffffffffff1660008585856104cb91906113b7565b60016108e190949392919063ffffffff16565b81816104ea91906113b7565b600360008573ffffffffffffffffffffffffffffffffffffffff1673ffffffffffffffffffffffffffffffffffffffff16815260200190815260200160002060006101000a8154816fffffffffffffffffffffffffffffffff02191690836fffffffffffffffffffffffffffffffff160217905550505050565b600460009054906101000a900473ffffffffffffffffffffffffffffffffffffffff1673ffffffffffffffffffffffffffffffffffffffff163373ffffffffffffffffffffffffffffffffffffffff16146105be57600080fd5b60008060009054906101000a900473ffffffffffffffffffffffffffffffffffffffff1673ffffffffffffffffffffffffffffffffffffffff166370a08231306040518263ffffffff1660e01b815260040161061a9190611317565b602060405180830381865afa158015610637573d6000803e3d6000fd5b505050506040513d601f19601f8201168201806040525081019061065b9190611400565b905060006001800160009054906101000a900473ffffffffffffffffffffffffffffffffffffffff1673ffffffffffffffffffffffffffffffffffffffff1663899baaec60008054906101000a900473ffffffffffffffffffffffffffffffffffffffff16306000866040518563ffffffff1660e01b81526004016106e3949392919061143c565b6040805180830381865afa1580156106ff573d6000803e3d6000fd5b505050506040513d601f19601f8201168201806040525081019061072391906114ad565b50905061075f60008054906101000a900473ffffffffffffffffffffffffffffffffffffffff166000836001610943909392919063ffffffff16565b5050565b6107bc838383600067ffffffffffffffff811115610784576107836114ed565b5b6040519080825280601f01601f1916602001820160405280156107b65781602001600182028036833780820191505090505b506109a3565b505050565b61081c8585858585600067ffffffffffffffff8111156107e4576107e36114ed565b5b6040519080825280601f01601f1916602001820160405280156108165781602001600182028036833780820191505090505b50610b5a565b5050505050565b6000806000808860010160009054906101000a900473ffffffffffffffffffffffffffffffffffffffff1673ffffffffffffffffffffffffffffffffffffffff16635b534051898989896040518563ffffffff1660e01b815260040161088c949392919061153d565b608060405180830381865afa1580156108a9573d6000803e3d6000fd5b505050506040513d601f19601f820116820180604052508101906108cd91906115ba565b935093509350935095509550955095915050565b61093c8585858585600067ffffffffffffffff811115610904576109036114ed565b5b6040519080825280601f01601f1916602001820160405280156109365781602001600182028036833780820191505090505b50610d17565b5050505050565b61099d84848484600067ffffffffffffffff811115610965576109646114ed565b5b6040519080825280601f01601f1916602001820160405280156109975781602001600182028036833780820191505090505b50610ed4565b50505050565b8360000160009054906101000a900473ffffffffffffffffffffffffffffffffffffffff1673ffffffffffffffffffffffffffffffffffffffff166339255d5b8560010160009054906101000a900473ffffffffffffffffffffffffffffffffffffffff168660010160009054906101000a900473ffffffffffffffffffffffffffffffffffffffff1673ffffffffffffffffffffffffffffffffffffffff1663d787840a8787600067ffffffffffffffff811115610a6557610a646114ed565b5b6040519080825280601f01601f191660200182016040528015610a975781602001600182028036833780820191505090505b50604051602401610aaa939291906116ba565b604051602081830303815290604052915060e01b6020820180517bffffffffffffffffffffffffffffffffffffffffffffffffffffffff8381831617835250505050846040518463ffffffff1660e01b8152600401610b0b939291906116f8565b6000604051808303816000875af1158015610b2a573d6000803e3d6000fd5b505050506040513d6000823e3d601f19601f82011682018060405250810190610b539190611834565b5050505050565b8560000160009054906101000a900473ffffffffffffffffffffffffffffffffffffffff1673ffffffffffffffffffffffffffffffffffffffff166339255d5b8760010160009054906101000a900473ffffffffffffffffffffffffffffffffffffffff168860010160009054906101000a900473ffffffffffffffffffffffffffffffffffffffff1673ffffffffffffffffffffffffffffffffffffffff16632e5e74c689898989600067ffffffffffffffff811115610c1e57610c1d6114ed565b5b6040519080825280601f01601f191660200182016040528015610c505781602001600182028036833780820191505090505b50604051602401610c6595949392919061187d565b604051602081830303815290604052915060e01b6020820180517bffffffffffffffffffffffffffffffffffffffffffffffffffffffff8381831617835250505050846040518463ffffffff1660e01b8152600401610cc6939291906116f8565b6000604051808303816000875af1158015610ce5573d6000803e3d6000fd5b505050506040513d6000823e3d601f19601f82011682018060405250810190610d0e9190611834565b50505050505050565b8560000160009054906101000a900473ffffffffffffffffffffffffffffffffffffffff1673ffffffffffffffffffffffffffffffffffffffff166339255d5b8760010160009054906101000a900473ffffffffffffffffffffffffffffffffffffffff168860010160009054906101000a900473ffffffffffffffffffffffffffffffffffffffff1673ffffffffffffffffffffffffffffffffffffffff1663232d2b5889898989600067ffffffffffffffff811115610ddb57610dda6114ed565b5b6040519080825280601f01601f191660200182016040528015610e0d5781602001600182028036833780820191505090505b50604051602401610e229594939291906118d7565b604051602081830303815290604052915060e01b6020820180517bffffffffffffffffffffffffffffffffffffffffffffffffffffffff8381831617835250505050846040518463ffffffff1660e01b8152600401610e83939291906116f8565b6000604051808303816000875af1158015610ea2573d6000803e3d6000fd5b505050506040513d6000823e3d601f19601f82011682018060405250810190610ecb9190611834565b50505050505050565b8460000160009054906101000a900473ffffffffffffffffffffffffffffffffffffffff1673ffffffffffffffffffffffffffffffffffffffff166339255d5b8660010160009054906101000a900473ffffffffffffffffffffffffffffffffffffffff168760010160009054906101000a900473ffffffffffffffffffffffffffffffffffffffff1673ffffffffffffffffffffffffffffffffffffffff1663b96731c2888888600067ffffffffffffffff811115610f9757610f966114ed565b5b6040519080825280601f01601f191660200182016040528015610fc95781602001600182028036833780820191505090505b50604051602401610fdd9493929190611931565b604051602081830303815290604052915060e01b6020820180517bffffffffffffffffffffffffffffffffffffffffffffffffffffffff8381831617835250505050846040518463ffffffff1660e01b815260040161103e939291906116f8565b6000604051808303816000875af115801561105d573d6000803e3d6000fd5b505050506040513d6000823e3d601f19601f820116820180604052508101906110869190611834565b505050505050565b600073ffffffffffffffffffffffffffffffffffffffff82169050919050565b6000819050919050565b60006110d36110ce6110c98461108e565b6110ae565b61108e565b9050919050565b60006110e5826110b8565b9050919050565b60006110f7826110da565b9050919050565b611107816110ec565b82525050565b6000611118826110da565b9050919050565b6111288161110d565b82525050565b600060408201905061114360008301856110fe565b611150602083018461111f565b9392505050565b6000604051905090565b600080fd5b600080fd5b60006111768261108e565b9050919050565b6111868161116b565b811461119157600080fd5b50565b6000813590506111a38161117d565b92915050565b6000602082840312156111bf576111be611161565b5b60006111cd84828501611194565b91505092915050565b60006fffffffffffffffffffffffffffffffff82169050919050565b6111fb816111d6565b82525050565b600060208201905061121660008301846111f2565b92915050565b6000819050919050565b61122f8161121c565b811461123a57600080fd5b50565b60008135905061124c81611226565b92915050565b6000806040838503121561126957611268611161565b5b600061127785828601611194565b92505060206112888582860161123d565b9150509250929050565b600061129d826110da565b9050919050565b6112ad81611292565b82525050565b60006020820190506112c860008301846112a4565b92915050565b600063ffffffff82169050919050565b6112e7816112ce565b82525050565b600060208201905061130260008301846112de565b92915050565b6113118161116b565b82525050565b600060208201905061132c6000830184611308565b92915050565b7f4e487b7100000000000000000000000000000000000000000000000000000000600052601160045260246000fd5b600061136c8261121c565b91506113778361121c565b9250827fffffffffffffffffffffffffffffffffffffffffffffffffffffffffffffffff038211156113ac576113ab611332565b5b828201905092915050565b60006113c28261121c565b91506113cd8361121c565b9250828210156113e0576113df611332565b5b828203905092915050565b6000815190506113fa81611226565b92915050565b60006020828403121561141657611415611161565b5b6000611424848285016113eb565b91505092915050565b6114368161121c565b82525050565b600060808201905061145160008301876112a4565b61145e6020830186611308565b61146b60408301856112de565b611478606083018461142d565b95945050505050565b61148a816111d6565b811461149557600080fd5b50565b6000815190506114a781611481565b92915050565b600080604083850312156114c4576114c3611161565b5b60006114d2858286016113eb565b92505060206114e385828601611498565b9150509250929050565b7f4e487b7100000000000000000000000000000000000000000000000000000000600052604160045260246000fd5b6000611527826110da565b9050919050565b6115378161151c565b82525050565b6000608082019050611552600083018761152e565b61155f6020830186611308565b61156c60408301856112de565b6115796060830184611308565b95945050505050565b60008115159050919050565b61159781611582565b81146115a257600080fd5b50565b6000815190506115b48161158e565b92915050565b600080600080608085870312156115d4576115d3611161565b5b60006115e2878288016115a5565b94505060206115f3878288016115a5565b935050604061160487828801611498565b9250506060611615878288016113eb565b91505092959194509250565b600081519050919050565b600082825260208201905092915050565b60005b8381101561165b578082015181840152602081019050611640565b8381111561166a576000848401525b50505050565b6000601f19601f8301169050919050565b600061168c82611621565b611696818561162c565b93506116a681856020860161163d565b6116af81611670565b840191505092915050565b60006060820190506116cf600083018661152e565b6116dc60208301856112de565b81810360408301526116ee8184611681565b9050949350505050565b600060608201905061170d600083018661111f565b818103602083015261171f8185611681565b905081810360408301526117338184611681565b9050949350505050565b600080fd5b600080fd5b61175082611670565b810181811067ffffffffffffffff8211171561176f5761176e6114ed565b5b80604052505050565b6000611782611157565b905061178e8282611747565b919050565b600067ffffffffffffffff8211156117ae576117ad6114ed565b5b6117b782611670565b9050602081019050919050565b60006117d76117d284611793565b611778565b9050828152602081018484840111156117f3576117f2611742565b5b6117fe84828561163d565b509392505050565b600082601f83011261181b5761181a61173d565b5b815161182b8482602086016117c4565b91505092915050565b60006020828403121561184a57611849611161565b5b600082015167ffffffffffffffff81111561186857611867611166565b5b61187484828501611806565b91505092915050565b600060a082019050611892600083018861152e565b61189f6020830187611308565b6118ac60408301866112de565b6118b96060830185611308565b81810360808301526118cb8184611681565b90509695505050505050565b600060a0820190506118ec600083018861152e565b6118f960208301876112de565b6119066040830186611308565b61191360608301856111f2565b81810360808301526119258184611681565b90509695505050505050565b6000608082019050611946600083018761152e565b61195360208301866112de565b611960604083018561142d565b81810360608301526119728184611681565b90509594505050505056fea264697066735822122010b1b52526e4b9221fe5c81e538b26eb47b3109a2aabc471df77a037127a6d7b64736f6c634300080d0033",
  "linkReferences": {},
  "deployedLinkReferences": {}
}