{
  "_format": "hh-sol-artifact-1",
  "contractName": "InstituteFundsManager",
  "sourceName": "contracts/InstituteFundsManager.sol",
  "abi": [
    {
      "inputs": [
        {
          "internalType": "string",
          "name": "_name",
          "type": "string"
        }
      ],
      "stateMutability": "nonpayable",
      "type": "constructor"
    },
    {
      "inputs": [
        {
          "internalType": "uint256",
          "name": "_noOfModules",
          "type": "uint256"
        },
        {
          "internalType": "uint256",
          "name": "_noOfTokens",
          "type": "uint256"
        }
      ],
      "name": "addModule",
      "outputs": [],
      "stateMutability": "nonpayable",
      "type": "function"
    },
    {
      "inputs": [
        {
          "internalType": "string",
          "name": "_streamCode",
          "type": "string"
        }
      ],
      "name": "addStreams",
      "outputs": [],
      "stateMutability": "nonpayable",
      "type": "function"
    },
    {
      "inputs": [
        {
          "internalType": "string",
          "name": "_streamCode",
          "type": "string"
        },
        {
          "internalType": "uint256",
          "name": "_noOfTokens",
          "type": "uint256"
        }
      ],
      "name": "depositFundsToStream",
      "outputs": [],
      "stateMutability": "nonpayable",
      "type": "function"
    },
    {
      "inputs": [],
      "name": "getAllStreams",
      "outputs": [
        {
          "internalType": "string[]",
          "name": "",
          "type": "string[]"
        }
      ],
      "stateMutability": "view",
      "type": "function"
    },
    {
      "inputs": [],
      "name": "getReward",
      "outputs": [],
      "stateMutability": "nonpayable",
      "type": "function"
    },
    {
      "inputs": [
        {
          "internalType": "string",
          "name": "_streamCode",
          "type": "string"
        }
      ],
      "name": "getStreamFunds",
      "outputs": [
        {
          "internalType": "uint256",
          "name": "",
          "type": "uint256"
        }
      ],
      "stateMutability": "view",
      "type": "function"
    },
    {
      "inputs": [],
      "name": "instituteName",
      "outputs": [
        {
          "internalType": "string",
          "name": "",
          "type": "string"
        }
      ],
      "stateMutability": "view",
      "type": "function"
    },
    {
      "inputs": [],
      "name": "mintSomeTokens",
      "outputs": [],
      "stateMutability": "nonpayable",
      "type": "function"
    },
    {
      "inputs": [
        {
          "internalType": "uint256",
          "name": "_amount",
          "type": "uint256"
        }
      ],
      "name": "redeemToken",
      "outputs": [],
      "stateMutability": "nonpayable",
      "type": "function"
    }
  ],
  "bytecode": "0x608060405273c760202a0d87ecd6b53a8bbc72ff63a9b411986d600260006101000a81548173ffffffffffffffffffffffffffffffffffffffff021916908373ffffffffffffffffffffffffffffffffffffffff16021790555060006006553480156200006b57600080fd5b50604051620015a9380380620015a98339818101604052810190620000919190620003a1565b336000806101000a81548173ffffffffffffffffffffffffffffffffffffffff021916908373ffffffffffffffffffffffffffffffffffffffff1602179055508060019080519060200190620000e992919062000154565b50600260009054906101000a900473ffffffffffffffffffffffffffffffffffffffff16600360006101000a81548173ffffffffffffffffffffffffffffffffffffffff021916908373ffffffffffffffffffffffffffffffffffffffff1602179055505062000456565b828054620001629062000421565b90600052602060002090601f016020900481019282620001865760008555620001d2565b82601f10620001a157805160ff1916838001178555620001d2565b82800160010185558215620001d2579182015b82811115620001d1578251825591602001919060010190620001b4565b5b509050620001e19190620001e5565b5090565b5b8082111562000200576000816000905550600101620001e6565b5090565b6000604051905090565b600080fd5b600080fd5b600080fd5b600080fd5b6000601f19601f8301169050919050565b7f4e487b7100000000000000000000000000000000000000000000000000000000600052604160045260246000fd5b6200026d8262000222565b810181811067ffffffffffffffff821117156200028f576200028e62000233565b5b80604052505050565b6000620002a462000204565b9050620002b2828262000262565b919050565b600067ffffffffffffffff821115620002d557620002d462000233565b5b620002e08262000222565b9050602081019050919050565b60005b838110156200030d578082015181840152602081019050620002f0565b838111156200031d576000848401525b50505050565b60006200033a6200033484620002b7565b62000298565b9050828152602081018484840111156200035957620003586200021d565b5b62000366848285620002ed565b509392505050565b600082601f83011262000386576200038562000218565b5b81516200039884826020860162000323565b91505092915050565b600060208284031215620003ba57620003b96200020e565b5b600082015167ffffffffffffffff811115620003db57620003da62000213565b5b620003e9848285016200036e565b91505092915050565b7f4e487b7100000000000000000000000000000000000000000000000000000000600052602260045260246000fd5b600060028204905060018216806200043a57607f821691505b60208210810362000450576200044f620003f2565b5b50919050565b61114380620004666000396000f3fe608060405234801561001057600080fd5b50600436106100935760003560e01c80637f5f21c6116100665780637f5f21c6146100e6578063845c1115146101045780638894140a146101205780639af7a6231461013c578063a6c4459a1461016c57610093565b8063013054c214610098578063282a0d3b146100b45780633bd84c0c146100be5780633d18b912146100dc575b600080fd5b6100b260048036038101906100ad91906107db565b610188565b005b6100bc61022d565b005b6100c66102c9565b6040516100d39190610963565b60405180910390f35b6100e46103a2565b005b6100ee610497565b6040516100fb91906109cf565b60405180910390f35b61011e60048036038101906101199190610b26565b610525565b005b61013a60048036038101906101359190610b6f565b610588565b005b61015660048036038101906101519190610b26565b61065f565b6040516101639190610bda565b60405180910390f35b61018660048036038101906101819190610bf5565b610687565b005b600360009054906101000a900473ffffffffffffffffffffffffffffffffffffffff1673ffffffffffffffffffffffffffffffffffffffff1663a9059cbb33670de0b6b3a7640000846101db9190610c64565b6040518363ffffffff1660e01b81526004016101f8929190610cff565b600060405180830381600087803b15801561021257600080fd5b505af1158015610226573d6000803e3d6000fd5b5050505050565b600360009054906101000a900473ffffffffffffffffffffffffffffffffffffffff1673ffffffffffffffffffffffffffffffffffffffff166340c10f19306a084595161401484a0000006040518363ffffffff1660e01b8152600401610295929190610d6d565b600060405180830381600087803b1580156102af57600080fd5b505af11580156102c3573d6000803e3d6000fd5b50505050565b60606004805480602002602001604051908101604052809291908181526020016000905b8282101561039957838290600052602060002001805461030c90610dc5565b80601f016020809104026020016040519081016040528092919081815260200182805461033890610dc5565b80156103855780601f1061035a57610100808354040283529160200191610385565b820191906000526020600020905b81548152906001019060200180831161036857829003601f168201915b5050505050815260200190600101906102ed565b50505050905090565b600160065410156103e8576040517f08c379a00000000000000000000000000000000000000000000000000000000081526004016103df90610e68565b60405180910390fd5b60016006546103f79190610e88565b600681905550600360009054906101000a900473ffffffffffffffffffffffffffffffffffffffff1673ffffffffffffffffffffffffffffffffffffffff1663a9059cbb3368056bc75e2d631000006040518363ffffffff1660e01b8152600401610463929190610ef7565b600060405180830381600087803b15801561047d57600080fd5b505af1158015610491573d6000803e3d6000fd5b50505050565b600180546104a490610dc5565b80601f01602080910402602001604051908101604052809291908181526020018280546104d090610dc5565b801561051d5780601f106104f25761010080835404028352916020019161051d565b820191906000526020600020905b81548152906001019060200180831161050057829003601f168201915b505050505081565b60006005826040516105379190610f5c565b9081526020016040518091039020819055506004819080600181540180825580915050600190039060005260206000200160009091909190915090805190602001906105849291906106ee565b5050565b600081036105cb576040517f08c379a00000000000000000000000000000000000000000000000000000000081526004016105c290610fbf565b60405180910390fd5b60c881101561060f576040517f08c379a00000000000000000000000000000000000000000000000000000000081526004016106069061102b565b60405180910390fd5b806005836040516106209190610f5c565b908152602001604051809103902054610639919061104b565b6005836040516106499190610f5c565b9081526020016040518091039020819055505050565b60006005826040516106719190610f5c565b9081526020016040518091039020549050919050565b6064826106949190610c64565b8110156106d6576040517f08c379a00000000000000000000000000000000000000000000000000000000081526004016106cd906110ed565b60405180910390fd5b816006546106e4919061104b565b6006819055505050565b8280546106fa90610dc5565b90600052602060002090601f01602090048101928261071c5760008555610763565b82601f1061073557805160ff1916838001178555610763565b82800160010185558215610763579182015b82811115610762578251825591602001919060010190610747565b5b5090506107709190610774565b5090565b5b8082111561078d576000816000905550600101610775565b5090565b6000604051905090565b600080fd5b600080fd5b6000819050919050565b6107b8816107a5565b81146107c357600080fd5b50565b6000813590506107d5816107af565b92915050565b6000602082840312156107f1576107f061079b565b5b60006107ff848285016107c6565b91505092915050565b600081519050919050565b600082825260208201905092915050565b6000819050602082019050919050565b600081519050919050565b600082825260208201905092915050565b60005b8381101561086e578082015181840152602081019050610853565b8381111561087d576000848401525b50505050565b6000601f19601f8301169050919050565b600061089f82610834565b6108a9818561083f565b93506108b9818560208601610850565b6108c281610883565b840191505092915050565b60006108d98383610894565b905092915050565b6000602082019050919050565b60006108f982610808565b6109038185610813565b93508360208202850161091585610824565b8060005b85811015610951578484038952815161093285826108cd565b945061093d836108e1565b925060208a01995050600181019050610919565b50829750879550505050505092915050565b6000602082019050818103600083015261097d81846108ee565b905092915050565b600082825260208201905092915050565b60006109a182610834565b6109ab8185610985565b93506109bb818560208601610850565b6109c481610883565b840191505092915050565b600060208201905081810360008301526109e98184610996565b905092915050565b600080fd5b600080fd5b7f4e487b7100000000000000000000000000000000000000000000000000000000600052604160045260246000fd5b610a3382610883565b810181811067ffffffffffffffff82111715610a5257610a516109fb565b5b80604052505050565b6000610a65610791565b9050610a718282610a2a565b919050565b600067ffffffffffffffff821115610a9157610a906109fb565b5b610a9a82610883565b9050602081019050919050565b82818337600083830152505050565b6000610ac9610ac484610a76565b610a5b565b905082815260208101848484011115610ae557610ae46109f6565b5b610af0848285610aa7565b509392505050565b600082601f830112610b0d57610b0c6109f1565b5b8135610b1d848260208601610ab6565b91505092915050565b600060208284031215610b3c57610b3b61079b565b5b600082013567ffffffffffffffff811115610b5a57610b596107a0565b5b610b6684828501610af8565b91505092915050565b60008060408385031215610b8657610b8561079b565b5b600083013567ffffffffffffffff811115610ba457610ba36107a0565b5b610bb085828601610af8565b9250506020610bc1858286016107c6565b9150509250929050565b610bd4816107a5565b82525050565b6000602082019050610bef6000830184610bcb565b92915050565b60008060408385031215610c0c57610c0b61079b565b5b6000610c1a858286016107c6565b9250506020610c2b858286016107c6565b9150509250929050565b7f4e487b7100000000000000000000000000000000000000000000000000000000600052601160045260246000fd5b6000610c6f826107a5565b9150610c7a836107a5565b9250817fffffffffffffffffffffffffffffffffffffffffffffffffffffffffffffffff0483118215151615610cb357610cb2610c35565b5b828202905092915050565b600073ffffffffffffffffffffffffffffffffffffffff82169050919050565b6000610ce982610cbe565b9050919050565b610cf981610cde565b82525050565b6000604082019050610d146000830185610cf0565b610d216020830184610bcb565b9392505050565b6000819050919050565b6000819050919050565b6000610d57610d52610d4d84610d28565b610d32565b6107a5565b9050919050565b610d6781610d3c565b82525050565b6000604082019050610d826000830185610cf0565b610d8f6020830184610d5e565b9392505050565b7f4e487b7100000000000000000000000000000000000000000000000000000000600052602260045260246000fd5b60006002820490506001821680610ddd57607f821691505b602082108103610df057610def610d96565b5b50919050565b7f4e6f206d6f726520726577617264696e67206d6f64756c657320617661696c6160008201527f69626c6500000000000000000000000000000000000000000000000000000000602082015250565b6000610e52602483610985565b9150610e5d82610df6565b604082019050919050565b60006020820190508181036000830152610e8181610e45565b9050919050565b6000610e93826107a5565b9150610e9e836107a5565b925082821015610eb157610eb0610c35565b5b828203905092915050565b6000819050919050565b6000610ee1610edc610ed784610ebc565b610d32565b6107a5565b9050919050565b610ef181610ec6565b82525050565b6000604082019050610f0c6000830185610cf0565b610f196020830184610ee8565b9392505050565b600081905092915050565b6000610f3682610834565b610f408185610f20565b9350610f50818560208601610850565b80840191505092915050565b6000610f688284610f2b565b915081905092915050565b7f43616e2774206465706f736974207a65726f20746f6b656e0000000000000000600082015250565b6000610fa9601883610985565b9150610fb482610f73565b602082019050919050565b60006020820190508181036000830152610fd881610f9c565b9050919050565b7f4e6f7420656e6f75676820746f6b656e7320746f206164766572746973650000600082015250565b6000611015601e83610985565b915061102082610fdf565b602082019050919050565b6000602082019050818103600083015261104481611008565b9050919050565b6000611056826107a5565b9150611061836107a5565b9250827fffffffffffffffffffffffffffffffffffffffffffffffffffffffffffffffff0382111561109657611095610c35565b5b828201905092915050565b7f4e6f7420656e6f75676820746f6b656e73207472616e73666572656400000000600082015250565b60006110d7601c83610985565b91506110e2826110a1565b602082019050919050565b60006020820190508181036000830152611106816110ca565b905091905056fea2646970667358221220ea8d1ec46fc067ce8c699d097b2829824b2300e76945e0f706fa4fd3c93273c864736f6c634300080d0033",
  "linkReferences": {},
  "deployedLinkReferences": {}
}