{
  "_format": "hh-sol-artifact-1",
  "contractName": "InstituteFundsManagerFactory",
  "sourceName": "contracts/InstituteFundsManagerFactory.sol",
  "abi": [
    {
      "inputs": [
        {
          "internalType": "string",
          "name": "_name",
          "type": "string"
        },
        {
          "internalType": "string",
          "name": "_instId",
          "type": "string"
        },
        {
          "internalType": "address",
          "name": "_owner",
          "type": "address"
        }
      ],
      "name": "addInstitute",
      "outputs": [],
      "stateMutability": "nonpayable",
      "type": "function"
    },
    {
      "inputs": [],
      "name": "getALlInstitutesManager",
      "outputs": [
        {
          "components": [
            {
              "internalType": "string",
              "name": "name",
              "type": "string"
            },
            {
              "internalType": "contract InstituteFundsManager",
              "name": "instituteAddress",
              "type": "address"
            },
            {
              "internalType": "string",
              "name": "instituteId",
              "type": "string"
            }
          ],
          "internalType": "struct InstituteFundsManagerFactory.instituteDetails[]",
          "name": "",
          "type": "tuple[]"
        }
      ],
      "stateMutability": "view",
      "type": "function"
    },
    {
      "inputs": [
        {
          "internalType": "uint256",
          "name": "",
          "type": "uint256"
        }
      ],
      "name": "institutes",
      "outputs": [
        {
          "internalType": "string",
          "name": "name",
          "type": "string"
        },
        {
          "internalType": "contract InstituteFundsManager",
          "name": "instituteAddress",
          "type": "address"
        },
        {
          "internalType": "string",
          "name": "instituteId",
          "type": "string"
        }
      ],
      "stateMutability": "view",
      "type": "function"
    }
  ],
  "bytecode": "0x608060405234801561001057600080fd5b50612a90806100206000396000f3fe60806040523480156200001157600080fd5b5060043610620000465760003560e01c806389d896c3146200004b5780638f8e94c9146200006d57806390ee20b0146200008d575b600080fd5b62000055620000c5565b6040516200006491906200086d565b60405180910390f35b6200008b600480360381019062000085919062000a3b565b620002b0565b005b620000ab6004803603810190620000a5919062000b10565b620003d8565b604051620000bc9392919062000ba5565b60405180910390f35b60606000805480602002602001604051908101604052809291908181526020016000905b82821015620002a757838290600052602060002090600302016040518060600160405290816000820180546200011f9062000c1f565b80601f01602080910402602001604051908101604052809291908181526020018280546200014d9062000c1f565b80156200019e5780601f1062000172576101008083540402835291602001916200019e565b820191906000526020600020905b8154815290600101906020018083116200018057829003601f168201915b505050505081526020016001820160009054906101000a900473ffffffffffffffffffffffffffffffffffffffff1673ffffffffffffffffffffffffffffffffffffffff1673ffffffffffffffffffffffffffffffffffffffff1681526020016002820180546200020f9062000c1f565b80601f01602080910402602001604051908101604052809291908181526020018280546200023d9062000c1f565b80156200028e5780601f1062000262576101008083540402835291602001916200028e565b820191906000526020600020905b8154815290600101906020018083116200027057829003601f168201915b50505050508152505081526020019060010190620000e9565b50505050905090565b60008382604051620002c29062000553565b620002cf92919062000c65565b604051809103906000f080158015620002ec573d6000803e3d6000fd5b509050600060405180606001604052808681526020018373ffffffffffffffffffffffffffffffffffffffff16815260200185815250908060018154018082558091505060019003906000526020600020906003020160009091909190915060008201518160000190805190602001906200036992919062000561565b5060208201518160010160006101000a81548173ffffffffffffffffffffffffffffffffffffffff021916908373ffffffffffffffffffffffffffffffffffffffff1602179055506040820151816002019080519060200190620003cf92919062000561565b50505050505050565b60008181548110620003e957600080fd5b90600052602060002090600302016000915090508060000180546200040e9062000c1f565b80601f01602080910402602001604051908101604052809291908181526020018280546200043c9062000c1f565b80156200048d5780601f1062000461576101008083540402835291602001916200048d565b820191906000526020600020905b8154815290600101906020018083116200046f57829003601f168201915b5050505050908060010160009054906101000a900473ffffffffffffffffffffffffffffffffffffffff1690806002018054620004ca9062000c1f565b80601f0160208091040260200160405190810160405280929190818152602001828054620004f89062000c1f565b8015620005495780601f106200051d5761010080835404028352916020019162000549565b820191906000526020600020905b8154815290600101906020018083116200052b57829003601f168201915b5050505050905083565b611dc18062000c9a83390190565b8280546200056f9062000c1f565b90600052602060002090601f016020900481019282620005935760008555620005df565b82601f10620005ae57805160ff1916838001178555620005df565b82800160010185558215620005df579182015b82811115620005de578251825591602001919060010190620005c1565b5b509050620005ee9190620005f2565b5090565b5b808211156200060d576000816000905550600101620005f3565b5090565b600081519050919050565b600082825260208201905092915050565b6000819050602082019050919050565b600081519050919050565b600082825260208201905092915050565b60005b83811015620006795780820151818401526020810190506200065c565b8381111562000689576000848401525b50505050565b6000601f19601f8301169050919050565b6000620006ad826200063d565b620006b9818562000648565b9350620006cb81856020860162000659565b620006d6816200068f565b840191505092915050565b600073ffffffffffffffffffffffffffffffffffffffff82169050919050565b6000819050919050565b60006200072c620007266200072084620006e1565b62000701565b620006e1565b9050919050565b600062000740826200070b565b9050919050565b6000620007548262000733565b9050919050565b620007668162000747565b82525050565b600060608301600083015184820360008601526200078b8282620006a0565b9150506020830151620007a260208601826200075b565b5060408301518482036040860152620007bc8282620006a0565b9150508091505092915050565b6000620007d783836200076c565b905092915050565b6000602082019050919050565b6000620007f98262000611565b6200080581856200061c565b93508360208202850162000819856200062d565b8060005b858110156200085b5784840389528151620008398582620007c9565b94506200084683620007df565b925060208a019950506001810190506200081d565b50829750879550505050505092915050565b60006020820190508181036000830152620008898184620007ec565b905092915050565b6000604051905090565b600080fd5b600080fd5b600080fd5b600080fd5b7f4e487b7100000000000000000000000000000000000000000000000000000000600052604160045260246000fd5b620008e9826200068f565b810181811067ffffffffffffffff821117156200090b576200090a620008af565b5b80604052505050565b60006200092062000891565b90506200092e8282620008de565b919050565b600067ffffffffffffffff821115620009515762000950620008af565b5b6200095c826200068f565b9050602081019050919050565b82818337600083830152505050565b60006200098f620009898462000933565b62000914565b905082815260208101848484011115620009ae57620009ad620008aa565b5b620009bb84828562000969565b509392505050565b600082601f830112620009db57620009da620008a5565b5b8135620009ed84826020860162000978565b91505092915050565b600062000a0382620006e1565b9050919050565b62000a1581620009f6565b811462000a2157600080fd5b50565b60008135905062000a358162000a0a565b92915050565b60008060006060848603121562000a575762000a566200089b565b5b600084013567ffffffffffffffff81111562000a785762000a77620008a0565b5b62000a8686828701620009c3565b935050602084013567ffffffffffffffff81111562000aaa5762000aa9620008a0565b5b62000ab886828701620009c3565b925050604062000acb8682870162000a24565b9150509250925092565b6000819050919050565b62000aea8162000ad5565b811462000af657600080fd5b50565b60008135905062000b0a8162000adf565b92915050565b60006020828403121562000b295762000b286200089b565b5b600062000b398482850162000af9565b91505092915050565b600082825260208201905092915050565b600062000b60826200063d565b62000b6c818562000b42565b935062000b7e81856020860162000659565b62000b89816200068f565b840191505092915050565b62000b9f8162000747565b82525050565b6000606082019050818103600083015262000bc1818662000b53565b905062000bd2602083018562000b94565b818103604083015262000be6818462000b53565b9050949350505050565b7f4e487b7100000000000000000000000000000000000000000000000000000000600052602260045260246000fd5b6000600282049050600182168062000c3857607f821691505b60208210810362000c4e5762000c4d62000bf0565b5b50919050565b62000c5f81620009f6565b82525050565b6000604082019050818103600083015262000c81818562000b53565b905062000c92602083018462000c54565b939250505056fe608060405273f2d68898557ccb2cf4c10c3ef2b034b2a69dad00600260006101000a81548173ffffffffffffffffffffffffffffffffffffffff021916908373ffffffffffffffffffffffffffffffffffffffff1602179055507331f1574875dbf52b4a4dcfdd40bc47a2515a4f58600360006101000a81548173ffffffffffffffffffffffffffffffffffffffff021916908373ffffffffffffffffffffffffffffffffffffffff16021790555060006008556000600955348015620000c557600080fd5b5060405162001dc138038062001dc18339818101604052810190620000eb919062000461565b806000806101000a81548173ffffffffffffffffffffffffffffffffffffffff021916908373ffffffffffffffffffffffffffffffffffffffff160217905550816001908051906020019062000143929190620001af565b50600260009054906101000a900473ffffffffffffffffffffffffffffffffffffffff16600460006101000a81548173ffffffffffffffffffffffffffffffffffffffff021916908373ffffffffffffffffffffffffffffffffffffffff16021790555050506200052b565b828054620001bd90620004f6565b90600052602060002090601f016020900481019282620001e157600085556200022d565b82601f10620001fc57805160ff19168380011785556200022d565b828001600101855582156200022d579182015b828111156200022c5782518255916020019190600101906200020f565b5b5090506200023c919062000240565b5090565b5b808211156200025b57600081600090555060010162000241565b5090565b6000604051905090565b600080fd5b600080fd5b600080fd5b600080fd5b6000601f19601f8301169050919050565b7f4e487b7100000000000000000000000000000000000000000000000000000000600052604160045260246000fd5b620002c8826200027d565b810181811067ffffffffffffffff82111715620002ea57620002e96200028e565b5b80604052505050565b6000620002ff6200025f565b90506200030d8282620002bd565b919050565b600067ffffffffffffffff82111562000330576200032f6200028e565b5b6200033b826200027d565b9050602081019050919050565b60005b83811015620003685780820151818401526020810190506200034b565b8381111562000378576000848401525b50505050565b6000620003956200038f8462000312565b620002f3565b905082815260208101848484011115620003b457620003b362000278565b5b620003c184828562000348565b509392505050565b600082601f830112620003e157620003e062000273565b5b8151620003f38482602086016200037e565b91505092915050565b600073ffffffffffffffffffffffffffffffffffffffff82169050919050565b60006200042982620003fc565b9050919050565b6200043b816200041c565b81146200044757600080fd5b50565b6000815190506200045b8162000430565b92915050565b600080604083850312156200047b576200047a62000269565b5b600083015167ffffffffffffffff8111156200049c576200049b6200026e565b5b620004aa85828601620003c9565b9250506020620004bd858286016200044a565b9150509250929050565b7f4e487b7100000000000000000000000000000000000000000000000000000000600052602260045260246000fd5b600060028204905060018216806200050f57607f821691505b602082108103620005255762000524620004c7565b5b50919050565b611886806200053b6000396000f3fe608060405234801561001057600080fd5b50600436106100cf5760003560e01c8063845c11151161008c57806397c993ae1161006657806397c993ae146101ec5780639af7a6231461021c578063a6c4459a1461024c578063e3b1cbc914610268576100cf565b8063845c1115146101845780638894140a146101a057806393e49966146101bc576100cf565b8063013054c2146100d45780630eb653b3146100f05780633bd84c0c146101205780633d18b9121461013e5780636f9fb98a146101485780637f5f21c614610166575b600080fd5b6100ee60048036038101906100e99190610d6f565b610284565b005b61010a60048036038101906101059190610d6f565b610329565b6040516101179190610e35565b60405180910390f35b6101286103d5565b6040516101359190610f63565b60405180910390f35b6101466104ae565b005b6101506105a2565b60405161015d9190610f94565b60405180910390f35b61016e610645565b60405161017b9190610e35565b60405180910390f35b61019e600480360381019061019991906110e4565b6106d3565b005b6101ba60048036038101906101b5919061112d565b61080e565b005b6101d660048036038101906101d191906110e4565b610a45565b6040516101e39190610f94565b60405180910390f35b610206600480360381019061020191906110e4565b610a73565b6040516102139190610f94565b60405180910390f35b610236600480360381019061023191906110e4565b610aa1565b6040516102439190610f94565b60405180910390f35b61026660048036038101906102619190611189565b610ac9565b005b610282600480360381019061027d91906110e4565b610b07565b005b600460009054906101000a900473ffffffffffffffffffffffffffffffffffffffff1673ffffffffffffffffffffffffffffffffffffffff1663a9059cbb33670de0b6b3a7640000846102d791906111f8565b6040518363ffffffff1660e01b81526004016102f4929190611293565b600060405180830381600087803b15801561030e57600080fd5b505af1158015610322573d6000803e3d6000fd5b5050505050565b6005818154811061033957600080fd5b906000526020600020016000915090508054610354906112eb565b80601f0160208091040260200160405190810160405280929190818152602001828054610380906112eb565b80156103cd5780601f106103a2576101008083540402835291602001916103cd565b820191906000526020600020905b8154815290600101906020018083116103b057829003601f168201915b505050505081565b60606005805480602002602001604051908101604052809291908181526020016000905b828210156104a5578382906000526020600020018054610418906112eb565b80601f0160208091040260200160405190810160405280929190818152602001828054610444906112eb565b80156104915780601f1061046657610100808354040283529160200191610491565b820191906000526020600020905b81548152906001019060200180831161047457829003601f168201915b5050505050815260200190600101906103f9565b50505050905090565b600160085410156104f4576040517f08c379a00000000000000000000000000000000000000000000000000000000081526004016104eb9061138e565b60405180910390fd5b600160085461050391906113ae565b600881905550600460009054906101000a900473ffffffffffffffffffffffffffffffffffffffff1673ffffffffffffffffffffffffffffffffffffffff1663a9059cbb33671bc16d674ec800006040518363ffffffff1660e01b815260040161056e929190611427565b600060405180830381600087803b15801561058857600080fd5b505af115801561059c573d6000803e3d6000fd5b50505050565b6000600460009054906101000a900473ffffffffffffffffffffffffffffffffffffffff1673ffffffffffffffffffffffffffffffffffffffff166370a08231306040518263ffffffff1660e01b81526004016105ff9190611450565b602060405180830381865afa15801561061c573d6000803e3d6000fd5b505050506040513d601f19601f820116820180604052508101906106409190611480565b905090565b60018054610652906112eb565b80601f016020809104026020016040519081016040528092919081815260200182805461067e906112eb565b80156106cb5780601f106106a0576101008083540402835291602001916106cb565b820191906000526020600020905b8154815290600101906020018083116106ae57829003601f168201915b505050505081565b60008054906101000a900473ffffffffffffffffffffffffffffffffffffffff1673ffffffffffffffffffffffffffffffffffffffff163373ffffffffffffffffffffffffffffffffffffffff1614610761576040517f08c379a0000000000000000000000000000000000000000000000000000000008152600401610758906114f9565b60405180910390fd5b600081905060008151036107aa576040517f08c379a00000000000000000000000000000000000000000000000000000000081526004016107a19061158b565b60405180910390fd5b60006006836040516107bc91906115e7565b908152602001604051809103902081905550600582908060018154018082558091505060019003906000526020600020016000909190919091509080519060200190610809929190610c82565b505050565b60008103610851576040517f08c379a00000000000000000000000000000000000000000000000000000000081526004016108489061164a565b60405180910390fd5b60028114610894576040517f08c379a000000000000000000000000000000000000000000000000000000000815260040161088b906116dc565b60405180910390fd5b600060026007846040516108a891906115e7565b9081526020016040518091039020546108c191906116fc565b9050670de0b6b3a7640000816108d791906111f8565b600460009054906101000a900473ffffffffffffffffffffffffffffffffffffffff1673ffffffffffffffffffffffffffffffffffffffff166370a08231306040518263ffffffff1660e01b81526004016109329190611450565b602060405180830381865afa15801561094f573d6000803e3d6000fd5b505050506040513d601f19601f820116820180604052508101906109739190611480565b146109b3576040517f08c379a00000000000000000000000000000000000000000000000000000000081526004016109aa9061179e565b60405180910390fd5b816006846040516109c491906115e7565b9081526020016040518091039020546109dd91906116fc565b6006846040516109ed91906115e7565b908152602001604051809103902081905550600683604051610a0f91906115e7565b908152602001604051809103902054600784604051610a2e91906115e7565b908152602001604051809103902081905550505050565b6006818051602081018201805184825260208301602085012081835280955050505050506000915090505481565b6007818051602081018201805184825260208301602085012081835280955050505050506000915090505481565b6000600682604051610ab391906115e7565b9081526020016040518091039020549050919050565b6000600283610ad891906111f8565b600954610ae591906116fc565b905082600854610af591906116fc565b60088190555080600981905550505050565b6000600682604051610b1991906115e7565b90815260200160405180910390205411610b68576040517f08c379a0000000000000000000000000000000000000000000000000000000008152600401610b5f90611830565b60405180910390fd5b600460009054906101000a900473ffffffffffffffffffffffffffffffffffffffff1673ffffffffffffffffffffffffffffffffffffffff1663a9059cbb600360009054906101000a900473ffffffffffffffffffffffffffffffffffffffff16600684604051610bd991906115e7565b9081526020016040518091039020546040518363ffffffff1660e01b8152600401610c05929190611293565b600060405180830381600087803b158015610c1f57600080fd5b505af1158015610c33573d6000803e3d6000fd5b505050506000600682604051610c4991906115e7565b9081526020016040518091039020819055506000600782604051610c6d91906115e7565b90815260200160405180910390208190555050565b828054610c8e906112eb565b90600052602060002090601f016020900481019282610cb05760008555610cf7565b82601f10610cc957805160ff1916838001178555610cf7565b82800160010185558215610cf7579182015b82811115610cf6578251825591602001919060010190610cdb565b5b509050610d049190610d08565b5090565b5b80821115610d21576000816000905550600101610d09565b5090565b6000604051905090565b600080fd5b600080fd5b6000819050919050565b610d4c81610d39565b8114610d5757600080fd5b50565b600081359050610d6981610d43565b92915050565b600060208284031215610d8557610d84610d2f565b5b6000610d9384828501610d5a565b91505092915050565b600081519050919050565b600082825260208201905092915050565b60005b83811015610dd6578082015181840152602081019050610dbb565b83811115610de5576000848401525b50505050565b6000601f19601f8301169050919050565b6000610e0782610d9c565b610e118185610da7565b9350610e21818560208601610db8565b610e2a81610deb565b840191505092915050565b60006020820190508181036000830152610e4f8184610dfc565b905092915050565b600081519050919050565b600082825260208201905092915050565b6000819050602082019050919050565b600082825260208201905092915050565b6000610e9f82610d9c565b610ea98185610e83565b9350610eb9818560208601610db8565b610ec281610deb565b840191505092915050565b6000610ed98383610e94565b905092915050565b6000602082019050919050565b6000610ef982610e57565b610f038185610e62565b935083602082028501610f1585610e73565b8060005b85811015610f515784840389528151610f328582610ecd565b9450610f3d83610ee1565b925060208a01995050600181019050610f19565b50829750879550505050505092915050565b60006020820190508181036000830152610f7d8184610eee565b905092915050565b610f8e81610d39565b82525050565b6000602082019050610fa96000830184610f85565b92915050565b600080fd5b600080fd5b7f4e487b7100000000000000000000000000000000000000000000000000000000600052604160045260246000fd5b610ff182610deb565b810181811067ffffffffffffffff821117156110105761100f610fb9565b5b80604052505050565b6000611023610d25565b905061102f8282610fe8565b919050565b600067ffffffffffffffff82111561104f5761104e610fb9565b5b61105882610deb565b9050602081019050919050565b82818337600083830152505050565b600061108761108284611034565b611019565b9050828152602081018484840111156110a3576110a2610fb4565b5b6110ae848285611065565b509392505050565b600082601f8301126110cb576110ca610faf565b5b81356110db848260208601611074565b91505092915050565b6000602082840312156110fa576110f9610d2f565b5b600082013567ffffffffffffffff81111561111857611117610d34565b5b611124848285016110b6565b91505092915050565b6000806040838503121561114457611143610d2f565b5b600083013567ffffffffffffffff81111561116257611161610d34565b5b61116e858286016110b6565b925050602061117f85828601610d5a565b9150509250929050565b600080604083850312156111a05761119f610d2f565b5b60006111ae85828601610d5a565b92505060206111bf85828601610d5a565b9150509250929050565b7f4e487b7100000000000000000000000000000000000000000000000000000000600052601160045260246000fd5b600061120382610d39565b915061120e83610d39565b9250817fffffffffffffffffffffffffffffffffffffffffffffffffffffffffffffffff0483118215151615611247576112466111c9565b5b828202905092915050565b600073ffffffffffffffffffffffffffffffffffffffff82169050919050565b600061127d82611252565b9050919050565b61128d81611272565b82525050565b60006040820190506112a86000830185611284565b6112b56020830184610f85565b9392505050565b7f4e487b7100000000000000000000000000000000000000000000000000000000600052602260045260246000fd5b6000600282049050600182168061130357607f821691505b602082108103611316576113156112bc565b5b50919050565b7f4e6f206d6f726520726577617264696e67206d6f64756c657320617661696c6160008201527f69626c6500000000000000000000000000000000000000000000000000000000602082015250565b6000611378602483610da7565b91506113838261131c565b604082019050919050565b600060208201905081810360008301526113a78161136b565b9050919050565b60006113b982610d39565b91506113c483610d39565b9250828210156113d7576113d66111c9565b5b828203905092915050565b6000819050919050565b6000819050919050565b600061141161140c611407846113e2565b6113ec565b610d39565b9050919050565b611421816113f6565b82525050565b600060408201905061143c6000830185611284565b6114496020830184611418565b9392505050565b60006020820190506114656000830184611284565b92915050565b60008151905061147a81610d43565b92915050565b60006020828403121561149657611495610d2f565b5b60006114a48482850161146b565b91505092915050565b7f43616e206f6e6c792062652063616c6c65642066726f6d206f776e6572000000600082015250565b60006114e3601d83610da7565b91506114ee826114ad565b602082019050919050565b60006020820190508181036000830152611512816114d6565b9050919050565b7f53747265616d20636f64652063616e277420626520616e20656d70747920737460008201527f72696e6700000000000000000000000000000000000000000000000000000000602082015250565b6000611575602483610da7565b915061158082611519565b604082019050919050565b600060208201905081810360008301526115a481611568565b9050919050565b600081905092915050565b60006115c182610d9c565b6115cb81856115ab565b93506115db818560208601610db8565b80840191505092915050565b60006115f382846115b6565b915081905092915050565b7f43616e2774206465706f736974207a65726f20746f6b656e0000000000000000600082015250565b6000611634601883610da7565b915061163f826115fe565b602082019050919050565b6000602082019050818103600083015261166381611627565b9050919050565b7f4e6f7420657175616c206e6f206f6620746f6b656e7320746f2061647665727460008201527f6973650000000000000000000000000000000000000000000000000000000000602082015250565b60006116c6602383610da7565b91506116d18261166a565b604082019050919050565b600060208201905081810360008301526116f5816116b9565b9050919050565b600061170782610d39565b915061171283610d39565b9250827fffffffffffffffffffffffffffffffffffffffffffffffffffffffffffffffff03821115611747576117466111c9565b5b828201905092915050565b7f42616c616e6365206861736e2774207570646174656420796574000000000000600082015250565b6000611788601a83610da7565b915061179382611752565b602082019050919050565b600060208201905081810360008301526117b78161177b565b9050919050565b7f446f65736e2774206d61747465722073747265616d20646f6e2774206765742060008201527f66756e6473000000000000000000000000000000000000000000000000000000602082015250565b600061181a602583610da7565b9150611825826117be565b604082019050919050565b600060208201905081810360008301526118498161180d565b905091905056fea26469706673582212203402bb3327f5e36071dff51aa06a71b5fe714f08c416dda690fc9caae11fd59364736f6c634300080d0033a2646970667358221220b013640ef291859ad201f56d67e7e2326522db13e62a377128e6c1c7882bd22d64736f6c634300080d0033",
  "linkReferences": {},
  "deployedLinkReferences": {}
}