{
  "_format": "hh-sol-artifact-1",
  "contractName": "InstituteFundsManager",
  "sourceName": "contracts/InstituteFundsManager.sol",
  "abi": [
    {
      "inputs": [
        {
          "internalType": "string",
          "name": "_name",
          "type": "string"
        }
      ],
      "stateMutability": "nonpayable",
      "type": "constructor"
    },
    {
      "inputs": [
        {
          "internalType": "uint256",
          "name": "_noOfModules",
          "type": "uint256"
        }
      ],
      "name": "addModule",
      "outputs": [],
      "stateMutability": "payable",
      "type": "function"
    },
    {
      "inputs": [
        {
          "internalType": "string",
          "name": "_streamCode",
          "type": "string"
        }
      ],
      "name": "addStreams",
      "outputs": [],
      "stateMutability": "nonpayable",
      "type": "function"
    },
    {
      "inputs": [
        {
          "internalType": "string",
          "name": "_streamCode",
          "type": "string"
        }
      ],
      "name": "depositFundsToStream",
      "outputs": [],
      "stateMutability": "payable",
      "type": "function"
    },
    {
      "inputs": [],
      "name": "getAllStreams",
      "outputs": [
        {
          "internalType": "string[]",
          "name": "",
          "type": "string[]"
        }
      ],
      "stateMutability": "view",
      "type": "function"
    },
    {
      "inputs": [],
      "name": "getReward",
      "outputs": [],
      "stateMutability": "nonpayable",
      "type": "function"
    },
    {
      "inputs": [],
      "name": "instituteName",
      "outputs": [
        {
          "internalType": "string",
          "name": "",
          "type": "string"
        }
      ],
      "stateMutability": "view",
      "type": "function"
    }
  ],
  "bytecode": "0x608060405273c760202a0d87ecd6b53a8bbc72ff63a9b411986d600260006101000a81548173ffffffffffffffffffffffffffffffffffffffff021916908373ffffffffffffffffffffffffffffffffffffffff160217905550620f424060065573b1b9ceeb2a1ee407caaf918830d37ec6bd0a8401600760006101000a81548173ffffffffffffffffffffffffffffffffffffffff021916908373ffffffffffffffffffffffffffffffffffffffff160217905550348015620000c257600080fd5b5060405162001188380380620011888339818101604052810190620000e89190620003f8565b336000806101000a81548173ffffffffffffffffffffffffffffffffffffffff021916908373ffffffffffffffffffffffffffffffffffffffff160217905550806001908051906020019062000140929190620001ab565b50600260009054906101000a900473ffffffffffffffffffffffffffffffffffffffff16600360006101000a81548173ffffffffffffffffffffffffffffffffffffffff021916908373ffffffffffffffffffffffffffffffffffffffff16021790555050620004ad565b828054620001b99062000478565b90600052602060002090601f016020900481019282620001dd576000855562000229565b82601f10620001f857805160ff191683800117855562000229565b8280016001018555821562000229579182015b82811115620002285782518255916020019190600101906200020b565b5b5090506200023891906200023c565b5090565b5b80821115620002575760008160009055506001016200023d565b5090565b6000604051905090565b600080fd5b600080fd5b600080fd5b600080fd5b6000601f19601f8301169050919050565b7f4e487b7100000000000000000000000000000000000000000000000000000000600052604160045260246000fd5b620002c48262000279565b810181811067ffffffffffffffff82111715620002e657620002e56200028a565b5b80604052505050565b6000620002fb6200025b565b9050620003098282620002b9565b919050565b600067ffffffffffffffff8211156200032c576200032b6200028a565b5b620003378262000279565b9050602081019050919050565b60005b838110156200036457808201518184015260208101905062000347565b8381111562000374576000848401525b50505050565b6000620003916200038b846200030e565b620002ef565b905082815260208101848484011115620003b057620003af62000274565b5b620003bd84828562000344565b509392505050565b600082601f830112620003dd57620003dc6200026f565b5b8151620003ef8482602086016200037a565b91505092915050565b60006020828403121562000411576200041062000265565b5b600082015167ffffffffffffffff8111156200043257620004316200026a565b5b6200044084828501620003c5565b91505092915050565b7f4e487b7100000000000000000000000000000000000000000000000000000000600052602260045260246000fd5b600060028204905060018216806200049157607f821691505b602082108103620004a757620004a662000449565b5b50919050565b610ccb80620004bd6000396000f3fe6080604052600436106100555760003560e01c806338a12df71461005a5780633bd84c0c146100765780633d18b912146100a15780634bccf116146100b85780637f5f21c6146100d4578063845c1115146100ff575b600080fd5b610074600480360381019061006f91906106f8565b610128565b005b34801561008257600080fd5b5061008b610278565b604051610098919061088b565b60405180910390f35b3480156100ad57600080fd5b506100b6610351565b005b6100d260048036038101906100cd91906108e3565b610400565b005b3480156100e057600080fd5b506100e961040a565b6040516100f6919061095a565b60405180910390f35b34801561010b57600080fd5b50610126600480360381019061012191906106f8565b610498565b005b6000340361016b576040517f08c379a0000000000000000000000000000000000000000000000000000000008152600401610162906109c8565b60405180910390fd5b3460058260405161017c9190610a24565b9081526020016040518091039020546101959190610a6a565b6005826040516101a59190610a24565b908152602001604051809103902081905550600360009054906101000a900473ffffffffffffffffffffffffffffffffffffffff1673ffffffffffffffffffffffffffffffffffffffff166340c10f19600760009054906101000a900473ffffffffffffffffffffffffffffffffffffffff166103e8346102269190610ac0565b6040518363ffffffff1660e01b8152600401610243929190610b6a565b600060405180830381600087803b15801561025d57600080fd5b505af1158015610271573d6000803e3d6000fd5b5050505050565b60606004805480602002602001604051908101604052809291908181526020016000905b828210156103485783829060005260206000200180546102bb90610bc2565b80601f01602080910402602001604051908101604052809291908181526020018280546102e790610bc2565b80156103345780601f1061030957610100808354040283529160200191610334565b820191906000526020600020905b81548152906001019060200180831161031757829003601f168201915b50505050508152602001906001019061029c565b50505050905090565b60016006546103609190610bf3565b600681905550600360009054906101000a900473ffffffffffffffffffffffffffffffffffffffff1673ffffffffffffffffffffffffffffffffffffffff166340c10f193368056bc75e2d631000006040518363ffffffff1660e01b81526004016103cc929190610c6c565b600060405180830381600087803b1580156103e657600080fd5b505af11580156103fa573d6000803e3d6000fd5b50505050565b8060068190555050565b6001805461041790610bc2565b80601f016020809104026020016040519081016040528092919081815260200182805461044390610bc2565b80156104905780601f1061046557610100808354040283529160200191610490565b820191906000526020600020905b81548152906001019060200180831161047357829003601f168201915b505050505081565b60006005826040516104aa9190610a24565b9081526020016040518091039020819055506004819080600181540180825580915050600190039060005260206000200160009091909190915090805190602001906104f79291906104fb565b5050565b82805461050790610bc2565b90600052602060002090601f0160209004810192826105295760008555610570565b82601f1061054257805160ff1916838001178555610570565b82800160010185558215610570579182015b8281111561056f578251825591602001919060010190610554565b5b50905061057d9190610581565b5090565b5b8082111561059a576000816000905550600101610582565b5090565b6000604051905090565b600080fd5b600080fd5b600080fd5b600080fd5b6000601f19601f8301169050919050565b7f4e487b7100000000000000000000000000000000000000000000000000000000600052604160045260246000fd5b610605826105bc565b810181811067ffffffffffffffff82111715610624576106236105cd565b5b80604052505050565b600061063761059e565b905061064382826105fc565b919050565b600067ffffffffffffffff821115610663576106626105cd565b5b61066c826105bc565b9050602081019050919050565b82818337600083830152505050565b600061069b61069684610648565b61062d565b9050828152602081018484840111156106b7576106b66105b7565b5b6106c2848285610679565b509392505050565b600082601f8301126106df576106de6105b2565b5b81356106ef848260208601610688565b91505092915050565b60006020828403121561070e5761070d6105a8565b5b600082013567ffffffffffffffff81111561072c5761072b6105ad565b5b610738848285016106ca565b91505092915050565b600081519050919050565b600082825260208201905092915050565b6000819050602082019050919050565b600081519050919050565b600082825260208201905092915050565b60005b838110156107a757808201518184015260208101905061078c565b838111156107b6576000848401525b50505050565b60006107c78261076d565b6107d18185610778565b93506107e1818560208601610789565b6107ea816105bc565b840191505092915050565b600061080183836107bc565b905092915050565b6000602082019050919050565b600061082182610741565b61082b818561074c565b93508360208202850161083d8561075d565b8060005b85811015610879578484038952815161085a85826107f5565b945061086583610809565b925060208a01995050600181019050610841565b50829750879550505050505092915050565b600060208201905081810360008301526108a58184610816565b905092915050565b6000819050919050565b6108c0816108ad565b81146108cb57600080fd5b50565b6000813590506108dd816108b7565b92915050565b6000602082840312156108f9576108f86105a8565b5b6000610907848285016108ce565b91505092915050565b600082825260208201905092915050565b600061092c8261076d565b6109368185610910565b9350610946818560208601610789565b61094f816105bc565b840191505092915050565b600060208201905081810360008301526109748184610921565b905092915050565b7f4e6f2066756e6473207472616e73666572656400000000000000000000000000600082015250565b60006109b2601383610910565b91506109bd8261097c565b602082019050919050565b600060208201905081810360008301526109e1816109a5565b9050919050565b600081905092915050565b60006109fe8261076d565b610a0881856109e8565b9350610a18818560208601610789565b80840191505092915050565b6000610a3082846109f3565b915081905092915050565b7f4e487b7100000000000000000000000000000000000000000000000000000000600052601160045260246000fd5b6000610a75826108ad565b9150610a80836108ad565b9250827fffffffffffffffffffffffffffffffffffffffffffffffffffffffffffffffff03821115610ab557610ab4610a3b565b5b828201905092915050565b6000610acb826108ad565b9150610ad6836108ad565b9250817fffffffffffffffffffffffffffffffffffffffffffffffffffffffffffffffff0483118215151615610b0f57610b0e610a3b565b5b828202905092915050565b600073ffffffffffffffffffffffffffffffffffffffff82169050919050565b6000610b4582610b1a565b9050919050565b610b5581610b3a565b82525050565b610b64816108ad565b82525050565b6000604082019050610b7f6000830185610b4c565b610b8c6020830184610b5b565b9392505050565b7f4e487b7100000000000000000000000000000000000000000000000000000000600052602260045260246000fd5b60006002820490506001821680610bda57607f821691505b602082108103610bed57610bec610b93565b5b50919050565b6000610bfe826108ad565b9150610c09836108ad565b925082821015610c1c57610c1b610a3b565b5b828203905092915050565b6000819050919050565b6000819050919050565b6000610c56610c51610c4c84610c27565b610c31565b6108ad565b9050919050565b610c6681610c3b565b82525050565b6000604082019050610c816000830185610b4c565b610c8e6020830184610c5d565b939250505056fea2646970667358221220890ea2a7da549821f62fe68bbabb731619eb57cb692b8ec62f5da7bb6f24f52564736f6c634300080d0033",
  "linkReferences": {},
  "deployedLinkReferences": {}
}