{
  "_format": "hh-sol-artifact-1",
  "contractName": "InstituteFundsManager",
  "sourceName": "contracts/InstituteFundsManager.sol",
  "abi": [
    {
      "inputs": [
        {
          "internalType": "string",
          "name": "_name",
          "type": "string"
        },
        {
          "internalType": "address",
          "name": "_instituteManagerAddress",
          "type": "address"
        }
      ],
      "stateMutability": "nonpayable",
      "type": "constructor"
    },
    {
      "inputs": [
        {
          "internalType": "uint256",
          "name": "_noOfModules",
          "type": "uint256"
        },
        {
          "internalType": "uint256",
          "name": "_noOfTokens",
          "type": "uint256"
        }
      ],
      "name": "addModule",
      "outputs": [],
      "stateMutability": "nonpayable",
      "type": "function"
    },
    {
      "inputs": [
        {
          "internalType": "string",
          "name": "_streamCode",
          "type": "string"
        }
      ],
      "name": "addStreams",
      "outputs": [],
      "stateMutability": "nonpayable",
      "type": "function"
    },
    {
      "inputs": [
        {
          "internalType": "uint256",
          "name": "",
          "type": "uint256"
        }
      ],
      "name": "allStreams",
      "outputs": [
        {
          "internalType": "string",
          "name": "",
          "type": "string"
        }
      ],
      "stateMutability": "view",
      "type": "function"
    },
    {
      "inputs": [
        {
          "internalType": "string",
          "name": "_streamCode",
          "type": "string"
        },
        {
          "internalType": "uint256",
          "name": "_noOfTokens",
          "type": "uint256"
        }
      ],
      "name": "depositFundsToStream",
      "outputs": [],
      "stateMutability": "nonpayable",
      "type": "function"
    },
    {
      "inputs": [],
      "name": "getAllStreams",
      "outputs": [
        {
          "internalType": "string[]",
          "name": "",
          "type": "string[]"
        }
      ],
      "stateMutability": "view",
      "type": "function"
    },
    {
      "inputs": [],
      "name": "getContractBalance",
      "outputs": [
        {
          "internalType": "uint256",
          "name": "",
          "type": "uint256"
        }
      ],
      "stateMutability": "view",
      "type": "function"
    },
    {
      "inputs": [],
      "name": "getReward",
      "outputs": [],
      "stateMutability": "nonpayable",
      "type": "function"
    },
    {
      "inputs": [
        {
          "internalType": "string",
          "name": "_streamCode",
          "type": "string"
        }
      ],
      "name": "getStreamFunds",
      "outputs": [
        {
          "internalType": "uint256",
          "name": "",
          "type": "uint256"
        }
      ],
      "stateMutability": "view",
      "type": "function"
    },
    {
      "inputs": [],
      "name": "instituteName",
      "outputs": [
        {
          "internalType": "string",
          "name": "",
          "type": "string"
        }
      ],
      "stateMutability": "view",
      "type": "function"
    },
    {
      "inputs": [
        {
          "internalType": "string",
          "name": "",
          "type": "string"
        }
      ],
      "name": "oldStreamBalance",
      "outputs": [
        {
          "internalType": "uint256",
          "name": "",
          "type": "uint256"
        }
      ],
      "stateMutability": "view",
      "type": "function"
    },
    {
      "inputs": [
        {
          "internalType": "uint256",
          "name": "_amount",
          "type": "uint256"
        }
      ],
      "name": "redeemToken",
      "outputs": [],
      "stateMutability": "nonpayable",
      "type": "function"
    },
    {
      "inputs": [
        {
          "internalType": "string",
          "name": "",
          "type": "string"
        }
      ],
      "name": "streamBalance",
      "outputs": [
        {
          "internalType": "uint256",
          "name": "",
          "type": "uint256"
        }
      ],
      "stateMutability": "view",
      "type": "function"
    },
    {
      "inputs": [
        {
          "internalType": "string",
          "name": "_streamCode",
          "type": "string"
        }
      ],
      "name": "transferFundsToDistribute",
      "outputs": [],
      "stateMutability": "nonpayable",
      "type": "function"
    }
  ],
  "bytecode": "0x608060405273f2d68898557ccb2cf4c10c3ef2b034b2a69dad00600260006101000a81548173ffffffffffffffffffffffffffffffffffffffff021916908373ffffffffffffffffffffffffffffffffffffffff1602179055507331f1574875dbf52b4a4dcfdd40bc47a2515a4f58600360006101000a81548173ffffffffffffffffffffffffffffffffffffffff021916908373ffffffffffffffffffffffffffffffffffffffff16021790555060006008556000600955348015620000c557600080fd5b5060405162001ffd38038062001ffd8339818101604052810190620000eb919062000461565b806000806101000a81548173ffffffffffffffffffffffffffffffffffffffff021916908373ffffffffffffffffffffffffffffffffffffffff160217905550816001908051906020019062000143929190620001af565b50600260009054906101000a900473ffffffffffffffffffffffffffffffffffffffff16600460006101000a81548173ffffffffffffffffffffffffffffffffffffffff021916908373ffffffffffffffffffffffffffffffffffffffff16021790555050506200052b565b828054620001bd90620004f6565b90600052602060002090601f016020900481019282620001e157600085556200022d565b82601f10620001fc57805160ff19168380011785556200022d565b828001600101855582156200022d579182015b828111156200022c5782518255916020019190600101906200020f565b5b5090506200023c919062000240565b5090565b5b808211156200025b57600081600090555060010162000241565b5090565b6000604051905090565b600080fd5b600080fd5b600080fd5b600080fd5b6000601f19601f8301169050919050565b7f4e487b7100000000000000000000000000000000000000000000000000000000600052604160045260246000fd5b620002c8826200027d565b810181811067ffffffffffffffff82111715620002ea57620002e96200028e565b5b80604052505050565b6000620002ff6200025f565b90506200030d8282620002bd565b919050565b600067ffffffffffffffff82111562000330576200032f6200028e565b5b6200033b826200027d565b9050602081019050919050565b60005b83811015620003685780820151818401526020810190506200034b565b8381111562000378576000848401525b50505050565b6000620003956200038f8462000312565b620002f3565b905082815260208101848484011115620003b457620003b362000278565b5b620003c184828562000348565b509392505050565b600082601f830112620003e157620003e062000273565b5b8151620003f38482602086016200037e565b91505092915050565b600073ffffffffffffffffffffffffffffffffffffffff82169050919050565b60006200042982620003fc565b9050919050565b6200043b816200041c565b81146200044757600080fd5b50565b6000815190506200045b8162000430565b92915050565b600080604083850312156200047b576200047a62000269565b5b600083015167ffffffffffffffff8111156200049c576200049b6200026e565b5b620004aa85828601620003c9565b9250506020620004bd858286016200044a565b9150509250929050565b7f4e487b7100000000000000000000000000000000000000000000000000000000600052602260045260246000fd5b600060028204905060018216806200050f57607f821691505b602082108103620005255762000524620004c7565b5b50919050565b611ac2806200053b6000396000f3fe608060405234801561001057600080fd5b50600436106100cf5760003560e01c8063845c11151161008c57806397c993ae1161006657806397c993ae146101ec5780639af7a6231461021c578063a6c4459a1461024c578063e3b1cbc914610268576100cf565b8063845c1115146101845780638894140a146101a057806393e49966146101bc576100cf565b8063013054c2146100d45780630eb653b3146100f05780633bd84c0c146101205780633d18b9121461013e5780636f9fb98a146101485780637f5f21c614610166575b600080fd5b6100ee60048036038101906100e99190610ead565b610284565b005b61010a60048036038101906101059190610ead565b610329565b6040516101179190610f73565b60405180910390f35b6101286103d5565b60405161013591906110a1565b60405180910390f35b6101466104ae565b005b6101506105a2565b60405161015d91906110d2565b60405180910390f35b61016e610645565b60405161017b9190610f73565b60405180910390f35b61019e60048036038101906101999190611222565b6106d3565b005b6101ba60048036038101906101b5919061126b565b61080e565b005b6101d660048036038101906101d19190611222565b610a45565b6040516101e391906110d2565b60405180910390f35b61020660048036038101906102019190611222565b610a73565b60405161021391906110d2565b60405180910390f35b61023660048036038101906102319190611222565b610aa1565b60405161024391906110d2565b60405180910390f35b610266600480360381019061026191906112c7565b610ac9565b005b610282600480360381019061027d9190611222565b610c45565b005b600460009054906101000a900473ffffffffffffffffffffffffffffffffffffffff1673ffffffffffffffffffffffffffffffffffffffff1663a9059cbb33670de0b6b3a7640000846102d79190611336565b6040518363ffffffff1660e01b81526004016102f49291906113d1565b600060405180830381600087803b15801561030e57600080fd5b505af1158015610322573d6000803e3d6000fd5b5050505050565b6005818154811061033957600080fd5b90600052602060002001600091509050805461035490611429565b80601f016020809104026020016040519081016040528092919081815260200182805461038090611429565b80156103cd5780601f106103a2576101008083540402835291602001916103cd565b820191906000526020600020905b8154815290600101906020018083116103b057829003601f168201915b505050505081565b60606005805480602002602001604051908101604052809291908181526020016000905b828210156104a557838290600052602060002001805461041890611429565b80601f016020809104026020016040519081016040528092919081815260200182805461044490611429565b80156104915780601f1061046657610100808354040283529160200191610491565b820191906000526020600020905b81548152906001019060200180831161047457829003601f168201915b5050505050815260200190600101906103f9565b50505050905090565b600160085410156104f4576040517f08c379a00000000000000000000000000000000000000000000000000000000081526004016104eb906114cc565b60405180910390fd5b600160085461050391906114ec565b600881905550600460009054906101000a900473ffffffffffffffffffffffffffffffffffffffff1673ffffffffffffffffffffffffffffffffffffffff1663a9059cbb33671bc16d674ec800006040518363ffffffff1660e01b815260040161056e929190611565565b600060405180830381600087803b15801561058857600080fd5b505af115801561059c573d6000803e3d6000fd5b50505050565b6000600460009054906101000a900473ffffffffffffffffffffffffffffffffffffffff1673ffffffffffffffffffffffffffffffffffffffff166370a08231306040518263ffffffff1660e01b81526004016105ff919061158e565b602060405180830381865afa15801561061c573d6000803e3d6000fd5b505050506040513d601f19601f8201168201806040525081019061064091906115be565b905090565b6001805461065290611429565b80601f016020809104026020016040519081016040528092919081815260200182805461067e90611429565b80156106cb5780601f106106a0576101008083540402835291602001916106cb565b820191906000526020600020905b8154815290600101906020018083116106ae57829003601f168201915b505050505081565b60008054906101000a900473ffffffffffffffffffffffffffffffffffffffff1673ffffffffffffffffffffffffffffffffffffffff163373ffffffffffffffffffffffffffffffffffffffff1614610761576040517f08c379a000000000000000000000000000000000000000000000000000000000815260040161075890611637565b60405180910390fd5b600081905060008151036107aa576040517f08c379a00000000000000000000000000000000000000000000000000000000081526004016107a1906116c9565b60405180910390fd5b60006006836040516107bc9190611725565b908152602001604051809103902081905550600582908060018154018082558091505060019003906000526020600020016000909190919091509080519060200190610809929190610dc0565b505050565b60008103610851576040517f08c379a000000000000000000000000000000000000000000000000000000000815260040161084890611788565b60405180910390fd5b60028114610894576040517f08c379a000000000000000000000000000000000000000000000000000000000815260040161088b9061181a565b60405180910390fd5b600060026007846040516108a89190611725565b9081526020016040518091039020546108c1919061183a565b9050670de0b6b3a7640000816108d79190611336565b600460009054906101000a900473ffffffffffffffffffffffffffffffffffffffff1673ffffffffffffffffffffffffffffffffffffffff166370a08231306040518263ffffffff1660e01b8152600401610932919061158e565b602060405180830381865afa15801561094f573d6000803e3d6000fd5b505050506040513d601f19601f8201168201806040525081019061097391906115be565b146109b3576040517f08c379a00000000000000000000000000000000000000000000000000000000081526004016109aa906118dc565b60405180910390fd5b816006846040516109c49190611725565b9081526020016040518091039020546109dd919061183a565b6006846040516109ed9190611725565b908152602001604051809103902081905550600683604051610a0f9190611725565b908152602001604051809103902054600784604051610a2e9190611725565b908152602001604051809103902081905550505050565b6006818051602081018201805184825260208301602085012081835280955050505050506000915090505481565b6007818051602081018201805184825260208301602085012081835280955050505050506000915090505481565b6000600682604051610ab39190611725565b9081526020016040518091039020549050919050565b600282610ad69190611336565b8114610b17576040517f08c379a0000000000000000000000000000000000000000000000000000000008152600401610b0e90611948565b60405180910390fd5b6000600283610b269190611336565b600954610b33919061183a565b9050670de0b6b3a764000081610b499190611336565b600460009054906101000a900473ffffffffffffffffffffffffffffffffffffffff1673ffffffffffffffffffffffffffffffffffffffff166370a08231306040518263ffffffff1660e01b8152600401610ba4919061158e565b602060405180830381865afa158015610bc1573d6000803e3d6000fd5b505050506040513d601f19601f82011682018060405250810190610be591906115be565b14610c25576040517f08c379a0000000000000000000000000000000000000000000000000000000008152600401610c1c906119da565b60405180910390fd5b82600854610c33919061183a565b60088190555080600981905550505050565b6000600682604051610c579190611725565b90815260200160405180910390205411610ca6576040517f08c379a0000000000000000000000000000000000000000000000000000000008152600401610c9d90611a6c565b60405180910390fd5b600460009054906101000a900473ffffffffffffffffffffffffffffffffffffffff1673ffffffffffffffffffffffffffffffffffffffff1663a9059cbb600360009054906101000a900473ffffffffffffffffffffffffffffffffffffffff16600684604051610d179190611725565b9081526020016040518091039020546040518363ffffffff1660e01b8152600401610d439291906113d1565b600060405180830381600087803b158015610d5d57600080fd5b505af1158015610d71573d6000803e3d6000fd5b505050506000600682604051610d879190611725565b9081526020016040518091039020819055506000600782604051610dab9190611725565b90815260200160405180910390208190555050565b828054610dcc90611429565b90600052602060002090601f016020900481019282610dee5760008555610e35565b82601f10610e0757805160ff1916838001178555610e35565b82800160010185558215610e35579182015b82811115610e34578251825591602001919060010190610e19565b5b509050610e429190610e46565b5090565b5b80821115610e5f576000816000905550600101610e47565b5090565b6000604051905090565b600080fd5b600080fd5b6000819050919050565b610e8a81610e77565b8114610e9557600080fd5b50565b600081359050610ea781610e81565b92915050565b600060208284031215610ec357610ec2610e6d565b5b6000610ed184828501610e98565b91505092915050565b600081519050919050565b600082825260208201905092915050565b60005b83811015610f14578082015181840152602081019050610ef9565b83811115610f23576000848401525b50505050565b6000601f19601f8301169050919050565b6000610f4582610eda565b610f4f8185610ee5565b9350610f5f818560208601610ef6565b610f6881610f29565b840191505092915050565b60006020820190508181036000830152610f8d8184610f3a565b905092915050565b600081519050919050565b600082825260208201905092915050565b6000819050602082019050919050565b600082825260208201905092915050565b6000610fdd82610eda565b610fe78185610fc1565b9350610ff7818560208601610ef6565b61100081610f29565b840191505092915050565b60006110178383610fd2565b905092915050565b6000602082019050919050565b600061103782610f95565b6110418185610fa0565b93508360208202850161105385610fb1565b8060005b8581101561108f5784840389528151611070858261100b565b945061107b8361101f565b925060208a01995050600181019050611057565b50829750879550505050505092915050565b600060208201905081810360008301526110bb818461102c565b905092915050565b6110cc81610e77565b82525050565b60006020820190506110e760008301846110c3565b92915050565b600080fd5b600080fd5b7f4e487b7100000000000000000000000000000000000000000000000000000000600052604160045260246000fd5b61112f82610f29565b810181811067ffffffffffffffff8211171561114e5761114d6110f7565b5b80604052505050565b6000611161610e63565b905061116d8282611126565b919050565b600067ffffffffffffffff82111561118d5761118c6110f7565b5b61119682610f29565b9050602081019050919050565b82818337600083830152505050565b60006111c56111c084611172565b611157565b9050828152602081018484840111156111e1576111e06110f2565b5b6111ec8482856111a3565b509392505050565b600082601f830112611209576112086110ed565b5b81356112198482602086016111b2565b91505092915050565b60006020828403121561123857611237610e6d565b5b600082013567ffffffffffffffff81111561125657611255610e72565b5b611262848285016111f4565b91505092915050565b6000806040838503121561128257611281610e6d565b5b600083013567ffffffffffffffff8111156112a05761129f610e72565b5b6112ac858286016111f4565b92505060206112bd85828601610e98565b9150509250929050565b600080604083850312156112de576112dd610e6d565b5b60006112ec85828601610e98565b92505060206112fd85828601610e98565b9150509250929050565b7f4e487b7100000000000000000000000000000000000000000000000000000000600052601160045260246000fd5b600061134182610e77565b915061134c83610e77565b9250817fffffffffffffffffffffffffffffffffffffffffffffffffffffffffffffffff048311821515161561138557611384611307565b5b828202905092915050565b600073ffffffffffffffffffffffffffffffffffffffff82169050919050565b60006113bb82611390565b9050919050565b6113cb816113b0565b82525050565b60006040820190506113e660008301856113c2565b6113f360208301846110c3565b9392505050565b7f4e487b7100000000000000000000000000000000000000000000000000000000600052602260045260246000fd5b6000600282049050600182168061144157607f821691505b602082108103611454576114536113fa565b5b50919050565b7f4e6f206d6f726520726577617264696e67206d6f64756c657320617661696c6160008201527f69626c6500000000000000000000000000000000000000000000000000000000602082015250565b60006114b6602483610ee5565b91506114c18261145a565b604082019050919050565b600060208201905081810360008301526114e5816114a9565b9050919050565b60006114f782610e77565b915061150283610e77565b92508282101561151557611514611307565b5b828203905092915050565b6000819050919050565b6000819050919050565b600061154f61154a61154584611520565b61152a565b610e77565b9050919050565b61155f81611534565b82525050565b600060408201905061157a60008301856113c2565b6115876020830184611556565b9392505050565b60006020820190506115a360008301846113c2565b92915050565b6000815190506115b881610e81565b92915050565b6000602082840312156115d4576115d3610e6d565b5b60006115e2848285016115a9565b91505092915050565b7f43616e206f6e6c792062652063616c6c65642066726f6d206f776e6572000000600082015250565b6000611621601d83610ee5565b915061162c826115eb565b602082019050919050565b6000602082019050818103600083015261165081611614565b9050919050565b7f53747265616d20636f64652063616e277420626520616e20656d70747920737460008201527f72696e6700000000000000000000000000000000000000000000000000000000602082015250565b60006116b3602483610ee5565b91506116be82611657565b604082019050919050565b600060208201905081810360008301526116e2816116a6565b9050919050565b600081905092915050565b60006116ff82610eda565b61170981856116e9565b9350611719818560208601610ef6565b80840191505092915050565b600061173182846116f4565b915081905092915050565b7f43616e2774206465706f736974207a65726f20746f6b656e0000000000000000600082015250565b6000611772601883610ee5565b915061177d8261173c565b602082019050919050565b600060208201905081810360008301526117a181611765565b9050919050565b7f4e6f7420657175616c206e6f206f6620746f6b656e7320746f2061647665727460008201527f6973650000000000000000000000000000000000000000000000000000000000602082015250565b6000611804602383610ee5565b915061180f826117a8565b604082019050919050565b60006020820190508181036000830152611833816117f7565b9050919050565b600061184582610e77565b915061185083610e77565b9250827fffffffffffffffffffffffffffffffffffffffffffffffffffffffffffffffff0382111561188557611884611307565b5b828201905092915050565b7f42616c616e6365206861736e2774207570646174656420796574000000000000600082015250565b60006118c6601a83610ee5565b91506118d182611890565b602082019050919050565b600060208201905081810360008301526118f5816118b9565b9050919050565b7f4e6f7420656e6f75676820746f6b656e73207472616e73666572656400000000600082015250565b6000611932601c83610ee5565b915061193d826118fc565b602082019050919050565b6000602082019050818103600083015261196181611925565b9050919050565b7f50726f6261626c7920796f7520646f6e27742073656e7420656e6f756768207460008201527f6f6b656e73000000000000000000000000000000000000000000000000000000602082015250565b60006119c4602583610ee5565b91506119cf82611968565b604082019050919050565b600060208201905081810360008301526119f3816119b7565b9050919050565b7f446f65736e2774206d61747465722073747265616d20646f6e2774206765742060008201527f66756e6473000000000000000000000000000000000000000000000000000000602082015250565b6000611a56602583610ee5565b9150611a61826119fa565b604082019050919050565b60006020820190508181036000830152611a8581611a49565b905091905056fea2646970667358221220c1e2ea6f31aa34a1230f056cd829c77f174838d689ff484828158441f2246fc264736f6c634300080d0033",
  "linkReferences": {},
  "deployedLinkReferences": {}
}