{
  "_format": "hh-sol-artifact-1",
  "contractName": "InstituteFundsManager",
  "sourceName": "contracts/InstituteFundsManager.sol",
  "abi": [
    {
      "inputs": [
        {
          "internalType": "string",
          "name": "_name",
          "type": "string"
        },
        {
          "internalType": "address",
          "name": "_instituteManagerAddress",
          "type": "address"
        }
      ],
      "stateMutability": "nonpayable",
      "type": "constructor"
    },
    {
      "inputs": [
        {
          "internalType": "uint256",
          "name": "_noOfModules",
          "type": "uint256"
        },
        {
          "internalType": "uint256",
          "name": "_noOfTokens",
          "type": "uint256"
        }
      ],
      "name": "addModule",
      "outputs": [],
      "stateMutability": "nonpayable",
      "type": "function"
    },
    {
      "inputs": [
        {
          "internalType": "string",
          "name": "_streamCode",
          "type": "string"
        }
      ],
      "name": "addStreams",
      "outputs": [],
      "stateMutability": "nonpayable",
      "type": "function"
    },
    {
      "inputs": [
        {
          "internalType": "uint256",
          "name": "",
          "type": "uint256"
        }
      ],
      "name": "allStreams",
      "outputs": [
        {
          "internalType": "string",
          "name": "",
          "type": "string"
        }
      ],
      "stateMutability": "view",
      "type": "function"
    },
    {
      "inputs": [
        {
          "internalType": "string",
          "name": "_streamCode",
          "type": "string"
        },
        {
          "internalType": "uint256",
          "name": "_noOfTokens",
          "type": "uint256"
        }
      ],
      "name": "depositFundsToStream",
      "outputs": [],
      "stateMutability": "nonpayable",
      "type": "function"
    },
    {
      "inputs": [],
      "name": "getAllStreams",
      "outputs": [
        {
          "internalType": "string[]",
          "name": "",
          "type": "string[]"
        }
      ],
      "stateMutability": "view",
      "type": "function"
    },
    {
      "inputs": [],
      "name": "getContractBalance",
      "outputs": [
        {
          "internalType": "uint256",
          "name": "",
          "type": "uint256"
        }
      ],
      "stateMutability": "view",
      "type": "function"
    },
    {
      "inputs": [],
      "name": "getReward",
      "outputs": [],
      "stateMutability": "nonpayable",
      "type": "function"
    },
    {
      "inputs": [
        {
          "internalType": "string",
          "name": "_streamCode",
          "type": "string"
        }
      ],
      "name": "getStreamFunds",
      "outputs": [
        {
          "internalType": "uint256",
          "name": "",
          "type": "uint256"
        }
      ],
      "stateMutability": "view",
      "type": "function"
    },
    {
      "inputs": [],
      "name": "instituteName",
      "outputs": [
        {
          "internalType": "string",
          "name": "",
          "type": "string"
        }
      ],
      "stateMutability": "view",
      "type": "function"
    },
    {
      "inputs": [
        {
          "internalType": "string",
          "name": "",
          "type": "string"
        }
      ],
      "name": "oldStreamBalance",
      "outputs": [
        {
          "internalType": "uint256",
          "name": "",
          "type": "uint256"
        }
      ],
      "stateMutability": "view",
      "type": "function"
    },
    {
      "inputs": [
        {
          "internalType": "uint256",
          "name": "_amount",
          "type": "uint256"
        }
      ],
      "name": "redeemToken",
      "outputs": [],
      "stateMutability": "nonpayable",
      "type": "function"
    },
    {
      "inputs": [],
      "name": "registerStudent",
      "outputs": [],
      "stateMutability": "nonpayable",
      "type": "function"
    },
    {
      "inputs": [
        {
          "internalType": "string",
          "name": "",
          "type": "string"
        }
      ],
      "name": "streamBalance",
      "outputs": [
        {
          "internalType": "uint256",
          "name": "",
          "type": "uint256"
        }
      ],
      "stateMutability": "view",
      "type": "function"
    },
    {
      "inputs": [
        {
          "internalType": "string",
          "name": "_streamCode",
          "type": "string"
        }
      ],
      "name": "transferFundsToDistribute",
      "outputs": [],
      "stateMutability": "nonpayable",
      "type": "function"
    }
  ],
  "bytecode": "0x608060405273f2d68898557ccb2cf4c10c3ef2b034b2a69dad00600260006101000a81548173ffffffffffffffffffffffffffffffffffffffff021916908373ffffffffffffffffffffffffffffffffffffffff1602179055507331f1574875dbf52b4a4dcfdd40bc47a2515a4f58600360006101000a81548173ffffffffffffffffffffffffffffffffffffffff021916908373ffffffffffffffffffffffffffffffffffffffff16021790555060006008556000600955348015620000c557600080fd5b5060405162001f3f38038062001f3f8339818101604052810190620000eb919062000461565b806000806101000a81548173ffffffffffffffffffffffffffffffffffffffff021916908373ffffffffffffffffffffffffffffffffffffffff160217905550816001908051906020019062000143929190620001af565b50600260009054906101000a900473ffffffffffffffffffffffffffffffffffffffff16600460006101000a81548173ffffffffffffffffffffffffffffffffffffffff021916908373ffffffffffffffffffffffffffffffffffffffff16021790555050506200052b565b828054620001bd90620004f6565b90600052602060002090601f016020900481019282620001e157600085556200022d565b82601f10620001fc57805160ff19168380011785556200022d565b828001600101855582156200022d579182015b828111156200022c5782518255916020019190600101906200020f565b5b5090506200023c919062000240565b5090565b5b808211156200025b57600081600090555060010162000241565b5090565b6000604051905090565b600080fd5b600080fd5b600080fd5b600080fd5b6000601f19601f8301169050919050565b7f4e487b7100000000000000000000000000000000000000000000000000000000600052604160045260246000fd5b620002c8826200027d565b810181811067ffffffffffffffff82111715620002ea57620002e96200028e565b5b80604052505050565b6000620002ff6200025f565b90506200030d8282620002bd565b919050565b600067ffffffffffffffff82111562000330576200032f6200028e565b5b6200033b826200027d565b9050602081019050919050565b60005b83811015620003685780820151818401526020810190506200034b565b8381111562000378576000848401525b50505050565b6000620003956200038f8462000312565b620002f3565b905082815260208101848484011115620003b457620003b362000278565b5b620003c184828562000348565b509392505050565b600082601f830112620003e157620003e062000273565b5b8151620003f38482602086016200037e565b91505092915050565b600073ffffffffffffffffffffffffffffffffffffffff82169050919050565b60006200042982620003fc565b9050919050565b6200043b816200041c565b81146200044757600080fd5b50565b6000815190506200045b8162000430565b92915050565b600080604083850312156200047b576200047a62000269565b5b600083015167ffffffffffffffff8111156200049c576200049b6200026e565b5b620004aa85828601620003c9565b9250506020620004bd858286016200044a565b9150509250929050565b7f4e487b7100000000000000000000000000000000000000000000000000000000600052602260045260246000fd5b600060028204905060018216806200050f57607f821691505b602082108103620005255762000524620004c7565b5b50919050565b611a04806200053b6000396000f3fe608060405234801561001057600080fd5b50600436106100ea5760003560e01c8063845c11151161008c57806397c993ae1161006657806397c993ae146102115780639af7a62314610241578063a6c4459a14610271578063e3b1cbc91461028d576100ea565b8063845c1115146101a95780638894140a146101c557806393e49966146101e1576100ea565b80633d18b912116100c85780633d18b9121461015957806342979658146101635780636f9fb98a1461016d5780637f5f21c61461018b576100ea565b8063013054c2146100ef5780630eb653b31461010b5780633bd84c0c1461013b575b600080fd5b61010960048036038101906101049190610e81565b6102a9565b005b61012560048036038101906101209190610e81565b61034e565b6040516101329190610f47565b60405180910390f35b6101436103fa565b6040516101509190611075565b60405180910390f35b6101616104d3565b005b61016b61065a565b005b6101756106b4565b60405161018291906110a6565b60405180910390f35b610193610757565b6040516101a09190610f47565b60405180910390f35b6101c360048036038101906101be91906111f6565b6107e5565b005b6101df60048036038101906101da919061123f565b610920565b005b6101fb60048036038101906101f691906111f6565b610b57565b60405161020891906110a6565b60405180910390f35b61022b600480360381019061022691906111f6565b610b85565b60405161023891906110a6565b60405180910390f35b61025b600480360381019061025691906111f6565b610bb3565b60405161026891906110a6565b60405180910390f35b61028b6004803603810190610286919061129b565b610bdb565b005b6102a760048036038101906102a291906111f6565b610c19565b005b600460009054906101000a900473ffffffffffffffffffffffffffffffffffffffff1673ffffffffffffffffffffffffffffffffffffffff1663a9059cbb33670de0b6b3a7640000846102fc919061130a565b6040518363ffffffff1660e01b81526004016103199291906113a5565b600060405180830381600087803b15801561033357600080fd5b505af1158015610347573d6000803e3d6000fd5b5050505050565b6005818154811061035e57600080fd5b906000526020600020016000915090508054610379906113fd565b80601f01602080910402602001604051908101604052809291908181526020018280546103a5906113fd565b80156103f25780601f106103c7576101008083540402835291602001916103f2565b820191906000526020600020905b8154815290600101906020018083116103d557829003601f168201915b505050505081565b60606005805480602002602001604051908101604052809291908181526020016000905b828210156104ca57838290600052602060002001805461043d906113fd565b80601f0160208091040260200160405190810160405280929190818152602001828054610469906113fd565b80156104b65780601f1061048b576101008083540402835291602001916104b6565b820191906000526020600020905b81548152906001019060200180831161049957829003601f168201915b50505050508152602001906001019061041e565b50505050905090565b60011515600a60003373ffffffffffffffffffffffffffffffffffffffff1673ffffffffffffffffffffffffffffffffffffffff16815260200190815260200160002060009054906101000a900460ff16151514610566576040517f08c379a000000000000000000000000000000000000000000000000000000000815260040161055d9061147a565b60405180910390fd5b600160085410156105ac576040517f08c379a00000000000000000000000000000000000000000000000000000000081526004016105a39061150c565b60405180910390fd5b60016008546105bb919061152c565b600881905550600460009054906101000a900473ffffffffffffffffffffffffffffffffffffffff1673ffffffffffffffffffffffffffffffffffffffff1663a9059cbb33671bc16d674ec800006040518363ffffffff1660e01b81526004016106269291906115a5565b600060405180830381600087803b15801561064057600080fd5b505af1158015610654573d6000803e3d6000fd5b50505050565b6001600a60003373ffffffffffffffffffffffffffffffffffffffff1673ffffffffffffffffffffffffffffffffffffffff16815260200190815260200160002060006101000a81548160ff021916908315150217905550565b6000600460009054906101000a900473ffffffffffffffffffffffffffffffffffffffff1673ffffffffffffffffffffffffffffffffffffffff166370a08231306040518263ffffffff1660e01b815260040161071191906115ce565b602060405180830381865afa15801561072e573d6000803e3d6000fd5b505050506040513d601f19601f8201168201806040525081019061075291906115fe565b905090565b60018054610764906113fd565b80601f0160208091040260200160405190810160405280929190818152602001828054610790906113fd565b80156107dd5780601f106107b2576101008083540402835291602001916107dd565b820191906000526020600020905b8154815290600101906020018083116107c057829003601f168201915b505050505081565b60008054906101000a900473ffffffffffffffffffffffffffffffffffffffff1673ffffffffffffffffffffffffffffffffffffffff163373ffffffffffffffffffffffffffffffffffffffff1614610873576040517f08c379a000000000000000000000000000000000000000000000000000000000815260040161086a90611677565b60405180910390fd5b600081905060008151036108bc576040517f08c379a00000000000000000000000000000000000000000000000000000000081526004016108b390611709565b60405180910390fd5b60006006836040516108ce9190611765565b90815260200160405180910390208190555060058290806001815401808255809150506001900390600052602060002001600090919091909150908051906020019061091b929190610d94565b505050565b60008103610963576040517f08c379a000000000000000000000000000000000000000000000000000000000815260040161095a906117c8565b60405180910390fd5b600281146109a6576040517f08c379a000000000000000000000000000000000000000000000000000000000815260040161099d9061185a565b60405180910390fd5b600060026007846040516109ba9190611765565b9081526020016040518091039020546109d3919061187a565b9050670de0b6b3a7640000816109e9919061130a565b600460009054906101000a900473ffffffffffffffffffffffffffffffffffffffff1673ffffffffffffffffffffffffffffffffffffffff166370a08231306040518263ffffffff1660e01b8152600401610a4491906115ce565b602060405180830381865afa158015610a61573d6000803e3d6000fd5b505050506040513d601f19601f82011682018060405250810190610a8591906115fe565b14610ac5576040517f08c379a0000000000000000000000000000000000000000000000000000000008152600401610abc9061191c565b60405180910390fd5b81600684604051610ad69190611765565b908152602001604051809103902054610aef919061187a565b600684604051610aff9190611765565b908152602001604051809103902081905550600683604051610b219190611765565b908152602001604051809103902054600784604051610b409190611765565b908152602001604051809103902081905550505050565b6006818051602081018201805184825260208301602085012081835280955050505050506000915090505481565b6007818051602081018201805184825260208301602085012081835280955050505050506000915090505481565b6000600682604051610bc59190611765565b9081526020016040518091039020549050919050565b6000600283610bea919061130a565b600954610bf7919061187a565b905082600854610c07919061187a565b60088190555080600981905550505050565b6000600682604051610c2b9190611765565b90815260200160405180910390205411610c7a576040517f08c379a0000000000000000000000000000000000000000000000000000000008152600401610c71906119ae565b60405180910390fd5b600460009054906101000a900473ffffffffffffffffffffffffffffffffffffffff1673ffffffffffffffffffffffffffffffffffffffff1663a9059cbb600360009054906101000a900473ffffffffffffffffffffffffffffffffffffffff16600684604051610ceb9190611765565b9081526020016040518091039020546040518363ffffffff1660e01b8152600401610d179291906113a5565b600060405180830381600087803b158015610d3157600080fd5b505af1158015610d45573d6000803e3d6000fd5b505050506000600682604051610d5b9190611765565b9081526020016040518091039020819055506000600782604051610d7f9190611765565b90815260200160405180910390208190555050565b828054610da0906113fd565b90600052602060002090601f016020900481019282610dc25760008555610e09565b82601f10610ddb57805160ff1916838001178555610e09565b82800160010185558215610e09579182015b82811115610e08578251825591602001919060010190610ded565b5b509050610e169190610e1a565b5090565b5b80821115610e33576000816000905550600101610e1b565b5090565b6000604051905090565b600080fd5b600080fd5b6000819050919050565b610e5e81610e4b565b8114610e6957600080fd5b50565b600081359050610e7b81610e55565b92915050565b600060208284031215610e9757610e96610e41565b5b6000610ea584828501610e6c565b91505092915050565b600081519050919050565b600082825260208201905092915050565b60005b83811015610ee8578082015181840152602081019050610ecd565b83811115610ef7576000848401525b50505050565b6000601f19601f8301169050919050565b6000610f1982610eae565b610f238185610eb9565b9350610f33818560208601610eca565b610f3c81610efd565b840191505092915050565b60006020820190508181036000830152610f618184610f0e565b905092915050565b600081519050919050565b600082825260208201905092915050565b6000819050602082019050919050565b600082825260208201905092915050565b6000610fb182610eae565b610fbb8185610f95565b9350610fcb818560208601610eca565b610fd481610efd565b840191505092915050565b6000610feb8383610fa6565b905092915050565b6000602082019050919050565b600061100b82610f69565b6110158185610f74565b93508360208202850161102785610f85565b8060005b8581101561106357848403895281516110448582610fdf565b945061104f83610ff3565b925060208a0199505060018101905061102b565b50829750879550505050505092915050565b6000602082019050818103600083015261108f8184611000565b905092915050565b6110a081610e4b565b82525050565b60006020820190506110bb6000830184611097565b92915050565b600080fd5b600080fd5b7f4e487b7100000000000000000000000000000000000000000000000000000000600052604160045260246000fd5b61110382610efd565b810181811067ffffffffffffffff82111715611122576111216110cb565b5b80604052505050565b6000611135610e37565b905061114182826110fa565b919050565b600067ffffffffffffffff821115611161576111606110cb565b5b61116a82610efd565b9050602081019050919050565b82818337600083830152505050565b600061119961119484611146565b61112b565b9050828152602081018484840111156111b5576111b46110c6565b5b6111c0848285611177565b509392505050565b600082601f8301126111dd576111dc6110c1565b5b81356111ed848260208601611186565b91505092915050565b60006020828403121561120c5761120b610e41565b5b600082013567ffffffffffffffff81111561122a57611229610e46565b5b611236848285016111c8565b91505092915050565b6000806040838503121561125657611255610e41565b5b600083013567ffffffffffffffff81111561127457611273610e46565b5b611280858286016111c8565b925050602061129185828601610e6c565b9150509250929050565b600080604083850312156112b2576112b1610e41565b5b60006112c085828601610e6c565b92505060206112d185828601610e6c565b9150509250929050565b7f4e487b7100000000000000000000000000000000000000000000000000000000600052601160045260246000fd5b600061131582610e4b565b915061132083610e4b565b9250817fffffffffffffffffffffffffffffffffffffffffffffffffffffffffffffffff0483118215151615611359576113586112db565b5b828202905092915050565b600073ffffffffffffffffffffffffffffffffffffffff82169050919050565b600061138f82611364565b9050919050565b61139f81611384565b82525050565b60006040820190506113ba6000830185611396565b6113c76020830184611097565b9392505050565b7f4e487b7100000000000000000000000000000000000000000000000000000000600052602260045260246000fd5b6000600282049050600182168061141557607f821691505b602082108103611428576114276113ce565b5b50919050565b7f50726f6261626c7920796f7520617265206e6f7420612073747564656e740000600082015250565b6000611464601e83610eb9565b915061146f8261142e565b602082019050919050565b6000602082019050818103600083015261149381611457565b9050919050565b7f4e6f206d6f726520726577617264696e67206d6f64756c657320617661696c6160008201527f69626c6500000000000000000000000000000000000000000000000000000000602082015250565b60006114f6602483610eb9565b91506115018261149a565b604082019050919050565b60006020820190508181036000830152611525816114e9565b9050919050565b600061153782610e4b565b915061154283610e4b565b925082821015611555576115546112db565b5b828203905092915050565b6000819050919050565b6000819050919050565b600061158f61158a61158584611560565b61156a565b610e4b565b9050919050565b61159f81611574565b82525050565b60006040820190506115ba6000830185611396565b6115c76020830184611596565b9392505050565b60006020820190506115e36000830184611396565b92915050565b6000815190506115f881610e55565b92915050565b60006020828403121561161457611613610e41565b5b6000611622848285016115e9565b91505092915050565b7f43616e206f6e6c792062652063616c6c65642066726f6d206f776e6572000000600082015250565b6000611661601d83610eb9565b915061166c8261162b565b602082019050919050565b6000602082019050818103600083015261169081611654565b9050919050565b7f53747265616d20636f64652063616e277420626520616e20656d70747920737460008201527f72696e6700000000000000000000000000000000000000000000000000000000602082015250565b60006116f3602483610eb9565b91506116fe82611697565b604082019050919050565b60006020820190508181036000830152611722816116e6565b9050919050565b600081905092915050565b600061173f82610eae565b6117498185611729565b9350611759818560208601610eca565b80840191505092915050565b60006117718284611734565b915081905092915050565b7f43616e2774206465706f736974207a65726f20746f6b656e0000000000000000600082015250565b60006117b2601883610eb9565b91506117bd8261177c565b602082019050919050565b600060208201905081810360008301526117e1816117a5565b9050919050565b7f4e6f7420657175616c206e6f206f6620746f6b656e7320746f2061647665727460008201527f6973650000000000000000000000000000000000000000000000000000000000602082015250565b6000611844602383610eb9565b915061184f826117e8565b604082019050919050565b6000602082019050818103600083015261187381611837565b9050919050565b600061188582610e4b565b915061189083610e4b565b9250827fffffffffffffffffffffffffffffffffffffffffffffffffffffffffffffffff038211156118c5576118c46112db565b5b828201905092915050565b7f42616c616e6365206861736e2774207570646174656420796574000000000000600082015250565b6000611906601a83610eb9565b9150611911826118d0565b602082019050919050565b60006020820190508181036000830152611935816118f9565b9050919050565b7f446f65736e2774206d61747465722073747265616d20646f6e2774206765742060008201527f66756e6473000000000000000000000000000000000000000000000000000000602082015250565b6000611998602583610eb9565b91506119a38261193c565b604082019050919050565b600060208201905081810360008301526119c78161198b565b905091905056fea264697066735822122043ba338db64d7026ce9ad51ad56aeb0202edfd33010d0258083c5112b63c951664736f6c634300080d0033",
  "linkReferences": {},
  "deployedLinkReferences": {}
}