{
  "_format": "hh-sol-artifact-1",
  "contractName": "InstituteFundsManagerFactory",
  "sourceName": "contracts/InstituteFundsManagerFactory.sol",
  "abi": [
    {
      "inputs": [
        {
          "internalType": "string",
          "name": "_name",
          "type": "string"
        },
        {
          "internalType": "string",
          "name": "_instId",
          "type": "string"
        }
      ],
      "name": "addInstitute",
      "outputs": [],
      "stateMutability": "nonpayable",
      "type": "function"
    },
    {
      "inputs": [],
      "name": "getALlInstitutesManager",
      "outputs": [
        {
          "components": [
            {
              "internalType": "string",
              "name": "name",
              "type": "string"
            },
            {
              "internalType": "contract InstituteFundsManager",
              "name": "instituteAddress",
              "type": "address"
            },
            {
              "internalType": "string",
              "name": "instituteId",
              "type": "string"
            }
          ],
          "internalType": "struct InstituteFundsManagerFactory.instituteDetails[]",
          "name": "",
          "type": "tuple[]"
        }
      ],
      "stateMutability": "view",
      "type": "function"
    },
    {
      "inputs": [
        {
          "internalType": "uint256",
          "name": "",
          "type": "uint256"
        }
      ],
      "name": "institutes",
      "outputs": [
        {
          "internalType": "string",
          "name": "name",
          "type": "string"
        },
        {
          "internalType": "contract InstituteFundsManager",
          "name": "instituteAddress",
          "type": "address"
        },
        {
          "internalType": "string",
          "name": "instituteId",
          "type": "string"
        }
      ],
      "stateMutability": "view",
      "type": "function"
    }
  ],
  "bytecode": "0x608060405234801561001057600080fd5b506122c0806100206000396000f3fe60806040523480156200001157600080fd5b5060043610620000465760003560e01c80636e4b4d72146200004b57806389d896c3146200006b57806390ee20b0146200008d575b600080fd5b62000069600480360381019062000063919062000784565b620000c5565b005b62000075620001ea565b60405162000084919062000a54565b60405180910390f35b620000ab6004803603810190620000a5919062000ab3565b620003d5565b604051620000bc9392919062000b48565b60405180910390f35b600082604051620000d69062000550565b620000e2919062000b93565b604051809103906000f080158015620000ff573d6000803e3d6000fd5b509050600060405180606001604052808581526020018373ffffffffffffffffffffffffffffffffffffffff16815260200184815250908060018154018082558091505060019003906000526020600020906003020160009091909190915060008201518160000190805190602001906200017c9291906200055e565b5060208201518160010160006101000a81548173ffffffffffffffffffffffffffffffffffffffff021916908373ffffffffffffffffffffffffffffffffffffffff1602179055506040820151816002019080519060200190620001e29291906200055e565b505050505050565b60606000805480602002602001604051908101604052809291908181526020016000905b82821015620003cc5783829060005260206000209060030201604051806060016040529081600082018054620002449062000be6565b80601f0160208091040260200160405190810160405280929190818152602001828054620002729062000be6565b8015620002c35780601f106200029757610100808354040283529160200191620002c3565b820191906000526020600020905b815481529060010190602001808311620002a557829003601f168201915b505050505081526020016001820160009054906101000a900473ffffffffffffffffffffffffffffffffffffffff1673ffffffffffffffffffffffffffffffffffffffff1673ffffffffffffffffffffffffffffffffffffffff168152602001600282018054620003349062000be6565b80601f0160208091040260200160405190810160405280929190818152602001828054620003629062000be6565b8015620003b35780601f106200038757610100808354040283529160200191620003b3565b820191906000526020600020905b8154815290600101906020018083116200039557829003601f168201915b505050505081525050815260200190600101906200020e565b50505050905090565b60008181548110620003e657600080fd5b90600052602060002090600302016000915090508060000180546200040b9062000be6565b80601f0160208091040260200160405190810160405280929190818152602001828054620004399062000be6565b80156200048a5780601f106200045e576101008083540402835291602001916200048a565b820191906000526020600020905b8154815290600101906020018083116200046c57829003601f168201915b5050505050908060010160009054906101000a900473ffffffffffffffffffffffffffffffffffffffff1690806002018054620004c79062000be6565b80601f0160208091040260200160405190810160405280929190818152602001828054620004f59062000be6565b8015620005465780601f106200051a5761010080835404028352916020019162000546565b820191906000526020600020905b8154815290600101906020018083116200052857829003601f168201915b5050505050905083565b61166f8062000c1c83390190565b8280546200056c9062000be6565b90600052602060002090601f016020900481019282620005905760008555620005dc565b82601f10620005ab57805160ff1916838001178555620005dc565b82800160010185558215620005dc579182015b82811115620005db578251825591602001919060010190620005be565b5b509050620005eb9190620005ef565b5090565b5b808211156200060a576000816000905550600101620005f0565b5090565b6000604051905090565b600080fd5b600080fd5b600080fd5b600080fd5b6000601f19601f8301169050919050565b7f4e487b7100000000000000000000000000000000000000000000000000000000600052604160045260246000fd5b62000677826200062c565b810181811067ffffffffffffffff821117156200069957620006986200063d565b5b80604052505050565b6000620006ae6200060e565b9050620006bc82826200066c565b919050565b600067ffffffffffffffff821115620006df57620006de6200063d565b5b620006ea826200062c565b9050602081019050919050565b82818337600083830152505050565b60006200071d6200071784620006c1565b620006a2565b9050828152602081018484840111156200073c576200073b62000627565b5b62000749848285620006f7565b509392505050565b600082601f83011262000769576200076862000622565b5b81356200077b84826020860162000706565b91505092915050565b600080604083850312156200079e576200079d62000618565b5b600083013567ffffffffffffffff811115620007bf57620007be6200061d565b5b620007cd8582860162000751565b925050602083013567ffffffffffffffff811115620007f157620007f06200061d565b5b620007ff8582860162000751565b9150509250929050565b600081519050919050565b600082825260208201905092915050565b6000819050602082019050919050565b600081519050919050565b600082825260208201905092915050565b60005b838110156200087157808201518184015260208101905062000854565b8381111562000881576000848401525b50505050565b6000620008948262000835565b620008a0818562000840565b9350620008b281856020860162000851565b620008bd816200062c565b840191505092915050565b600073ffffffffffffffffffffffffffffffffffffffff82169050919050565b6000819050919050565b6000620009136200090d6200090784620008c8565b620008e8565b620008c8565b9050919050565b60006200092782620008f2565b9050919050565b60006200093b826200091a565b9050919050565b6200094d816200092e565b82525050565b6000606083016000830151848203600086015262000972828262000887565b915050602083015162000989602086018262000942565b5060408301518482036040860152620009a3828262000887565b9150508091505092915050565b6000620009be838362000953565b905092915050565b6000602082019050919050565b6000620009e08262000809565b620009ec818562000814565b93508360208202850162000a008562000825565b8060005b8581101562000a42578484038952815162000a208582620009b0565b945062000a2d83620009c6565b925060208a0199505060018101905062000a04565b50829750879550505050505092915050565b6000602082019050818103600083015262000a708184620009d3565b905092915050565b6000819050919050565b62000a8d8162000a78565b811462000a9957600080fd5b50565b60008135905062000aad8162000a82565b92915050565b60006020828403121562000acc5762000acb62000618565b5b600062000adc8482850162000a9c565b91505092915050565b600082825260208201905092915050565b600062000b038262000835565b62000b0f818562000ae5565b935062000b2181856020860162000851565b62000b2c816200062c565b840191505092915050565b62000b42816200092e565b82525050565b6000606082019050818103600083015262000b64818662000af6565b905062000b75602083018562000b37565b818103604083015262000b89818462000af6565b9050949350505050565b6000602082019050818103600083015262000baf818462000af6565b905092915050565b7f4e487b7100000000000000000000000000000000000000000000000000000000600052602260045260246000fd5b6000600282049050600182168062000bff57607f821691505b60208210810362000c155762000c1462000bb7565b5b5091905056fe608060405273c760202a0d87ecd6b53a8bbc72ff63a9b411986d600260006101000a81548173ffffffffffffffffffffffffffffffffffffffff021916908373ffffffffffffffffffffffffffffffffffffffff160217905550620f424060065573b1b9ceeb2a1ee407caaf918830d37ec6bd0a8401600760006101000a81548173ffffffffffffffffffffffffffffffffffffffff021916908373ffffffffffffffffffffffffffffffffffffffff160217905550348015620000c257600080fd5b506040516200166f3803806200166f8339818101604052810190620000e89190620003f8565b336000806101000a81548173ffffffffffffffffffffffffffffffffffffffff021916908373ffffffffffffffffffffffffffffffffffffffff160217905550806001908051906020019062000140929190620001ab565b50600260009054906101000a900473ffffffffffffffffffffffffffffffffffffffff16600360006101000a81548173ffffffffffffffffffffffffffffffffffffffff021916908373ffffffffffffffffffffffffffffffffffffffff16021790555050620004ad565b828054620001b99062000478565b90600052602060002090601f016020900481019282620001dd576000855562000229565b82601f10620001f857805160ff191683800117855562000229565b8280016001018555821562000229579182015b82811115620002285782518255916020019190600101906200020b565b5b5090506200023891906200023c565b5090565b5b80821115620002575760008160009055506001016200023d565b5090565b6000604051905090565b600080fd5b600080fd5b600080fd5b600080fd5b6000601f19601f8301169050919050565b7f4e487b7100000000000000000000000000000000000000000000000000000000600052604160045260246000fd5b620002c48262000279565b810181811067ffffffffffffffff82111715620002e657620002e56200028a565b5b80604052505050565b6000620002fb6200025b565b9050620003098282620002b9565b919050565b600067ffffffffffffffff8211156200032c576200032b6200028a565b5b620003378262000279565b9050602081019050919050565b60005b838110156200036457808201518184015260208101905062000347565b8381111562000374576000848401525b50505050565b6000620003916200038b846200030e565b620002ef565b905082815260208101848484011115620003b057620003af62000274565b5b620003bd84828562000344565b509392505050565b600082601f830112620003dd57620003dc6200026f565b5b8151620003ef8482602086016200037a565b91505092915050565b60006020828403121562000411576200041062000265565b5b600082015167ffffffffffffffff8111156200043257620004316200026a565b5b6200044084828501620003c5565b91505092915050565b7f4e487b7100000000000000000000000000000000000000000000000000000000600052602260045260246000fd5b600060028204905060018216806200049157607f821691505b602082108103620004a757620004a662000449565b5b50919050565b6111b280620004bd6000396000f3fe608060405234801561001057600080fd5b50600436106100935760003560e01c80637f5f21c6116100665780637f5f21c6146100e6578063845c1115146101045780638894140a146101205780639af7a6231461013c578063ad742ff81461016c57610093565b8063013054c214610098578063282a0d3b146100b45780633bd84c0c146100be5780633d18b912146100dc575b600080fd5b6100b260048036038101906100ad919061081b565b610188565b005b6100bc61022d565b005b6100c66102c9565b6040516100d391906109a3565b60405180910390f35b6100e46103a2565b005b6100ee610497565b6040516100fb9190610a0f565b60405180910390f35b61011e60048036038101906101199190610b66565b610525565b005b61013a60048036038101906101359190610baf565b610588565b005b61015660048036038101906101519190610b66565b61065f565b6040516101639190610c1a565b60405180910390f35b61018660048036038101906101819190610c35565b610687565b005b600360009054906101000a900473ffffffffffffffffffffffffffffffffffffffff1673ffffffffffffffffffffffffffffffffffffffff1663a9059cbb33670de0b6b3a7640000846101db9190610cd3565b6040518363ffffffff1660e01b81526004016101f8929190610d6e565b600060405180830381600087803b15801561021257600080fd5b505af1158015610226573d6000803e3d6000fd5b5050505050565b600360009054906101000a900473ffffffffffffffffffffffffffffffffffffffff1673ffffffffffffffffffffffffffffffffffffffff166340c10f19306a084595161401484a0000006040518363ffffffff1660e01b8152600401610295929190610ddc565b600060405180830381600087803b1580156102af57600080fd5b505af11580156102c3573d6000803e3d6000fd5b50505050565b60606004805480602002602001604051908101604052809291908181526020016000905b8282101561039957838290600052602060002001805461030c90610e34565b80601f016020809104026020016040519081016040528092919081815260200182805461033890610e34565b80156103855780601f1061035a57610100808354040283529160200191610385565b820191906000526020600020905b81548152906001019060200180831161036857829003601f168201915b5050505050815260200190600101906102ed565b50505050905090565b600160065410156103e8576040517f08c379a00000000000000000000000000000000000000000000000000000000081526004016103df90610ed7565b60405180910390fd5b60016006546103f79190610ef7565b600681905550600360009054906101000a900473ffffffffffffffffffffffffffffffffffffffff1673ffffffffffffffffffffffffffffffffffffffff1663a9059cbb3368056bc75e2d631000006040518363ffffffff1660e01b8152600401610463929190610f66565b600060405180830381600087803b15801561047d57600080fd5b505af1158015610491573d6000803e3d6000fd5b50505050565b600180546104a490610e34565b80601f01602080910402602001604051908101604052809291908181526020018280546104d090610e34565b801561051d5780601f106104f25761010080835404028352916020019161051d565b820191906000526020600020905b81548152906001019060200180831161050057829003601f168201915b505050505081565b60006005826040516105379190610fcb565b90815260200160405180910390208190555060048190806001815401808255809150506001900390600052602060002001600090919091909150908051906020019061058492919061072e565b5050565b600081036105cb576040517f08c379a00000000000000000000000000000000000000000000000000000000081526004016105c29061102e565b60405180910390fd5b60c881101561060f576040517f08c379a00000000000000000000000000000000000000000000000000000000081526004016106069061109a565b60405180910390fd5b806005836040516106209190610fcb565b90815260200160405180910390205461063991906110ba565b6005836040516106499190610fcb565b9081526020016040518091039020819055505050565b60006005826040516106719190610fcb565b9081526020016040518091039020549050919050565b6064836106949190610cd3565b8110156106d6576040517f08c379a00000000000000000000000000000000000000000000000000000000081526004016106cd9061115c565b60405180910390fd5b82600681905550806005836040516106ee9190610fcb565b90815260200160405180910390205461070791906110ba565b6005836040516107179190610fcb565b908152602001604051809103902081905550505050565b82805461073a90610e34565b90600052602060002090601f01602090048101928261075c57600085556107a3565b82601f1061077557805160ff19168380011785556107a3565b828001600101855582156107a3579182015b828111156107a2578251825591602001919060010190610787565b5b5090506107b091906107b4565b5090565b5b808211156107cd5760008160009055506001016107b5565b5090565b6000604051905090565b600080fd5b600080fd5b6000819050919050565b6107f8816107e5565b811461080357600080fd5b50565b600081359050610815816107ef565b92915050565b600060208284031215610831576108306107db565b5b600061083f84828501610806565b91505092915050565b600081519050919050565b600082825260208201905092915050565b6000819050602082019050919050565b600081519050919050565b600082825260208201905092915050565b60005b838110156108ae578082015181840152602081019050610893565b838111156108bd576000848401525b50505050565b6000601f19601f8301169050919050565b60006108df82610874565b6108e9818561087f565b93506108f9818560208601610890565b610902816108c3565b840191505092915050565b600061091983836108d4565b905092915050565b6000602082019050919050565b600061093982610848565b6109438185610853565b93508360208202850161095585610864565b8060005b858110156109915784840389528151610972858261090d565b945061097d83610921565b925060208a01995050600181019050610959565b50829750879550505050505092915050565b600060208201905081810360008301526109bd818461092e565b905092915050565b600082825260208201905092915050565b60006109e182610874565b6109eb81856109c5565b93506109fb818560208601610890565b610a04816108c3565b840191505092915050565b60006020820190508181036000830152610a2981846109d6565b905092915050565b600080fd5b600080fd5b7f4e487b7100000000000000000000000000000000000000000000000000000000600052604160045260246000fd5b610a73826108c3565b810181811067ffffffffffffffff82111715610a9257610a91610a3b565b5b80604052505050565b6000610aa56107d1565b9050610ab18282610a6a565b919050565b600067ffffffffffffffff821115610ad157610ad0610a3b565b5b610ada826108c3565b9050602081019050919050565b82818337600083830152505050565b6000610b09610b0484610ab6565b610a9b565b905082815260208101848484011115610b2557610b24610a36565b5b610b30848285610ae7565b509392505050565b600082601f830112610b4d57610b4c610a31565b5b8135610b5d848260208601610af6565b91505092915050565b600060208284031215610b7c57610b7b6107db565b5b600082013567ffffffffffffffff811115610b9a57610b996107e0565b5b610ba684828501610b38565b91505092915050565b60008060408385031215610bc657610bc56107db565b5b600083013567ffffffffffffffff811115610be457610be36107e0565b5b610bf085828601610b38565b9250506020610c0185828601610806565b9150509250929050565b610c14816107e5565b82525050565b6000602082019050610c2f6000830184610c0b565b92915050565b600080600060608486031215610c4e57610c4d6107db565b5b6000610c5c86828701610806565b935050602084013567ffffffffffffffff811115610c7d57610c7c6107e0565b5b610c8986828701610b38565b9250506040610c9a86828701610806565b9150509250925092565b7f4e487b7100000000000000000000000000000000000000000000000000000000600052601160045260246000fd5b6000610cde826107e5565b9150610ce9836107e5565b9250817fffffffffffffffffffffffffffffffffffffffffffffffffffffffffffffffff0483118215151615610d2257610d21610ca4565b5b828202905092915050565b600073ffffffffffffffffffffffffffffffffffffffff82169050919050565b6000610d5882610d2d565b9050919050565b610d6881610d4d565b82525050565b6000604082019050610d836000830185610d5f565b610d906020830184610c0b565b9392505050565b6000819050919050565b6000819050919050565b6000610dc6610dc1610dbc84610d97565b610da1565b6107e5565b9050919050565b610dd681610dab565b82525050565b6000604082019050610df16000830185610d5f565b610dfe6020830184610dcd565b9392505050565b7f4e487b7100000000000000000000000000000000000000000000000000000000600052602260045260246000fd5b60006002820490506001821680610e4c57607f821691505b602082108103610e5f57610e5e610e05565b5b50919050565b7f4e6f206d6f726520726577617264696e67206d6f64756c657320617661696c6160008201527f69626c6500000000000000000000000000000000000000000000000000000000602082015250565b6000610ec16024836109c5565b9150610ecc82610e65565b604082019050919050565b60006020820190508181036000830152610ef081610eb4565b9050919050565b6000610f02826107e5565b9150610f0d836107e5565b925082821015610f2057610f1f610ca4565b5b828203905092915050565b6000819050919050565b6000610f50610f4b610f4684610f2b565b610da1565b6107e5565b9050919050565b610f6081610f35565b82525050565b6000604082019050610f7b6000830185610d5f565b610f886020830184610f57565b9392505050565b600081905092915050565b6000610fa582610874565b610faf8185610f8f565b9350610fbf818560208601610890565b80840191505092915050565b6000610fd78284610f9a565b915081905092915050565b7f43616e2774206465706f736974207a65726f20746f6b656e0000000000000000600082015250565b60006110186018836109c5565b915061102382610fe2565b602082019050919050565b600060208201905081810360008301526110478161100b565b9050919050565b7f4e6f7420656e6f75676820746f6b656e7320746f206164766572746973650000600082015250565b6000611084601e836109c5565b915061108f8261104e565b602082019050919050565b600060208201905081810360008301526110b381611077565b9050919050565b60006110c5826107e5565b91506110d0836107e5565b9250827fffffffffffffffffffffffffffffffffffffffffffffffffffffffffffffffff0382111561110557611104610ca4565b5b828201905092915050565b7f4e6f7420656e6f75676820746f6b656e73207472616e73666572656400000000600082015250565b6000611146601c836109c5565b915061115182611110565b602082019050919050565b6000602082019050818103600083015261117581611139565b905091905056fea2646970667358221220016527e88eba1d860df9dfadb9b3492c02c136a03466b4f00d24bacf0e696f4864736f6c634300080d0033a26469706673582212202a4bab1bec323418622af609204ac5b7209a6cad8640a2e4cadd38c9cf37777764736f6c634300080d0033",
  "linkReferences": {},
  "deployedLinkReferences": {}
}