{
  "_format": "hh-sol-artifact-1",
  "contractName": "InstituteFundsManagerFactory",
  "sourceName": "contracts/InstituteFundsManagerFactory.sol",
  "abi": [
    {
      "inputs": [
        {
          "internalType": "address",
          "name": "_implementationAddress",
          "type": "address"
        }
      ],
      "stateMutability": "nonpayable",
      "type": "constructor"
    },
    {
      "inputs": [
        {
          "internalType": "string",
          "name": "_name",
          "type": "string"
        },
        {
          "internalType": "string",
          "name": "_instId",
          "type": "string"
        }
      ],
      "name": "addInstitute",
      "outputs": [],
      "stateMutability": "nonpayable",
      "type": "function"
    },
    {
      "inputs": [],
      "name": "getALlInstitutesManager",
      "outputs": [
        {
          "components": [
            {
              "internalType": "string",
              "name": "name",
              "type": "string"
            },
            {
              "internalType": "contract InstituteFundsManager",
              "name": "instituteAddress",
              "type": "address"
            },
            {
              "internalType": "string",
              "name": "instituteId",
              "type": "string"
            }
          ],
          "internalType": "struct InstituteFundsManagerFactory.instituteDetails[]",
          "name": "",
          "type": "tuple[]"
        }
      ],
      "stateMutability": "view",
      "type": "function"
    },
    {
      "inputs": [],
      "name": "implementationAddress",
      "outputs": [
        {
          "internalType": "address",
          "name": "",
          "type": "address"
        }
      ],
      "stateMutability": "view",
      "type": "function"
    },
    {
      "inputs": [
        {
          "internalType": "uint256",
          "name": "",
          "type": "uint256"
        }
      ],
      "name": "institutes",
      "outputs": [
        {
          "internalType": "string",
          "name": "name",
          "type": "string"
        },
        {
          "internalType": "contract InstituteFundsManager",
          "name": "instituteAddress",
          "type": "address"
        },
        {
          "internalType": "string",
          "name": "instituteId",
          "type": "string"
        }
      ],
      "stateMutability": "view",
      "type": "function"
    }
  ],
  "bytecode": "0x608060405234801561001057600080fd5b50604051610e67380380610e678339818101604052810190610032919061008e565b80600160006101000a81548173ffffffffffffffffffffffffffffffffffffffff021916908373ffffffffffffffffffffffffffffffffffffffff16021790555050610100565b600081519050610088816100e9565b92915050565b6000602082840312156100a057600080fd5b60006100ae84828501610079565b91505092915050565b60006100c2826100c9565b9050919050565b600073ffffffffffffffffffffffffffffffffffffffff82169050919050565b6100f2816100b7565b81146100fd57600080fd5b50565b610d588061010f6000396000f3fe608060405234801561001057600080fd5b506004361061004c5760003560e01c80636e4b4d721461005157806389d896c31461006d57806390ee20b01461008b578063b97a2319146100bd575b600080fd5b61006b600480360381019061006691906107b7565b6100db565b005b610075610259565b6040516100829190610a09565b60405180910390f35b6100a560048036038101906100a09190610823565b610432565b6040516100b493929190610a4d565b60405180910390f35b6100c561059c565b6040516100d291906109ee565b60405180910390f35b6000610108600160009054906101000a900473ffffffffffffffffffffffffffffffffffffffff166105c2565b90508073ffffffffffffffffffffffffffffffffffffffff1663f62d1888846040518263ffffffff1660e01b81526004016101439190610a2b565b600060405180830381600087803b15801561015d57600080fd5b505af1158015610171573d6000803e3d6000fd5b50505050600060405180606001604052808581526020018373ffffffffffffffffffffffffffffffffffffffff16815260200184815250908060018154018082558091505060019003906000526020600020906003020160009091909190915060008201518160000190805190602001906101ed929190610697565b5060208201518160010160006101000a81548173ffffffffffffffffffffffffffffffffffffffff021916908373ffffffffffffffffffffffffffffffffffffffff1602179055506040820151816002019080519060200190610251929190610697565b505050505050565b60606000805480602002602001604051908101604052809291908181526020016000905b8282101561042957838290600052602060002090600302016040518060600160405290816000820180546102b090610c10565b80601f01602080910402602001604051908101604052809291908181526020018280546102dc90610c10565b80156103295780601f106102fe57610100808354040283529160200191610329565b820191906000526020600020905b81548152906001019060200180831161030c57829003601f168201915b505050505081526020016001820160009054906101000a900473ffffffffffffffffffffffffffffffffffffffff1673ffffffffffffffffffffffffffffffffffffffff1673ffffffffffffffffffffffffffffffffffffffff16815260200160028201805461039890610c10565b80601f01602080910402602001604051908101604052809291908181526020018280546103c490610c10565b80156104115780601f106103e657610100808354040283529160200191610411565b820191906000526020600020905b8154815290600101906020018083116103f457829003601f168201915b5050505050815250508152602001906001019061027d565b50505050905090565b6000818154811061044257600080fd5b906000526020600020906003020160009150905080600001805461046590610c10565b80601f016020809104026020016040519081016040528092919081815260200182805461049190610c10565b80156104de5780601f106104b3576101008083540402835291602001916104de565b820191906000526020600020905b8154815290600101906020018083116104c157829003601f168201915b5050505050908060010160009054906101000a900473ffffffffffffffffffffffffffffffffffffffff169080600201805461051990610c10565b80601f016020809104026020016040519081016040528092919081815260200182805461054590610c10565b80156105925780601f1061056757610100808354040283529160200191610592565b820191906000526020600020905b81548152906001019060200180831161057557829003601f168201915b5050505050905083565b600160009054906101000a900473ffffffffffffffffffffffffffffffffffffffff1681565b60006040517f3d602d80600a3d3981f3363d3d373d3d3d363d7300000000000000000000000081528260601b60148201527f5af43d82803e903d91602b57fd5bf3000000000000000000000000000000000060288201526037816000f0915050600073ffffffffffffffffffffffffffffffffffffffff168173ffffffffffffffffffffffffffffffffffffffff161415610692576040517f08c379a000000000000000000000000000000000000000000000000000000000815260040161068990610a92565b60405180910390fd5b919050565b8280546106a390610c10565b90600052602060002090601f0160209004810192826106c5576000855561070c565b82601f106106de57805160ff191683800117855561070c565b8280016001018555821561070c579182015b8281111561070b5782518255916020019190600101906106f0565b5b509050610719919061071d565b5090565b5b8082111561073657600081600090555060010161071e565b5090565b600061074d61074884610ad7565b610ab2565b90508281526020810184848401111561076557600080fd5b610770848285610bce565b509392505050565b600082601f83011261078957600080fd5b813561079984826020860161073a565b91505092915050565b6000813590506107b181610d0b565b92915050565b600080604083850312156107ca57600080fd5b600083013567ffffffffffffffff8111156107e457600080fd5b6107f085828601610778565b925050602083013567ffffffffffffffff81111561080d57600080fd5b61081985828601610778565b9150509250929050565b60006020828403121561083557600080fd5b6000610843848285016107a2565b91505092915050565b60006108588383610997565b905092915050565b61086981610b6e565b82525050565b600061087a82610b18565b6108848185610b3b565b93508360208202850161089685610b08565b8060005b858110156108d257848403895281516108b3858261084c565b94506108be83610b2e565b925060208a0199505060018101905061089a565b50829750879550505050505092915050565b6108ed81610baa565b82525050565b6108fc81610baa565b82525050565b600061090d82610b23565b6109178185610b4c565b9350610927818560208601610bdd565b61093081610cd1565b840191505092915050565b600061094682610b23565b6109508185610b5d565b9350610960818560208601610bdd565b61096981610cd1565b840191505092915050565b6000610981601683610b5d565b915061098c82610ce2565b602082019050919050565b600060608301600083015184820360008601526109b48282610902565b91505060208301516109c960208601826108e4565b50604083015184820360408601526109e18282610902565b9150508091505092915050565b6000602082019050610a036000830184610860565b92915050565b60006020820190508181036000830152610a23818461086f565b905092915050565b60006020820190508181036000830152610a45818461093b565b905092915050565b60006060820190508181036000830152610a67818661093b565b9050610a7660208301856108f3565b8181036040830152610a88818461093b565b9050949350505050565b60006020820190508181036000830152610aab81610974565b9050919050565b6000610abc610acd565b9050610ac88282610c42565b919050565b6000604051905090565b600067ffffffffffffffff821115610af257610af1610ca2565b5b610afb82610cd1565b9050602081019050919050565b6000819050602082019050919050565b600081519050919050565b600081519050919050565b6000602082019050919050565b600082825260208201905092915050565b600082825260208201905092915050565b600082825260208201905092915050565b6000610b7982610b80565b9050919050565b600073ffffffffffffffffffffffffffffffffffffffff82169050919050565b6000819050919050565b6000610bb582610bbc565b9050919050565b6000610bc782610b80565b9050919050565b82818337600083830152505050565b60005b83811015610bfb578082015181840152602081019050610be0565b83811115610c0a576000848401525b50505050565b60006002820490506001821680610c2857607f821691505b60208210811415610c3c57610c3b610c73565b5b50919050565b610c4b82610cd1565b810181811067ffffffffffffffff82111715610c6a57610c69610ca2565b5b80604052505050565b7f4e487b7100000000000000000000000000000000000000000000000000000000600052602260045260246000fd5b7f4e487b7100000000000000000000000000000000000000000000000000000000600052604160045260246000fd5b6000601f19601f8301169050919050565b7f455243313136373a20637265617465206661696c656400000000000000000000600082015250565b610d1481610ba0565b8114610d1f57600080fd5b5056fea2646970667358221220ee70647a2e15abfebf983c0ce7ca6b31cf59ff4c54167cdd5cd5f9cfa9f6658064736f6c63430008040033",
  "linkReferences": {},
  "deployedLinkReferences": {}
}