{
  "_format": "hh-sol-artifact-1",
  "contractName": "InstituteFundsManager",
  "sourceName": "contracts/InstituteFundsManager.sol",
  "abi": [
    {
      "inputs": [
        {
          "internalType": "string",
          "name": "_name",
          "type": "string"
        },
        {
          "internalType": "address",
          "name": "_instituteManagerAddress",
          "type": "address"
        },
        {
          "internalType": "contract ISuperfluid",
          "name": "_host",
          "type": "address"
        },
        {
          "internalType": "contract ISuperToken",
          "name": "_spreaderToken",
          "type": "address"
        }
      ],
      "stateMutability": "nonpayable",
      "type": "constructor"
    },
    {
      "inputs": [],
      "name": "INDEX_ID",
      "outputs": [
        {
          "internalType": "uint32",
          "name": "",
          "type": "uint32"
        }
      ],
      "stateMutability": "view",
      "type": "function"
    },
    {
      "inputs": [
        {
          "internalType": "uint256",
          "name": "_noOfModules",
          "type": "uint256"
        },
        {
          "internalType": "uint256",
          "name": "_noOfTokens",
          "type": "uint256"
        }
      ],
      "name": "addModule",
      "outputs": [],
      "stateMutability": "nonpayable",
      "type": "function"
    },
    {
      "inputs": [
        {
          "internalType": "string",
          "name": "_streamCode",
          "type": "string"
        }
      ],
      "name": "addStreams",
      "outputs": [],
      "stateMutability": "nonpayable",
      "type": "function"
    },
    {
      "inputs": [
        {
          "internalType": "uint256",
          "name": "",
          "type": "uint256"
        }
      ],
      "name": "allStreams",
      "outputs": [
        {
          "internalType": "string",
          "name": "",
          "type": "string"
        }
      ],
      "stateMutability": "view",
      "type": "function"
    },
    {
      "inputs": [
        {
          "internalType": "address",
          "name": "subscriber",
          "type": "address"
        }
      ],
      "name": "deleteShares",
      "outputs": [],
      "stateMutability": "nonpayable",
      "type": "function"
    },
    {
      "inputs": [
        {
          "internalType": "uint256",
          "name": "_noOfTokens",
          "type": "uint256"
        }
      ],
      "name": "depositFundsToStream",
      "outputs": [],
      "stateMutability": "nonpayable",
      "type": "function"
    },
    {
      "inputs": [],
      "name": "distribute",
      "outputs": [],
      "stateMutability": "nonpayable",
      "type": "function"
    },
    {
      "inputs": [
        {
          "internalType": "address",
          "name": "subscriber",
          "type": "address"
        },
        {
          "internalType": "uint256",
          "name": "units",
          "type": "uint256"
        }
      ],
      "name": "gainShare",
      "outputs": [],
      "stateMutability": "nonpayable",
      "type": "function"
    },
    {
      "inputs": [],
      "name": "getAllStreams",
      "outputs": [
        {
          "internalType": "string[]",
          "name": "",
          "type": "string[]"
        }
      ],
      "stateMutability": "view",
      "type": "function"
    },
    {
      "inputs": [],
      "name": "getContractBalance",
      "outputs": [
        {
          "internalType": "uint256",
          "name": "",
          "type": "uint256"
        }
      ],
      "stateMutability": "view",
      "type": "function"
    },
    {
      "inputs": [],
      "name": "getModuleCount",
      "outputs": [
        {
          "internalType": "uint256",
          "name": "",
          "type": "uint256"
        }
      ],
      "stateMutability": "view",
      "type": "function"
    },
    {
      "inputs": [],
      "name": "getReward",
      "outputs": [],
      "stateMutability": "nonpayable",
      "type": "function"
    },
    {
      "inputs": [],
      "name": "idaV1",
      "outputs": [
        {
          "internalType": "contract ISuperfluid",
          "name": "host",
          "type": "address"
        },
        {
          "internalType": "contract IInstantDistributionAgreementV1",
          "name": "ida",
          "type": "address"
        }
      ],
      "stateMutability": "view",
      "type": "function"
    },
    {
      "inputs": [],
      "name": "instituteName",
      "outputs": [
        {
          "internalType": "string",
          "name": "",
          "type": "string"
        }
      ],
      "stateMutability": "view",
      "type": "function"
    },
    {
      "inputs": [
        {
          "internalType": "address",
          "name": "subscriber",
          "type": "address"
        },
        {
          "internalType": "uint256",
          "name": "units",
          "type": "uint256"
        }
      ],
      "name": "loseShare",
      "outputs": [],
      "stateMutability": "nonpayable",
      "type": "function"
    },
    {
      "inputs": [],
      "name": "owner",
      "outputs": [
        {
          "internalType": "address",
          "name": "",
          "type": "address"
        }
      ],
      "stateMutability": "view",
      "type": "function"
    },
    {
      "inputs": [
        {
          "internalType": "uint256",
          "name": "_amount",
          "type": "uint256"
        }
      ],
      "name": "redeemToken",
      "outputs": [],
      "stateMutability": "nonpayable",
      "type": "function"
    },
    {
      "inputs": [],
      "name": "registerStudent",
      "outputs": [],
      "stateMutability": "nonpayable",
      "type": "function"
    },
    {
      "inputs": [
        {
          "internalType": "address",
          "name": "",
          "type": "address"
        }
      ],
      "name": "shareUnits",
      "outputs": [
        {
          "internalType": "uint128",
          "name": "",
          "type": "uint128"
        }
      ],
      "stateMutability": "view",
      "type": "function"
    },
    {
      "inputs": [],
      "name": "spreaderToken",
      "outputs": [
        {
          "internalType": "contract ISuperToken",
          "name": "",
          "type": "address"
        }
      ],
      "stateMutability": "view",
      "type": "function"
    }
  ],
  "bytecode": "0x608060405273f2d68898557ccb2cf4c10c3ef2b034b2a69dad00600260006101000a81548173ffffffffffffffffffffffffffffffffffffffff021916908373ffffffffffffffffffffffffffffffffffffffff160217905550600060055560006006556000600755600060085573c1c6805b857bef1f412519c4a842522431afed39600e60006101000a81548173ffffffffffffffffffffffffffffffffffffffff021916908373ffffffffffffffffffffffffffffffffffffffff160217905550348015620000cf57600080fd5b5060405162003a9238038062003a928339818101604052810190620000f59190620009d6565b826000806101000a81548173ffffffffffffffffffffffffffffffffffffffff021916908373ffffffffffffffffffffffffffffffffffffffff16021790555083600190805190602001906200014d9291906200069a565b50600260009054906101000a900473ffffffffffffffffffffffffffffffffffffffff16600360006101000a81548173ffffffffffffffffffffffffffffffffffffffff021916908373ffffffffffffffffffffffffffffffffffffffff1602179055508073ffffffffffffffffffffffffffffffffffffffff166320bc44256040518163ffffffff1660e01b8152600401602060405180830381865afa158015620001fd573d6000803e3d6000fd5b505050506040513d601f19601f8201168201806040525081019062000223919062000a67565b73ffffffffffffffffffffffffffffffffffffffff168273ffffffffffffffffffffffffffffffffffffffff161462000293576040517f08c379a00000000000000000000000000000000000000000000000000000000081526004016200028a9062000afa565b60405180910390fd5b80600a60006101000a81548173ffffffffffffffffffffffffffffffffffffffff021916908373ffffffffffffffffffffffffffffffffffffffff16021790555060405180604001604052808373ffffffffffffffffffffffffffffffffffffffff1681526020018373ffffffffffffffffffffffffffffffffffffffff1663b6d200de7f8aedc3b5d4bf031e11a7e2940f7251c005698405d58e02e1c247fed3b1b3a6746040518263ffffffff1660e01b815260040162000356919062000b37565b602060405180830381865afa15801562000374573d6000803e3d6000fd5b505050506040513d601f19601f820116820180604052508101906200039a919062000b99565b73ffffffffffffffffffffffffffffffffffffffff16815250600b60008201518160000160006101000a81548173ffffffffffffffffffffffffffffffffffffffff021916908373ffffffffffffffffffffffffffffffffffffffff16021790555060208201518160010160006101000a81548173ffffffffffffffffffffffffffffffffffffffff021916908373ffffffffffffffffffffffffffffffffffffffff16021790555090505062000464816000600b6200046e60201b620010c5179092919060201c565b5050505062000ed1565b620004d3838383600067ffffffffffffffff81111562000493576200049262000779565b5b6040519080825280601f01601f191660200182016040528015620004c65781602001600182028036833780820191505090505b50620004d860201b60201c565b505050565b8360000160009054906101000a900473ffffffffffffffffffffffffffffffffffffffff1673ffffffffffffffffffffffffffffffffffffffff166339255d5b8560010160009054906101000a900473ffffffffffffffffffffffffffffffffffffffff168660010160009054906101000a900473ffffffffffffffffffffffffffffffffffffffff1673ffffffffffffffffffffffffffffffffffffffff1663d787840a8787600067ffffffffffffffff8111156200059d576200059c62000779565b5b6040519080825280601f01601f191660200182016040528015620005d05781602001600182028036833780820191505090505b50604051602401620005e59392919062000cb4565b604051602081830303815290604052915060e01b6020820180517bffffffffffffffffffffffffffffffffffffffffffffffffffffffff8381831617835250505050846040518463ffffffff1660e01b8152600401620006489392919062000d1d565b6000604051808303816000875af115801562000668573d6000803e3d6000fd5b505050506040513d6000823e3d601f19601f8201168201806040525081019062000693919062000e1c565b5050505050565b828054620006a89062000e9c565b90600052602060002090601f016020900481019282620006cc576000855562000718565b82601f10620006e757805160ff191683800117855562000718565b8280016001018555821562000718579182015b8281111562000717578251825591602001919060010190620006fa565b5b5090506200072791906200072b565b5090565b5b80821115620007465760008160009055506001016200072c565b5090565b6000604051905090565b600080fd5b600080fd5b600080fd5b600080fd5b6000601f19601f8301169050919050565b7f4e487b7100000000000000000000000000000000000000000000000000000000600052604160045260246000fd5b620007b38262000768565b810181811067ffffffffffffffff82111715620007d557620007d462000779565b5b80604052505050565b6000620007ea6200074a565b9050620007f88282620007a8565b919050565b600067ffffffffffffffff8211156200081b576200081a62000779565b5b620008268262000768565b9050602081019050919050565b60005b838110156200085357808201518184015260208101905062000836565b8381111562000863576000848401525b50505050565b6000620008806200087a84620007fd565b620007de565b9050828152602081018484840111156200089f576200089e62000763565b5b620008ac84828562000833565b509392505050565b600082601f830112620008cc57620008cb6200075e565b5b8151620008de84826020860162000869565b91505092915050565b600073ffffffffffffffffffffffffffffffffffffffff82169050919050565b60006200091482620008e7565b9050919050565b620009268162000907565b81146200093257600080fd5b50565b60008151905062000946816200091b565b92915050565b6000620009598262000907565b9050919050565b6200096b816200094c565b81146200097757600080fd5b50565b6000815190506200098b8162000960565b92915050565b60006200099e8262000907565b9050919050565b620009b08162000991565b8114620009bc57600080fd5b50565b600081519050620009d081620009a5565b92915050565b60008060008060808587031215620009f357620009f262000754565b5b600085015167ffffffffffffffff81111562000a145762000a1362000759565b5b62000a2287828801620008b4565b945050602062000a358782880162000935565b935050604062000a48878288016200097a565b925050606062000a5b87828801620009bf565b91505092959194509250565b60006020828403121562000a805762000a7f62000754565b5b600062000a908482850162000935565b91505092915050565b600082825260208201905092915050565b7f217375706572546f6b656e000000000000000000000000000000000000000000600082015250565b600062000ae2600b8362000a99565b915062000aef8262000aaa565b602082019050919050565b6000602082019050818103600083015262000b158162000ad3565b9050919050565b6000819050919050565b62000b318162000b1c565b82525050565b600060208201905062000b4e600083018462000b26565b92915050565b600062000b618262000907565b9050919050565b62000b738162000b54565b811462000b7f57600080fd5b50565b60008151905062000b938162000b68565b92915050565b60006020828403121562000bb25762000bb162000754565b5b600062000bc28482850162000b82565b91505092915050565b6000819050919050565b600062000bf662000bf062000bea84620008e7565b62000bcb565b620008e7565b9050919050565b600062000c0a8262000bd5565b9050919050565b600062000c1e8262000bfd565b9050919050565b62000c308162000c11565b82525050565b600063ffffffff82169050919050565b62000c518162000c36565b82525050565b600081519050919050565b600082825260208201905092915050565b600062000c808262000c57565b62000c8c818562000c62565b935062000c9e81856020860162000833565b62000ca98162000768565b840191505092915050565b600060608201905062000ccb600083018662000c25565b62000cda602083018562000c46565b818103604083015262000cee818462000c73565b9050949350505050565b600062000d058262000bfd565b9050919050565b62000d178162000cf8565b82525050565b600060608201905062000d34600083018662000d0c565b818103602083015262000d48818562000c73565b9050818103604083015262000d5e818462000c73565b9050949350505050565b600067ffffffffffffffff82111562000d865762000d8562000779565b5b62000d918262000768565b9050602081019050919050565b600062000db562000daf8462000d68565b620007de565b90508281526020810184848401111562000dd45762000dd362000763565b5b62000de184828562000833565b509392505050565b600082601f83011262000e015762000e006200075e565b5b815162000e1384826020860162000d9e565b91505092915050565b60006020828403121562000e355762000e3462000754565b5b600082015167ffffffffffffffff81111562000e565762000e5562000759565b5b62000e648482850162000de9565b91505092915050565b7f4e487b7100000000000000000000000000000000000000000000000000000000600052602260045260246000fd5b6000600282049050600182168062000eb557607f821691505b60208210810362000ecb5762000eca62000e6d565b5b50919050565b612bb18062000ee16000396000f3fe608060405234801561001057600080fd5b506004361061012c5760003560e01c80636f9fb98a116100ad5780638da5cb5b116100715780638da5cb5b146102e8578063a6c4459a14610306578063b908048b14610322578063d64ca47b1461033e578063e4fc6b6d1461035a5761012c565b80636f9fb98a146102545780637f5f21c614610272578063844a5f5f14610290578063845c1115146102ae5780638c7f0959146102ca5761012c565b80633d18b912116100f45780633d18b912146101d657806342979658146101e057806348ea9b31146101ea5780634f5143821461021a57806357d56267146102365761012c565b8063013054c2146101315780630eb653b31461014d5780631cc8ca991461017d5780632268cacb1461019c5780633bd84c0c146101b8575b600080fd5b61014b60048036038101906101469190611add565b610364565b005b61016760048036038101906101629190611add565b610409565b6040516101749190611ba3565b60405180910390f35b6101856104b5565b604051610193929190611c65565b60405180910390f35b6101b660048036038101906101b19190611ccc565b610507565b005b6101c06105be565b6040516101cd9190611e05565b60405180910390f35b6101de610697565b005b6101e861081e565b005b61020460048036038101906101ff9190611ccc565b610878565b6040516102119190611e52565b60405180910390f35b610234600480360381019061022f9190611e6d565b6108a7565b005b61023e6109cb565b60405161024b9190611ebc565b60405180910390f35b61025c6109d5565b6040516102699190611ebc565b60405180910390f35b61027a610a78565b6040516102879190611ba3565b60405180910390f35b610298610b06565b6040516102a59190611ef8565b60405180910390f35b6102c860048036038101906102c39190612048565b610b2c565b005b6102d2610c43565b6040516102df91906120b0565b60405180910390f35b6102f0610c48565b6040516102fd91906120da565b60405180910390f35b610320600480360381019061031b91906120f5565b610c6e565b005b61033c60048036038101906103379190611e6d565b610cac565b005b61035860048036038101906103539190611add565b610dd0565b005b610362610e8a565b005b600360009054906101000a900473ffffffffffffffffffffffffffffffffffffffff1673ffffffffffffffffffffffffffffffffffffffff1663a9059cbb33670de0b6b3a7640000846103b79190612164565b6040518363ffffffff1660e01b81526004016103d49291906121be565b600060405180830381600087803b1580156103ee57600080fd5b505af1158015610402573d6000803e3d6000fd5b5050505050565b6004818154811061041957600080fd5b90600052602060002001600091509050805461043490612216565b80601f016020809104026020016040519081016040528092919081815260200182805461046090612216565b80156104ad5780601f10610482576101008083540402835291602001916104ad565b820191906000526020600020905b81548152906001019060200180831161049057829003601f168201915b505050505081565b600b8060000160009054906101000a900473ffffffffffffffffffffffffffffffffffffffff16908060010160009054906101000a900473ffffffffffffffffffffffffffffffffffffffff16905082565b610544600a60009054906101000a900473ffffffffffffffffffffffffffffffffffffffff1630600084600b61112390949392919063ffffffff16565b6000600d60008373ffffffffffffffffffffffffffffffffffffffff1673ffffffffffffffffffffffffffffffffffffffff16815260200190815260200160002060006101000a8154816fffffffffffffffffffffffffffffffff02191690836fffffffffffffffffffffffffffffffff16021790555050565b60606004805480602002602001604051908101604052809291908181526020016000905b8282101561068e57838290600052602060002001805461060190612216565b80601f016020809104026020016040519081016040528092919081815260200182805461062d90612216565b801561067a5780601f1061064f5761010080835404028352916020019161067a565b820191906000526020600020905b81548152906001019060200180831161065d57829003601f168201915b5050505050815260200190600101906105e2565b50505050905090565b60011515600960003373ffffffffffffffffffffffffffffffffffffffff1673ffffffffffffffffffffffffffffffffffffffff16815260200190815260200160002060009054906101000a900460ff1615151461072a576040517f08c379a000000000000000000000000000000000000000000000000000000000815260040161072190612293565b60405180910390fd5b60016007541015610770576040517f08c379a000000000000000000000000000000000000000000000000000000000815260040161076790612325565b60405180910390fd5b600160075461077f9190612345565b600781905550600360009054906101000a900473ffffffffffffffffffffffffffffffffffffffff1673ffffffffffffffffffffffffffffffffffffffff1663a9059cbb33671bc16d674ec800006040518363ffffffff1660e01b81526004016107ea9291906123b4565b600060405180830381600087803b15801561080457600080fd5b505af1158015610818573d6000803e3d6000fd5b50505050565b6001600960003373ffffffffffffffffffffffffffffffffffffffff1673ffffffffffffffffffffffffffffffffffffffff16815260200190815260200160002060006101000a81548160ff021916908315150217905550565b600d6020528060005260406000206000915054906101000a90046fffffffffffffffffffffffffffffffff1681565b60006108e6600a60009054906101000a900473ffffffffffffffffffffffffffffffffffffffff1630600086600b61118590949392919063ffffffff16565b506fffffffffffffffffffffffffffffffff1692505050610945600a60009054906101000a900473ffffffffffffffffffffffffffffffffffffffff16600085858561093291906123dd565b600b61124390949392919063ffffffff16565b818161095191906123dd565b600d60008573ffffffffffffffffffffffffffffffffffffffff1673ffffffffffffffffffffffffffffffffffffffff16815260200190815260200160002060006101000a8154816fffffffffffffffffffffffffffffffff02191690836fffffffffffffffffffffffffffffffff160217905550505050565b6000600754905090565b6000600360009054906101000a900473ffffffffffffffffffffffffffffffffffffffff1673ffffffffffffffffffffffffffffffffffffffff166370a08231306040518263ffffffff1660e01b8152600401610a3291906120da565b602060405180830381865afa158015610a4f573d6000803e3d6000fd5b505050506040513d601f19601f82011682018060405250810190610a739190612448565b905090565b60018054610a8590612216565b80601f0160208091040260200160405190810160405280929190818152602001828054610ab190612216565b8015610afe5780601f10610ad357610100808354040283529160200191610afe565b820191906000526020600020905b815481529060010190602001808311610ae157829003601f168201915b505050505081565b600a60009054906101000a900473ffffffffffffffffffffffffffffffffffffffff1681565b60008054906101000a900473ffffffffffffffffffffffffffffffffffffffff1673ffffffffffffffffffffffffffffffffffffffff163373ffffffffffffffffffffffffffffffffffffffff1614610bba576040517f08c379a0000000000000000000000000000000000000000000000000000000008152600401610bb1906124c1565b60405180910390fd5b60008190506000815103610c03576040517f08c379a0000000000000000000000000000000000000000000000000000000008152600401610bfa90612553565b60405180910390fd5b600482908060018154018082558091505060019003906000526020600020016000909190919091509080519060200190610c3e9291906119f0565b505050565b600081565b600e60009054906101000a900473ffffffffffffffffffffffffffffffffffffffff1681565b6000600283610c7d9190612164565b600854610c8a91906123dd565b905082600754610c9a91906123dd565b60078190555080600881905550505050565b6000610ceb600a60009054906101000a900473ffffffffffffffffffffffffffffffffffffffff1630600086600b61118590949392919063ffffffff16565b506fffffffffffffffffffffffffffffffff1692505050610d4a600a60009054906101000a900473ffffffffffffffffffffffffffffffffffffffff166000858585610d379190612345565b600b61124390949392919063ffffffff16565b8181610d569190612345565b600d60008573ffffffffffffffffffffffffffffffffffffffff1673ffffffffffffffffffffffffffffffffffffffff16815260200190815260200160002060006101000a8154816fffffffffffffffffffffffffffffffff02191690836fffffffffffffffffffffffffffffffff160217905550505050565b60008103610e13576040517f08c379a0000000000000000000000000000000000000000000000000000000008152600401610e0a906125bf565b60405180910390fd5b60028114610e56576040517f08c379a0000000000000000000000000000000000000000000000000000000008152600401610e4d90612651565b60405180910390fd5b60006002600554610e6791906123dd565b905081600554610e7791906123dd565b6005819055506005546006819055505050565b600e60009054906101000a900473ffffffffffffffffffffffffffffffffffffffff1673ffffffffffffffffffffffffffffffffffffffff163373ffffffffffffffffffffffffffffffffffffffff1614610f1a576040517f08c379a0000000000000000000000000000000000000000000000000000000008152600401610f11906126e3565b60405180910390fd5b6000600a60009054906101000a900473ffffffffffffffffffffffffffffffffffffffff1673ffffffffffffffffffffffffffffffffffffffff166370a08231306040518263ffffffff1660e01b8152600401610f7791906120da565b602060405180830381865afa158015610f94573d6000803e3d6000fd5b505050506040513d601f19601f82011682018060405250810190610fb89190612448565b90506000600b60010160009054906101000a900473ffffffffffffffffffffffffffffffffffffffff1673ffffffffffffffffffffffffffffffffffffffff1663899baaec600a60009054906101000a900473ffffffffffffffffffffffffffffffffffffffff16306000866040518563ffffffff1660e01b81526004016110439493929190612703565b6040805180830381865afa15801561105f573d6000803e3d6000fd5b505050506040513d601f19601f820116820180604052508101906110839190612774565b5090506110c1600a60009054906101000a900473ffffffffffffffffffffffffffffffffffffffff16600083600b6112a5909392919063ffffffff16565b5050565b61111e838383600067ffffffffffffffff8111156110e6576110e5611f1d565b5b6040519080825280601f01601f1916602001820160405280156111185781602001600182028036833780820191505090505b50611305565b505050565b61117e8585858585600067ffffffffffffffff81111561114657611145611f1d565b5b6040519080825280601f01601f1916602001820160405280156111785781602001600182028036833780820191505090505b506114bc565b5050505050565b6000806000808860010160009054906101000a900473ffffffffffffffffffffffffffffffffffffffff1673ffffffffffffffffffffffffffffffffffffffff16635b534051898989896040518563ffffffff1660e01b81526004016111ee94939291906127d5565b608060405180830381865afa15801561120b573d6000803e3d6000fd5b505050506040513d601f19601f8201168201806040525081019061122f9190612852565b935093509350935095509550955095915050565b61129e8585858585600067ffffffffffffffff81111561126657611265611f1d565b5b6040519080825280601f01601f1916602001820160405280156112985781602001600182028036833780820191505090505b50611679565b5050505050565b6112ff84848484600067ffffffffffffffff8111156112c7576112c6611f1d565b5b6040519080825280601f01601f1916602001820160405280156112f95781602001600182028036833780820191505090505b50611836565b50505050565b8360000160009054906101000a900473ffffffffffffffffffffffffffffffffffffffff1673ffffffffffffffffffffffffffffffffffffffff166339255d5b8560010160009054906101000a900473ffffffffffffffffffffffffffffffffffffffff168660010160009054906101000a900473ffffffffffffffffffffffffffffffffffffffff1673ffffffffffffffffffffffffffffffffffffffff1663d787840a8787600067ffffffffffffffff8111156113c7576113c6611f1d565b5b6040519080825280601f01601f1916602001820160405280156113f95781602001600182028036833780820191505090505b5060405160240161140c9392919061290e565b604051602081830303815290604052915060e01b6020820180517bffffffffffffffffffffffffffffffffffffffffffffffffffffffff8381831617835250505050846040518463ffffffff1660e01b815260040161146d9392919061294c565b6000604051808303816000875af115801561148c573d6000803e3d6000fd5b505050506040513d6000823e3d601f19601f820116820180604052508101906114b59190612a32565b5050505050565b8560000160009054906101000a900473ffffffffffffffffffffffffffffffffffffffff1673ffffffffffffffffffffffffffffffffffffffff166339255d5b8760010160009054906101000a900473ffffffffffffffffffffffffffffffffffffffff168860010160009054906101000a900473ffffffffffffffffffffffffffffffffffffffff1673ffffffffffffffffffffffffffffffffffffffff16632e5e74c689898989600067ffffffffffffffff8111156115805761157f611f1d565b5b6040519080825280601f01601f1916602001820160405280156115b25781602001600182028036833780820191505090505b506040516024016115c7959493929190612a7b565b604051602081830303815290604052915060e01b6020820180517bffffffffffffffffffffffffffffffffffffffffffffffffffffffff8381831617835250505050846040518463ffffffff1660e01b81526004016116289392919061294c565b6000604051808303816000875af1158015611647573d6000803e3d6000fd5b505050506040513d6000823e3d601f19601f820116820180604052508101906116709190612a32565b50505050505050565b8560000160009054906101000a900473ffffffffffffffffffffffffffffffffffffffff1673ffffffffffffffffffffffffffffffffffffffff166339255d5b8760010160009054906101000a900473ffffffffffffffffffffffffffffffffffffffff168860010160009054906101000a900473ffffffffffffffffffffffffffffffffffffffff1673ffffffffffffffffffffffffffffffffffffffff1663232d2b5889898989600067ffffffffffffffff81111561173d5761173c611f1d565b5b6040519080825280601f01601f19166020018201604052801561176f5781602001600182028036833780820191505090505b50604051602401611784959493929190612ad5565b604051602081830303815290604052915060e01b6020820180517bffffffffffffffffffffffffffffffffffffffffffffffffffffffff8381831617835250505050846040518463ffffffff1660e01b81526004016117e59392919061294c565b6000604051808303816000875af1158015611804573d6000803e3d6000fd5b505050506040513d6000823e3d601f19601f8201168201806040525081019061182d9190612a32565b50505050505050565b8460000160009054906101000a900473ffffffffffffffffffffffffffffffffffffffff1673ffffffffffffffffffffffffffffffffffffffff166339255d5b8660010160009054906101000a900473ffffffffffffffffffffffffffffffffffffffff168760010160009054906101000a900473ffffffffffffffffffffffffffffffffffffffff1673ffffffffffffffffffffffffffffffffffffffff1663b96731c2888888600067ffffffffffffffff8111156118f9576118f8611f1d565b5b6040519080825280601f01601f19166020018201604052801561192b5781602001600182028036833780820191505090505b5060405160240161193f9493929190612b2f565b604051602081830303815290604052915060e01b6020820180517bffffffffffffffffffffffffffffffffffffffffffffffffffffffff8381831617835250505050846040518463ffffffff1660e01b81526004016119a09392919061294c565b6000604051808303816000875af11580156119bf573d6000803e3d6000fd5b505050506040513d6000823e3d601f19601f820116820180604052508101906119e89190612a32565b505050505050565b8280546119fc90612216565b90600052602060002090601f016020900481019282611a1e5760008555611a65565b82601f10611a3757805160ff1916838001178555611a65565b82800160010185558215611a65579182015b82811115611a64578251825591602001919060010190611a49565b5b509050611a729190611a76565b5090565b5b80821115611a8f576000816000905550600101611a77565b5090565b6000604051905090565b600080fd5b600080fd5b6000819050919050565b611aba81611aa7565b8114611ac557600080fd5b50565b600081359050611ad781611ab1565b92915050565b600060208284031215611af357611af2611a9d565b5b6000611b0184828501611ac8565b91505092915050565b600081519050919050565b600082825260208201905092915050565b60005b83811015611b44578082015181840152602081019050611b29565b83811115611b53576000848401525b50505050565b6000601f19601f8301169050919050565b6000611b7582611b0a565b611b7f8185611b15565b9350611b8f818560208601611b26565b611b9881611b59565b840191505092915050565b60006020820190508181036000830152611bbd8184611b6a565b905092915050565b600073ffffffffffffffffffffffffffffffffffffffff82169050919050565b6000819050919050565b6000611c0a611c05611c0084611bc5565b611be5565b611bc5565b9050919050565b6000611c1c82611bef565b9050919050565b6000611c2e82611c11565b9050919050565b611c3e81611c23565b82525050565b6000611c4f82611c11565b9050919050565b611c5f81611c44565b82525050565b6000604082019050611c7a6000830185611c35565b611c876020830184611c56565b9392505050565b6000611c9982611bc5565b9050919050565b611ca981611c8e565b8114611cb457600080fd5b50565b600081359050611cc681611ca0565b92915050565b600060208284031215611ce257611ce1611a9d565b5b6000611cf084828501611cb7565b91505092915050565b600081519050919050565b600082825260208201905092915050565b6000819050602082019050919050565b600082825260208201905092915050565b6000611d4182611b0a565b611d4b8185611d25565b9350611d5b818560208601611b26565b611d6481611b59565b840191505092915050565b6000611d7b8383611d36565b905092915050565b6000602082019050919050565b6000611d9b82611cf9565b611da58185611d04565b935083602082028501611db785611d15565b8060005b85811015611df35784840389528151611dd48582611d6f565b9450611ddf83611d83565b925060208a01995050600181019050611dbb565b50829750879550505050505092915050565b60006020820190508181036000830152611e1f8184611d90565b905092915050565b60006fffffffffffffffffffffffffffffffff82169050919050565b611e4c81611e27565b82525050565b6000602082019050611e676000830184611e43565b92915050565b60008060408385031215611e8457611e83611a9d565b5b6000611e9285828601611cb7565b9250506020611ea385828601611ac8565b9150509250929050565b611eb681611aa7565b82525050565b6000602082019050611ed16000830184611ead565b92915050565b6000611ee282611c11565b9050919050565b611ef281611ed7565b82525050565b6000602082019050611f0d6000830184611ee9565b92915050565b600080fd5b600080fd5b7f4e487b7100000000000000000000000000000000000000000000000000000000600052604160045260246000fd5b611f5582611b59565b810181811067ffffffffffffffff82111715611f7457611f73611f1d565b5b80604052505050565b6000611f87611a93565b9050611f938282611f4c565b919050565b600067ffffffffffffffff821115611fb357611fb2611f1d565b5b611fbc82611b59565b9050602081019050919050565b82818337600083830152505050565b6000611feb611fe684611f98565b611f7d565b90508281526020810184848401111561200757612006611f18565b5b612012848285611fc9565b509392505050565b600082601f83011261202f5761202e611f13565b5b813561203f848260208601611fd8565b91505092915050565b60006020828403121561205e5761205d611a9d565b5b600082013567ffffffffffffffff81111561207c5761207b611aa2565b5b6120888482850161201a565b91505092915050565b600063ffffffff82169050919050565b6120aa81612091565b82525050565b60006020820190506120c560008301846120a1565b92915050565b6120d481611c8e565b82525050565b60006020820190506120ef60008301846120cb565b92915050565b6000806040838503121561210c5761210b611a9d565b5b600061211a85828601611ac8565b925050602061212b85828601611ac8565b9150509250929050565b7f4e487b7100000000000000000000000000000000000000000000000000000000600052601160045260246000fd5b600061216f82611aa7565b915061217a83611aa7565b9250817fffffffffffffffffffffffffffffffffffffffffffffffffffffffffffffffff04831182151516156121b3576121b2612135565b5b828202905092915050565b60006040820190506121d360008301856120cb565b6121e06020830184611ead565b9392505050565b7f4e487b7100000000000000000000000000000000000000000000000000000000600052602260045260246000fd5b6000600282049050600182168061222e57607f821691505b602082108103612241576122406121e7565b5b50919050565b7f50726f6261626c7920796f7520617265206e6f7420612073747564656e740000600082015250565b600061227d601e83611b15565b915061228882612247565b602082019050919050565b600060208201905081810360008301526122ac81612270565b9050919050565b7f4e6f206d6f726520726577617264696e67206d6f64756c657320617661696c6160008201527f69626c6500000000000000000000000000000000000000000000000000000000602082015250565b600061230f602483611b15565b915061231a826122b3565b604082019050919050565b6000602082019050818103600083015261233e81612302565b9050919050565b600061235082611aa7565b915061235b83611aa7565b92508282101561236e5761236d612135565b5b828203905092915050565b6000819050919050565b600061239e61239961239484612379565b611be5565b611aa7565b9050919050565b6123ae81612383565b82525050565b60006040820190506123c960008301856120cb565b6123d660208301846123a5565b9392505050565b60006123e882611aa7565b91506123f383611aa7565b9250827fffffffffffffffffffffffffffffffffffffffffffffffffffffffffffffffff0382111561242857612427612135565b5b828201905092915050565b60008151905061244281611ab1565b92915050565b60006020828403121561245e5761245d611a9d565b5b600061246c84828501612433565b91505092915050565b7f43616e206f6e6c792062652063616c6c65642066726f6d206f776e6572000000600082015250565b60006124ab601d83611b15565b91506124b682612475565b602082019050919050565b600060208201905081810360008301526124da8161249e565b9050919050565b7f53747265616d20636f64652063616e277420626520616e20656d70747920737460008201527f72696e6700000000000000000000000000000000000000000000000000000000602082015250565b600061253d602483611b15565b9150612548826124e1565b604082019050919050565b6000602082019050818103600083015261256c81612530565b9050919050565b7f43616e2774206465706f736974207a65726f20746f6b656e0000000000000000600082015250565b60006125a9601883611b15565b91506125b482612573565b602082019050919050565b600060208201905081810360008301526125d88161259c565b9050919050565b7f4e6f7420657175616c206e6f206f6620746f6b656e7320746f2061647665727460008201527f6973650000000000000000000000000000000000000000000000000000000000602082015250565b600061263b602383611b15565b9150612646826125df565b604082019050919050565b6000602082019050818103600083015261266a8161262e565b9050919050565b7f596f7520617265206e6f7420616c6c6f77656420746f2061636365737320746860008201527f6973206d6574686f640000000000000000000000000000000000000000000000602082015250565b60006126cd602983611b15565b91506126d882612671565b604082019050919050565b600060208201905081810360008301526126fc816126c0565b9050919050565b60006080820190506127186000830187611ee9565b61272560208301866120cb565b61273260408301856120a1565b61273f6060830184611ead565b95945050505050565b61275181611e27565b811461275c57600080fd5b50565b60008151905061276e81612748565b92915050565b6000806040838503121561278b5761278a611a9d565b5b600061279985828601612433565b92505060206127aa8582860161275f565b9150509250929050565b60006127bf82611c11565b9050919050565b6127cf816127b4565b82525050565b60006080820190506127ea60008301876127c6565b6127f760208301866120cb565b61280460408301856120a1565b61281160608301846120cb565b95945050505050565b60008115159050919050565b61282f8161281a565b811461283a57600080fd5b50565b60008151905061284c81612826565b92915050565b6000806000806080858703121561286c5761286b611a9d565b5b600061287a8782880161283d565b945050602061288b8782880161283d565b935050604061289c8782880161275f565b92505060606128ad87828801612433565b91505092959194509250565b600081519050919050565b600082825260208201905092915050565b60006128e0826128b9565b6128ea81856128c4565b93506128fa818560208601611b26565b61290381611b59565b840191505092915050565b600060608201905061292360008301866127c6565b61293060208301856120a1565b818103604083015261294281846128d5565b9050949350505050565b60006060820190506129616000830186611c56565b818103602083015261297381856128d5565b9050818103604083015261298781846128d5565b9050949350505050565b600067ffffffffffffffff8211156129ac576129ab611f1d565b5b6129b582611b59565b9050602081019050919050565b60006129d56129d084612991565b611f7d565b9050828152602081018484840111156129f1576129f0611f18565b5b6129fc848285611b26565b509392505050565b600082601f830112612a1957612a18611f13565b5b8151612a298482602086016129c2565b91505092915050565b600060208284031215612a4857612a47611a9d565b5b600082015167ffffffffffffffff811115612a6657612a65611aa2565b5b612a7284828501612a04565b91505092915050565b600060a082019050612a9060008301886127c6565b612a9d60208301876120cb565b612aaa60408301866120a1565b612ab760608301856120cb565b8181036080830152612ac981846128d5565b90509695505050505050565b600060a082019050612aea60008301886127c6565b612af760208301876120a1565b612b0460408301866120cb565b612b116060830185611e43565b8181036080830152612b2381846128d5565b90509695505050505050565b6000608082019050612b4460008301876127c6565b612b5160208301866120a1565b612b5e6040830185611ead565b8181036060830152612b7081846128d5565b90509594505050505056fea26469706673582212201e5513df94751c051eb846b0ca86655740cd898d6e670d2b981ab521d8b88e2964736f6c634300080d0033",
  "linkReferences": {},
  "deployedLinkReferences": {}
}