{
  "_format": "hh-sol-artifact-1",
  "contractName": "InstituteFundsManager",
  "sourceName": "contracts/InstituteFundsManager.sol",
  "abi": [
    {
      "inputs": [
        {
          "internalType": "string",
          "name": "_name",
          "type": "string"
        },
        {
          "internalType": "address",
          "name": "_instituteManagerAddress",
          "type": "address"
        },
        {
          "internalType": "contract ISuperfluid",
          "name": "_host",
          "type": "address"
        },
        {
          "internalType": "contract ISuperToken",
          "name": "_spreaderToken",
          "type": "address"
        }
      ],
      "stateMutability": "nonpayable",
      "type": "constructor"
    },
    {
      "inputs": [],
      "name": "INDEX_ID",
      "outputs": [
        {
          "internalType": "uint32",
          "name": "",
          "type": "uint32"
        }
      ],
      "stateMutability": "view",
      "type": "function"
    },
    {
      "inputs": [
        {
          "internalType": "uint256",
          "name": "_noOfModules",
          "type": "uint256"
        },
        {
          "internalType": "uint256",
          "name": "_noOfTokens",
          "type": "uint256"
        }
      ],
      "name": "addModule",
      "outputs": [],
      "stateMutability": "nonpayable",
      "type": "function"
    },
    {
      "inputs": [
        {
          "internalType": "string",
          "name": "_streamCode",
          "type": "string"
        }
      ],
      "name": "addStreams",
      "outputs": [],
      "stateMutability": "nonpayable",
      "type": "function"
    },
    {
      "inputs": [
        {
          "internalType": "uint256",
          "name": "",
          "type": "uint256"
        }
      ],
      "name": "allStreams",
      "outputs": [
        {
          "internalType": "string",
          "name": "",
          "type": "string"
        }
      ],
      "stateMutability": "view",
      "type": "function"
    },
    {
      "inputs": [
        {
          "internalType": "address",
          "name": "publisher",
          "type": "address"
        }
      ],
      "name": "approveSubscriptionForSubscriber",
      "outputs": [],
      "stateMutability": "nonpayable",
      "type": "function"
    },
    {
      "inputs": [
        {
          "internalType": "address",
          "name": "subscriber",
          "type": "address"
        }
      ],
      "name": "deleteShares",
      "outputs": [],
      "stateMutability": "nonpayable",
      "type": "function"
    },
    {
      "inputs": [
        {
          "internalType": "uint256",
          "name": "_noOfTokens",
          "type": "uint256"
        }
      ],
      "name": "depositFundsToStream",
      "outputs": [],
      "stateMutability": "nonpayable",
      "type": "function"
    },
    {
      "inputs": [],
      "name": "distribute",
      "outputs": [],
      "stateMutability": "nonpayable",
      "type": "function"
    },
    {
      "inputs": [
        {
          "internalType": "address",
          "name": "subscriber",
          "type": "address"
        },
        {
          "internalType": "uint256",
          "name": "units",
          "type": "uint256"
        }
      ],
      "name": "gainShare",
      "outputs": [],
      "stateMutability": "nonpayable",
      "type": "function"
    },
    {
      "inputs": [],
      "name": "getAllStreams",
      "outputs": [
        {
          "internalType": "string[]",
          "name": "",
          "type": "string[]"
        }
      ],
      "stateMutability": "view",
      "type": "function"
    },
    {
      "inputs": [],
      "name": "getContractBalance",
      "outputs": [
        {
          "internalType": "uint256",
          "name": "",
          "type": "uint256"
        }
      ],
      "stateMutability": "view",
      "type": "function"
    },
    {
      "inputs": [],
      "name": "getModuleCount",
      "outputs": [
        {
          "internalType": "uint256",
          "name": "",
          "type": "uint256"
        }
      ],
      "stateMutability": "view",
      "type": "function"
    },
    {
      "inputs": [],
      "name": "getReward",
      "outputs": [],
      "stateMutability": "nonpayable",
      "type": "function"
    },
    {
      "inputs": [],
      "name": "idaV1",
      "outputs": [
        {
          "internalType": "contract ISuperfluid",
          "name": "host",
          "type": "address"
        },
        {
          "internalType": "contract IInstantDistributionAgreementV1",
          "name": "ida",
          "type": "address"
        }
      ],
      "stateMutability": "view",
      "type": "function"
    },
    {
      "inputs": [],
      "name": "instituteName",
      "outputs": [
        {
          "internalType": "string",
          "name": "",
          "type": "string"
        }
      ],
      "stateMutability": "view",
      "type": "function"
    },
    {
      "inputs": [
        {
          "internalType": "address",
          "name": "subscriber",
          "type": "address"
        },
        {
          "internalType": "uint256",
          "name": "units",
          "type": "uint256"
        }
      ],
      "name": "loseShare",
      "outputs": [],
      "stateMutability": "nonpayable",
      "type": "function"
    },
    {
      "inputs": [],
      "name": "owner",
      "outputs": [
        {
          "internalType": "address",
          "name": "",
          "type": "address"
        }
      ],
      "stateMutability": "view",
      "type": "function"
    },
    {
      "inputs": [
        {
          "internalType": "uint256",
          "name": "_amount",
          "type": "uint256"
        }
      ],
      "name": "redeemToken",
      "outputs": [],
      "stateMutability": "nonpayable",
      "type": "function"
    },
    {
      "inputs": [],
      "name": "registerStudent",
      "outputs": [],
      "stateMutability": "nonpayable",
      "type": "function"
    },
    {
      "inputs": [
        {
          "internalType": "address",
          "name": "",
          "type": "address"
        }
      ],
      "name": "shareUnits",
      "outputs": [
        {
          "internalType": "uint128",
          "name": "",
          "type": "uint128"
        }
      ],
      "stateMutability": "view",
      "type": "function"
    },
    {
      "inputs": [],
      "name": "spreaderToken",
      "outputs": [
        {
          "internalType": "contract ISuperToken",
          "name": "",
          "type": "address"
        }
      ],
      "stateMutability": "view",
      "type": "function"
    }
  ],
  "bytecode": "0x608060405273f2d68898557ccb2cf4c10c3ef2b034b2a69dad00600260006101000a81548173ffffffffffffffffffffffffffffffffffffffff021916908373ffffffffffffffffffffffffffffffffffffffff160217905550600060055560006006556000600755600060085573c1c6805b857bef1f412519c4a842522431afed39600e60006101000a81548173ffffffffffffffffffffffffffffffffffffffff021916908373ffffffffffffffffffffffffffffffffffffffff160217905550348015620000cf57600080fd5b5060405162003c3b38038062003c3b8339818101604052810190620000f59190620009d6565b826000806101000a81548173ffffffffffffffffffffffffffffffffffffffff021916908373ffffffffffffffffffffffffffffffffffffffff16021790555083600190805190602001906200014d9291906200069a565b50600260009054906101000a900473ffffffffffffffffffffffffffffffffffffffff16600360006101000a81548173ffffffffffffffffffffffffffffffffffffffff021916908373ffffffffffffffffffffffffffffffffffffffff1602179055508073ffffffffffffffffffffffffffffffffffffffff166320bc44256040518163ffffffff1660e01b8152600401602060405180830381865afa158015620001fd573d6000803e3d6000fd5b505050506040513d601f19601f8201168201806040525081019062000223919062000a67565b73ffffffffffffffffffffffffffffffffffffffff168273ffffffffffffffffffffffffffffffffffffffff161462000293576040517f08c379a00000000000000000000000000000000000000000000000000000000081526004016200028a9062000afa565b60405180910390fd5b80600a60006101000a81548173ffffffffffffffffffffffffffffffffffffffff021916908373ffffffffffffffffffffffffffffffffffffffff16021790555060405180604001604052808373ffffffffffffffffffffffffffffffffffffffff1681526020018373ffffffffffffffffffffffffffffffffffffffff1663b6d200de7f8aedc3b5d4bf031e11a7e2940f7251c005698405d58e02e1c247fed3b1b3a6746040518263ffffffff1660e01b815260040162000356919062000b37565b602060405180830381865afa15801562000374573d6000803e3d6000fd5b505050506040513d601f19601f820116820180604052508101906200039a919062000b99565b73ffffffffffffffffffffffffffffffffffffffff16815250600b60008201518160000160006101000a81548173ffffffffffffffffffffffffffffffffffffffff021916908373ffffffffffffffffffffffffffffffffffffffff16021790555060208201518160010160006101000a81548173ffffffffffffffffffffffffffffffffffffffff021916908373ffffffffffffffffffffffffffffffffffffffff16021790555090505062000464816000600b6200046e60201b6200109a179092919060201c565b5050505062000ed1565b620004d3838383600067ffffffffffffffff81111562000493576200049262000779565b5b6040519080825280601f01601f191660200182016040528015620004c65781602001600182028036833780820191505090505b50620004d860201b60201c565b505050565b8360000160009054906101000a900473ffffffffffffffffffffffffffffffffffffffff1673ffffffffffffffffffffffffffffffffffffffff166339255d5b8560010160009054906101000a900473ffffffffffffffffffffffffffffffffffffffff168660010160009054906101000a900473ffffffffffffffffffffffffffffffffffffffff1673ffffffffffffffffffffffffffffffffffffffff1663d787840a8787600067ffffffffffffffff8111156200059d576200059c62000779565b5b6040519080825280601f01601f191660200182016040528015620005d05781602001600182028036833780820191505090505b50604051602401620005e59392919062000cb4565b604051602081830303815290604052915060e01b6020820180517bffffffffffffffffffffffffffffffffffffffffffffffffffffffff8381831617835250505050846040518463ffffffff1660e01b8152600401620006489392919062000d1d565b6000604051808303816000875af115801562000668573d6000803e3d6000fd5b505050506040513d6000823e3d601f19601f8201168201806040525081019062000693919062000e1c565b5050505050565b828054620006a89062000e9c565b90600052602060002090601f016020900481019282620006cc576000855562000718565b82601f10620006e757805160ff191683800117855562000718565b8280016001018555821562000718579182015b8281111562000717578251825591602001919060010190620006fa565b5b5090506200072791906200072b565b5090565b5b80821115620007465760008160009055506001016200072c565b5090565b6000604051905090565b600080fd5b600080fd5b600080fd5b600080fd5b6000601f19601f8301169050919050565b7f4e487b7100000000000000000000000000000000000000000000000000000000600052604160045260246000fd5b620007b38262000768565b810181811067ffffffffffffffff82111715620007d557620007d462000779565b5b80604052505050565b6000620007ea6200074a565b9050620007f88282620007a8565b919050565b600067ffffffffffffffff8211156200081b576200081a62000779565b5b620008268262000768565b9050602081019050919050565b60005b838110156200085357808201518184015260208101905062000836565b8381111562000863576000848401525b50505050565b6000620008806200087a84620007fd565b620007de565b9050828152602081018484840111156200089f576200089e62000763565b5b620008ac84828562000833565b509392505050565b600082601f830112620008cc57620008cb6200075e565b5b8151620008de84826020860162000869565b91505092915050565b600073ffffffffffffffffffffffffffffffffffffffff82169050919050565b60006200091482620008e7565b9050919050565b620009268162000907565b81146200093257600080fd5b50565b60008151905062000946816200091b565b92915050565b6000620009598262000907565b9050919050565b6200096b816200094c565b81146200097757600080fd5b50565b6000815190506200098b8162000960565b92915050565b60006200099e8262000907565b9050919050565b620009b08162000991565b8114620009bc57600080fd5b50565b600081519050620009d081620009a5565b92915050565b60008060008060808587031215620009f357620009f262000754565b5b600085015167ffffffffffffffff81111562000a145762000a1362000759565b5b62000a2287828801620008b4565b945050602062000a358782880162000935565b935050604062000a48878288016200097a565b925050606062000a5b87828801620009bf565b91505092959194509250565b60006020828403121562000a805762000a7f62000754565b5b600062000a908482850162000935565b91505092915050565b600082825260208201905092915050565b7f217375706572546f6b656e000000000000000000000000000000000000000000600082015250565b600062000ae2600b8362000a99565b915062000aef8262000aaa565b602082019050919050565b6000602082019050818103600083015262000b158162000ad3565b9050919050565b6000819050919050565b62000b318162000b1c565b82525050565b600060208201905062000b4e600083018462000b26565b92915050565b600062000b618262000907565b9050919050565b62000b738162000b54565b811462000b7f57600080fd5b50565b60008151905062000b938162000b68565b92915050565b60006020828403121562000bb25762000bb162000754565b5b600062000bc28482850162000b82565b91505092915050565b6000819050919050565b600062000bf662000bf062000bea84620008e7565b62000bcb565b620008e7565b9050919050565b600062000c0a8262000bd5565b9050919050565b600062000c1e8262000bfd565b9050919050565b62000c308162000c11565b82525050565b600063ffffffff82169050919050565b62000c518162000c36565b82525050565b600081519050919050565b600082825260208201905092915050565b600062000c808262000c57565b62000c8c818562000c62565b935062000c9e81856020860162000833565b62000ca98162000768565b840191505092915050565b600060608201905062000ccb600083018662000c25565b62000cda602083018562000c46565b818103604083015262000cee818462000c73565b9050949350505050565b600062000d058262000bfd565b9050919050565b62000d178162000cf8565b82525050565b600060608201905062000d34600083018662000d0c565b818103602083015262000d48818562000c73565b9050818103604083015262000d5e818462000c73565b9050949350505050565b600067ffffffffffffffff82111562000d865762000d8562000779565b5b62000d918262000768565b9050602081019050919050565b600062000db562000daf8462000d68565b620007de565b90508281526020810184848401111562000dd45762000dd362000763565b5b62000de184828562000833565b509392505050565b600082601f83011262000e015762000e006200075e565b5b815162000e1384826020860162000d9e565b91505092915050565b60006020828403121562000e355762000e3462000754565b5b600082015167ffffffffffffffff81111562000e565762000e5562000759565b5b62000e648482850162000de9565b91505092915050565b7f4e487b7100000000000000000000000000000000000000000000000000000000600052602260045260246000fd5b6000600282049050600182168062000eb557607f821691505b60208210810362000ecb5762000eca62000e6d565b5b50919050565b612d5a8062000ee16000396000f3fe608060405234801561001057600080fd5b50600436106101375760003560e01c806369eacfd3116100b85780638c7f09591161007c5780638c7f0959146102f15780638da5cb5b1461030f578063a6c4459a1461032d578063b908048b14610349578063d64ca47b14610365578063e4fc6b6d1461038157610137565b806369eacfd31461025f5780636f9fb98a1461027b5780637f5f21c614610299578063844a5f5f146102b7578063845c1115146102d557610137565b80633d18b912116100ff5780633d18b912146101e157806342979658146101eb57806348ea9b31146101f55780634f5143821461022557806357d562671461024157610137565b8063013054c21461013c5780630eb653b3146101585780631cc8ca99146101885780632268cacb146101a75780633bd84c0c146101c3575b600080fd5b61015660048036038101906101519190611ccc565b61038b565b005b610172600480360381019061016d9190611ccc565b610430565b60405161017f9190611d92565b60405180910390f35b6101906104dc565b60405161019e929190611e54565b60405180910390f35b6101c160048036038101906101bc9190611ebb565b61052e565b005b6101cb6105e5565b6040516101d89190611ff4565b60405180910390f35b6101e96106be565b005b6101f3610845565b005b61020f600480360381019061020a9190611ebb565b61089f565b60405161021c9190612041565b60405180910390f35b61023f600480360381019061023a919061205c565b6108ce565b005b6102496109f2565b60405161025691906120ab565b60405180910390f35b61027960048036038101906102749190611ebb565b6109fc565b005b610283610a3a565b60405161029091906120ab565b60405180910390f35b6102a1610add565b6040516102ae9190611d92565b60405180910390f35b6102bf610b6b565b6040516102cc91906120e7565b60405180910390f35b6102ef60048036038101906102ea9190612237565b610b91565b005b6102f9610ca8565b604051610306919061229f565b60405180910390f35b610317610cad565b60405161032491906122c9565b60405180910390f35b610347600480360381019061034291906122e4565b610cd3565b005b610363600480360381019061035e919061205c565b610d11565b005b61037f600480360381019061037a9190611ccc565b610e35565b005b610389610eef565b005b600360009054906101000a900473ffffffffffffffffffffffffffffffffffffffff1673ffffffffffffffffffffffffffffffffffffffff1663a9059cbb33670de0b6b3a7640000846103de9190612353565b6040518363ffffffff1660e01b81526004016103fb9291906123ad565b600060405180830381600087803b15801561041557600080fd5b505af1158015610429573d6000803e3d6000fd5b5050505050565b6004818154811061044057600080fd5b90600052602060002001600091509050805461045b90612405565b80601f016020809104026020016040519081016040528092919081815260200182805461048790612405565b80156104d45780601f106104a9576101008083540402835291602001916104d4565b820191906000526020600020905b8154815290600101906020018083116104b757829003601f168201915b505050505081565b600b8060000160009054906101000a900473ffffffffffffffffffffffffffffffffffffffff16908060010160009054906101000a900473ffffffffffffffffffffffffffffffffffffffff16905082565b61056b600a60009054906101000a900473ffffffffffffffffffffffffffffffffffffffff1630600084600b6110f890949392919063ffffffff16565b6000600d60008373ffffffffffffffffffffffffffffffffffffffff1673ffffffffffffffffffffffffffffffffffffffff16815260200190815260200160002060006101000a8154816fffffffffffffffffffffffffffffffff02191690836fffffffffffffffffffffffffffffffff16021790555050565b60606004805480602002602001604051908101604052809291908181526020016000905b828210156106b557838290600052602060002001805461062890612405565b80601f016020809104026020016040519081016040528092919081815260200182805461065490612405565b80156106a15780601f10610676576101008083540402835291602001916106a1565b820191906000526020600020905b81548152906001019060200180831161068457829003601f168201915b505050505081526020019060010190610609565b50505050905090565b60011515600960003373ffffffffffffffffffffffffffffffffffffffff1673ffffffffffffffffffffffffffffffffffffffff16815260200190815260200160002060009054906101000a900460ff16151514610751576040517f08c379a000000000000000000000000000000000000000000000000000000000815260040161074890612482565b60405180910390fd5b60016007541015610797576040517f08c379a000000000000000000000000000000000000000000000000000000000815260040161078e90612514565b60405180910390fd5b60016007546107a69190612534565b600781905550600360009054906101000a900473ffffffffffffffffffffffffffffffffffffffff1673ffffffffffffffffffffffffffffffffffffffff1663a9059cbb33671bc16d674ec800006040518363ffffffff1660e01b81526004016108119291906125a3565b600060405180830381600087803b15801561082b57600080fd5b505af115801561083f573d6000803e3d6000fd5b50505050565b6001600960003373ffffffffffffffffffffffffffffffffffffffff1673ffffffffffffffffffffffffffffffffffffffff16815260200190815260200160002060006101000a81548160ff021916908315150217905550565b600d6020528060005260406000206000915054906101000a90046fffffffffffffffffffffffffffffffff1681565b600061090d600a60009054906101000a900473ffffffffffffffffffffffffffffffffffffffff1630600086600b61115a90949392919063ffffffff16565b506fffffffffffffffffffffffffffffffff169250505061096c600a60009054906101000a900473ffffffffffffffffffffffffffffffffffffffff16600085858561095991906125cc565b600b61121890949392919063ffffffff16565b818161097891906125cc565b600d60008573ffffffffffffffffffffffffffffffffffffffff1673ffffffffffffffffffffffffffffffffffffffff16815260200190815260200160002060006101000a8154816fffffffffffffffffffffffffffffffff02191690836fffffffffffffffffffffffffffffffff160217905550505050565b6000600754905090565b610a37600a60009054906101000a900473ffffffffffffffffffffffffffffffffffffffff16826000600b61127a909392919063ffffffff16565b50565b6000600360009054906101000a900473ffffffffffffffffffffffffffffffffffffffff1673ffffffffffffffffffffffffffffffffffffffff166370a08231306040518263ffffffff1660e01b8152600401610a9791906122c9565b602060405180830381865afa158015610ab4573d6000803e3d6000fd5b505050506040513d601f19601f82011682018060405250810190610ad89190612637565b905090565b60018054610aea90612405565b80601f0160208091040260200160405190810160405280929190818152602001828054610b1690612405565b8015610b635780601f10610b3857610100808354040283529160200191610b63565b820191906000526020600020905b815481529060010190602001808311610b4657829003601f168201915b505050505081565b600a60009054906101000a900473ffffffffffffffffffffffffffffffffffffffff1681565b60008054906101000a900473ffffffffffffffffffffffffffffffffffffffff1673ffffffffffffffffffffffffffffffffffffffff163373ffffffffffffffffffffffffffffffffffffffff1614610c1f576040517f08c379a0000000000000000000000000000000000000000000000000000000008152600401610c16906126b0565b60405180910390fd5b60008190506000815103610c68576040517f08c379a0000000000000000000000000000000000000000000000000000000008152600401610c5f90612742565b60405180910390fd5b600482908060018154018082558091505060019003906000526020600020016000909190919091509080519060200190610ca3929190611bdf565b505050565b600081565b600e60009054906101000a900473ffffffffffffffffffffffffffffffffffffffff1681565b6000600283610ce29190612353565b600854610cef91906125cc565b905082600754610cff91906125cc565b60078190555080600881905550505050565b6000610d50600a60009054906101000a900473ffffffffffffffffffffffffffffffffffffffff1630600086600b61115a90949392919063ffffffff16565b506fffffffffffffffffffffffffffffffff1692505050610daf600a60009054906101000a900473ffffffffffffffffffffffffffffffffffffffff166000858585610d9c9190612534565b600b61121890949392919063ffffffff16565b8181610dbb9190612534565b600d60008573ffffffffffffffffffffffffffffffffffffffff1673ffffffffffffffffffffffffffffffffffffffff16815260200190815260200160002060006101000a8154816fffffffffffffffffffffffffffffffff02191690836fffffffffffffffffffffffffffffffff160217905550505050565b60008103610e78576040517f08c379a0000000000000000000000000000000000000000000000000000000008152600401610e6f906127ae565b60405180910390fd5b60028114610ebb576040517f08c379a0000000000000000000000000000000000000000000000000000000008152600401610eb290612840565b60405180910390fd5b60006002600554610ecc91906125cc565b905081600554610edc91906125cc565b6005819055506005546006819055505050565b6000600a60009054906101000a900473ffffffffffffffffffffffffffffffffffffffff1673ffffffffffffffffffffffffffffffffffffffff166370a08231306040518263ffffffff1660e01b8152600401610f4c91906122c9565b602060405180830381865afa158015610f69573d6000803e3d6000fd5b505050506040513d601f19601f82011682018060405250810190610f8d9190612637565b90506000600b60010160009054906101000a900473ffffffffffffffffffffffffffffffffffffffff1673ffffffffffffffffffffffffffffffffffffffff1663899baaec600a60009054906101000a900473ffffffffffffffffffffffffffffffffffffffff16306000866040518563ffffffff1660e01b81526004016110189493929190612860565b6040805180830381865afa158015611034573d6000803e3d6000fd5b505050506040513d601f19601f8201168201806040525081019061105891906128d1565b509050611096600a60009054906101000a900473ffffffffffffffffffffffffffffffffffffffff16600083600b6112da909392919063ffffffff16565b5050565b6110f3838383600067ffffffffffffffff8111156110bb576110ba61210c565b5b6040519080825280601f01601f1916602001820160405280156110ed5781602001600182028036833780820191505090505b5061133a565b505050565b6111538585858585600067ffffffffffffffff81111561111b5761111a61210c565b5b6040519080825280601f01601f19166020018201604052801561114d5781602001600182028036833780820191505090505b506114f1565b5050505050565b6000806000808860010160009054906101000a900473ffffffffffffffffffffffffffffffffffffffff1673ffffffffffffffffffffffffffffffffffffffff16635b534051898989896040518563ffffffff1660e01b81526004016111c39493929190612932565b608060405180830381865afa1580156111e0573d6000803e3d6000fd5b505050506040513d601f19601f8201168201806040525081019061120491906129af565b935093509350935095509550955095915050565b6112738585858585600067ffffffffffffffff81111561123b5761123a61210c565b5b6040519080825280601f01601f19166020018201604052801561126d5781602001600182028036833780820191505090505b506116ae565b5050505050565b6112d484848484600067ffffffffffffffff81111561129c5761129b61210c565b5b6040519080825280601f01601f1916602001820160405280156112ce5781602001600182028036833780820191505090505b5061186b565b50505050565b61133484848484600067ffffffffffffffff8111156112fc576112fb61210c565b5b6040519080825280601f01601f19166020018201604052801561132e5781602001600182028036833780820191505090505b50611a25565b50505050565b8360000160009054906101000a900473ffffffffffffffffffffffffffffffffffffffff1673ffffffffffffffffffffffffffffffffffffffff166339255d5b8560010160009054906101000a900473ffffffffffffffffffffffffffffffffffffffff168660010160009054906101000a900473ffffffffffffffffffffffffffffffffffffffff1673ffffffffffffffffffffffffffffffffffffffff1663d787840a8787600067ffffffffffffffff8111156113fc576113fb61210c565b5b6040519080825280601f01601f19166020018201604052801561142e5781602001600182028036833780820191505090505b5060405160240161144193929190612a6b565b604051602081830303815290604052915060e01b6020820180517bffffffffffffffffffffffffffffffffffffffffffffffffffffffff8381831617835250505050846040518463ffffffff1660e01b81526004016114a293929190612aa9565b6000604051808303816000875af11580156114c1573d6000803e3d6000fd5b505050506040513d6000823e3d601f19601f820116820180604052508101906114ea9190612b8f565b5050505050565b8560000160009054906101000a900473ffffffffffffffffffffffffffffffffffffffff1673ffffffffffffffffffffffffffffffffffffffff166339255d5b8760010160009054906101000a900473ffffffffffffffffffffffffffffffffffffffff168860010160009054906101000a900473ffffffffffffffffffffffffffffffffffffffff1673ffffffffffffffffffffffffffffffffffffffff16632e5e74c689898989600067ffffffffffffffff8111156115b5576115b461210c565b5b6040519080825280601f01601f1916602001820160405280156115e75781602001600182028036833780820191505090505b506040516024016115fc959493929190612bd8565b604051602081830303815290604052915060e01b6020820180517bffffffffffffffffffffffffffffffffffffffffffffffffffffffff8381831617835250505050846040518463ffffffff1660e01b815260040161165d93929190612aa9565b6000604051808303816000875af115801561167c573d6000803e3d6000fd5b505050506040513d6000823e3d601f19601f820116820180604052508101906116a59190612b8f565b50505050505050565b8560000160009054906101000a900473ffffffffffffffffffffffffffffffffffffffff1673ffffffffffffffffffffffffffffffffffffffff166339255d5b8760010160009054906101000a900473ffffffffffffffffffffffffffffffffffffffff168860010160009054906101000a900473ffffffffffffffffffffffffffffffffffffffff1673ffffffffffffffffffffffffffffffffffffffff1663232d2b5889898989600067ffffffffffffffff8111156117725761177161210c565b5b6040519080825280601f01601f1916602001820160405280156117a45781602001600182028036833780820191505090505b506040516024016117b9959493929190612c32565b604051602081830303815290604052915060e01b6020820180517bffffffffffffffffffffffffffffffffffffffffffffffffffffffff8381831617835250505050846040518463ffffffff1660e01b815260040161181a93929190612aa9565b6000604051808303816000875af1158015611839573d6000803e3d6000fd5b505050506040513d6000823e3d601f19601f820116820180604052508101906118629190612b8f565b50505050505050565b8460000160009054906101000a900473ffffffffffffffffffffffffffffffffffffffff1673ffffffffffffffffffffffffffffffffffffffff166339255d5b8660010160009054906101000a900473ffffffffffffffffffffffffffffffffffffffff168760010160009054906101000a900473ffffffffffffffffffffffffffffffffffffffff1673ffffffffffffffffffffffffffffffffffffffff1663acf4a6c2888888600067ffffffffffffffff81111561192e5761192d61210c565b5b6040519080825280601f01601f1916602001820160405280156119605781602001600182028036833780820191505090505b506040516024016119749493929190612c8c565b604051602081830303815290604052915060e01b6020820180517bffffffffffffffffffffffffffffffffffffffffffffffffffffffff8381831617835250505050846040518463ffffffff1660e01b81526004016119d593929190612aa9565b6000604051808303816000875af11580156119f4573d6000803e3d6000fd5b505050506040513d6000823e3d601f19601f82011682018060405250810190611a1d9190612b8f565b505050505050565b8460000160009054906101000a900473ffffffffffffffffffffffffffffffffffffffff1673ffffffffffffffffffffffffffffffffffffffff166339255d5b8660010160009054906101000a900473ffffffffffffffffffffffffffffffffffffffff168760010160009054906101000a900473ffffffffffffffffffffffffffffffffffffffff1673ffffffffffffffffffffffffffffffffffffffff1663b96731c2888888600067ffffffffffffffff811115611ae857611ae761210c565b5b6040519080825280601f01601f191660200182016040528015611b1a5781602001600182028036833780820191505090505b50604051602401611b2e9493929190612cd8565b604051602081830303815290604052915060e01b6020820180517bffffffffffffffffffffffffffffffffffffffffffffffffffffffff8381831617835250505050846040518463ffffffff1660e01b8152600401611b8f93929190612aa9565b6000604051808303816000875af1158015611bae573d6000803e3d6000fd5b505050506040513d6000823e3d601f19601f82011682018060405250810190611bd79190612b8f565b505050505050565b828054611beb90612405565b90600052602060002090601f016020900481019282611c0d5760008555611c54565b82601f10611c2657805160ff1916838001178555611c54565b82800160010185558215611c54579182015b82811115611c53578251825591602001919060010190611c38565b5b509050611c619190611c65565b5090565b5b80821115611c7e576000816000905550600101611c66565b5090565b6000604051905090565b600080fd5b600080fd5b6000819050919050565b611ca981611c96565b8114611cb457600080fd5b50565b600081359050611cc681611ca0565b92915050565b600060208284031215611ce257611ce1611c8c565b5b6000611cf084828501611cb7565b91505092915050565b600081519050919050565b600082825260208201905092915050565b60005b83811015611d33578082015181840152602081019050611d18565b83811115611d42576000848401525b50505050565b6000601f19601f8301169050919050565b6000611d6482611cf9565b611d6e8185611d04565b9350611d7e818560208601611d15565b611d8781611d48565b840191505092915050565b60006020820190508181036000830152611dac8184611d59565b905092915050565b600073ffffffffffffffffffffffffffffffffffffffff82169050919050565b6000819050919050565b6000611df9611df4611def84611db4565b611dd4565b611db4565b9050919050565b6000611e0b82611dde565b9050919050565b6000611e1d82611e00565b9050919050565b611e2d81611e12565b82525050565b6000611e3e82611e00565b9050919050565b611e4e81611e33565b82525050565b6000604082019050611e696000830185611e24565b611e766020830184611e45565b9392505050565b6000611e8882611db4565b9050919050565b611e9881611e7d565b8114611ea357600080fd5b50565b600081359050611eb581611e8f565b92915050565b600060208284031215611ed157611ed0611c8c565b5b6000611edf84828501611ea6565b91505092915050565b600081519050919050565b600082825260208201905092915050565b6000819050602082019050919050565b600082825260208201905092915050565b6000611f3082611cf9565b611f3a8185611f14565b9350611f4a818560208601611d15565b611f5381611d48565b840191505092915050565b6000611f6a8383611f25565b905092915050565b6000602082019050919050565b6000611f8a82611ee8565b611f948185611ef3565b935083602082028501611fa685611f04565b8060005b85811015611fe25784840389528151611fc38582611f5e565b9450611fce83611f72565b925060208a01995050600181019050611faa565b50829750879550505050505092915050565b6000602082019050818103600083015261200e8184611f7f565b905092915050565b60006fffffffffffffffffffffffffffffffff82169050919050565b61203b81612016565b82525050565b60006020820190506120566000830184612032565b92915050565b6000806040838503121561207357612072611c8c565b5b600061208185828601611ea6565b925050602061209285828601611cb7565b9150509250929050565b6120a581611c96565b82525050565b60006020820190506120c0600083018461209c565b92915050565b60006120d182611e00565b9050919050565b6120e1816120c6565b82525050565b60006020820190506120fc60008301846120d8565b92915050565b600080fd5b600080fd5b7f4e487b7100000000000000000000000000000000000000000000000000000000600052604160045260246000fd5b61214482611d48565b810181811067ffffffffffffffff821117156121635761216261210c565b5b80604052505050565b6000612176611c82565b9050612182828261213b565b919050565b600067ffffffffffffffff8211156121a2576121a161210c565b5b6121ab82611d48565b9050602081019050919050565b82818337600083830152505050565b60006121da6121d584612187565b61216c565b9050828152602081018484840111156121f6576121f5612107565b5b6122018482856121b8565b509392505050565b600082601f83011261221e5761221d612102565b5b813561222e8482602086016121c7565b91505092915050565b60006020828403121561224d5761224c611c8c565b5b600082013567ffffffffffffffff81111561226b5761226a611c91565b5b61227784828501612209565b91505092915050565b600063ffffffff82169050919050565b61229981612280565b82525050565b60006020820190506122b46000830184612290565b92915050565b6122c381611e7d565b82525050565b60006020820190506122de60008301846122ba565b92915050565b600080604083850312156122fb576122fa611c8c565b5b600061230985828601611cb7565b925050602061231a85828601611cb7565b9150509250929050565b7f4e487b7100000000000000000000000000000000000000000000000000000000600052601160045260246000fd5b600061235e82611c96565b915061236983611c96565b9250817fffffffffffffffffffffffffffffffffffffffffffffffffffffffffffffffff04831182151516156123a2576123a1612324565b5b828202905092915050565b60006040820190506123c260008301856122ba565b6123cf602083018461209c565b9392505050565b7f4e487b7100000000000000000000000000000000000000000000000000000000600052602260045260246000fd5b6000600282049050600182168061241d57607f821691505b6020821081036124305761242f6123d6565b5b50919050565b7f50726f6261626c7920796f7520617265206e6f7420612073747564656e740000600082015250565b600061246c601e83611d04565b915061247782612436565b602082019050919050565b6000602082019050818103600083015261249b8161245f565b9050919050565b7f4e6f206d6f726520726577617264696e67206d6f64756c657320617661696c6160008201527f69626c6500000000000000000000000000000000000000000000000000000000602082015250565b60006124fe602483611d04565b9150612509826124a2565b604082019050919050565b6000602082019050818103600083015261252d816124f1565b9050919050565b600061253f82611c96565b915061254a83611c96565b92508282101561255d5761255c612324565b5b828203905092915050565b6000819050919050565b600061258d61258861258384612568565b611dd4565b611c96565b9050919050565b61259d81612572565b82525050565b60006040820190506125b860008301856122ba565b6125c56020830184612594565b9392505050565b60006125d782611c96565b91506125e283611c96565b9250827fffffffffffffffffffffffffffffffffffffffffffffffffffffffffffffffff0382111561261757612616612324565b5b828201905092915050565b60008151905061263181611ca0565b92915050565b60006020828403121561264d5761264c611c8c565b5b600061265b84828501612622565b91505092915050565b7f43616e206f6e6c792062652063616c6c65642066726f6d206f776e6572000000600082015250565b600061269a601d83611d04565b91506126a582612664565b602082019050919050565b600060208201905081810360008301526126c98161268d565b9050919050565b7f53747265616d20636f64652063616e277420626520616e20656d70747920737460008201527f72696e6700000000000000000000000000000000000000000000000000000000602082015250565b600061272c602483611d04565b9150612737826126d0565b604082019050919050565b6000602082019050818103600083015261275b8161271f565b9050919050565b7f43616e2774206465706f736974207a65726f20746f6b656e0000000000000000600082015250565b6000612798601883611d04565b91506127a382612762565b602082019050919050565b600060208201905081810360008301526127c78161278b565b9050919050565b7f4e6f7420657175616c206e6f206f6620746f6b656e7320746f2061647665727460008201527f6973650000000000000000000000000000000000000000000000000000000000602082015250565b600061282a602383611d04565b9150612835826127ce565b604082019050919050565b600060208201905081810360008301526128598161281d565b9050919050565b600060808201905061287560008301876120d8565b61288260208301866122ba565b61288f6040830185612290565b61289c606083018461209c565b95945050505050565b6128ae81612016565b81146128b957600080fd5b50565b6000815190506128cb816128a5565b92915050565b600080604083850312156128e8576128e7611c8c565b5b60006128f685828601612622565b9250506020612907858286016128bc565b9150509250929050565b600061291c82611e00565b9050919050565b61292c81612911565b82525050565b60006080820190506129476000830187612923565b61295460208301866122ba565b6129616040830185612290565b61296e60608301846122ba565b95945050505050565b60008115159050919050565b61298c81612977565b811461299757600080fd5b50565b6000815190506129a981612983565b92915050565b600080600080608085870312156129c9576129c8611c8c565b5b60006129d78782880161299a565b94505060206129e88782880161299a565b93505060406129f9878288016128bc565b9250506060612a0a87828801612622565b91505092959194509250565b600081519050919050565b600082825260208201905092915050565b6000612a3d82612a16565b612a478185612a21565b9350612a57818560208601611d15565b612a6081611d48565b840191505092915050565b6000606082019050612a806000830186612923565b612a8d6020830185612290565b8181036040830152612a9f8184612a32565b9050949350505050565b6000606082019050612abe6000830186611e45565b8181036020830152612ad08185612a32565b90508181036040830152612ae48184612a32565b9050949350505050565b600067ffffffffffffffff821115612b0957612b0861210c565b5b612b1282611d48565b9050602081019050919050565b6000612b32612b2d84612aee565b61216c565b905082815260208101848484011115612b4e57612b4d612107565b5b612b59848285611d15565b509392505050565b600082601f830112612b7657612b75612102565b5b8151612b86848260208601612b1f565b91505092915050565b600060208284031215612ba557612ba4611c8c565b5b600082015167ffffffffffffffff811115612bc357612bc2611c91565b5b612bcf84828501612b61565b91505092915050565b600060a082019050612bed6000830188612923565b612bfa60208301876122ba565b612c076040830186612290565b612c1460608301856122ba565b8181036080830152612c268184612a32565b90509695505050505050565b600060a082019050612c476000830188612923565b612c546020830187612290565b612c6160408301866122ba565b612c6e6060830185612032565b8181036080830152612c808184612a32565b90509695505050505050565b6000608082019050612ca16000830187612923565b612cae60208301866122ba565b612cbb6040830185612290565b8181036060830152612ccd8184612a32565b905095945050505050565b6000608082019050612ced6000830187612923565b612cfa6020830186612290565b612d07604083018561209c565b8181036060830152612d198184612a32565b90509594505050505056fea2646970667358221220fdd623ded51db0083bd38787e637d52c90271b3bf6220f36b6b0465ddf477e1064736f6c634300080d0033",
  "linkReferences": {},
  "deployedLinkReferences": {}
}