{
  "_format": "hh-sol-artifact-1",
  "contractName": "InstituteFundsManager",
  "sourceName": "contracts/InstituteFundsManager.sol",
  "abi": [
    {
      "inputs": [
        {
          "internalType": "uint256",
          "name": "_noOfModules",
          "type": "uint256"
        }
      ],
      "name": "addModule",
      "outputs": [],
      "stateMutability": "payable",
      "type": "function"
    },
    {
      "inputs": [
        {
          "internalType": "string",
          "name": "_streamCode",
          "type": "string"
        }
      ],
      "name": "addStreams",
      "outputs": [],
      "stateMutability": "nonpayable",
      "type": "function"
    },
    {
      "inputs": [
        {
          "internalType": "string",
          "name": "_streamCode",
          "type": "string"
        }
      ],
      "name": "depositFundsToStream",
      "outputs": [],
      "stateMutability": "payable",
      "type": "function"
    },
    {
      "inputs": [],
      "name": "getAllStreams",
      "outputs": [
        {
          "internalType": "string[]",
          "name": "",
          "type": "string[]"
        }
      ],
      "stateMutability": "view",
      "type": "function"
    },
    {
      "inputs": [
        {
          "internalType": "string",
          "name": "_name",
          "type": "string"
        }
      ],
      "name": "initialize",
      "outputs": [],
      "stateMutability": "nonpayable",
      "type": "function"
    },
    {
      "inputs": [],
      "name": "instituteName",
      "outputs": [
        {
          "internalType": "string",
          "name": "",
          "type": "string"
        }
      ],
      "stateMutability": "view",
      "type": "function"
    },
    {
      "inputs": [],
      "name": "redeemModule",
      "outputs": [],
      "stateMutability": "nonpayable",
      "type": "function"
    }
  ],
  "bytecode": "0x6080604052736577a4409013c772af780b46fc05f52b69e51caf600260006101000a81548173ffffffffffffffffffffffffffffffffffffffff021916908373ffffffffffffffffffffffffffffffffffffffff160217905550600060065534801561006a57600080fd5b50610e9f8061007a6000396000f3fe6080604052600436106100705760003560e01c80637f5f21c61161004e5780637f5f21c6146100d8578063845c111514610103578063ec4be0f31461012c578063f62d18881461014357610070565b806338a12df7146100755780633bd84c0c146100915780634bccf116146100bc575b600080fd5b61008f600480360381019061008a91906107c6565b61016c565b005b34801561009d57600080fd5b506100a661028e565b6040516100b39190610a5b565b60405180910390f35b6100d660048036038101906100d19190610807565b610367565b005b3480156100e457600080fd5b506100ed610371565b6040516100fa9190610a7d565b60405180910390f35b34801561010f57600080fd5b5061012a600480360381019061012591906107c6565b6103ff565b005b34801561013857600080fd5b50610141610462565b005b34801561014f57600080fd5b5061016a600480360381019061016591906107c6565b61055a565b005b60003414156101b0576040517f08c379a00000000000000000000000000000000000000000000000000000000081526004016101a790610adf565b60405180910390fd5b346005826040516101c191906109f2565b9081526020016040518091039020546101da9190610bc6565b6005826040516101ea91906109f2565b908152602001604051809103902081905550600360009054906101000a900473ffffffffffffffffffffffffffffffffffffffff1673ffffffffffffffffffffffffffffffffffffffff166340c10f1930346040518363ffffffff1660e01b8152600401610259929190610a32565b600060405180830381600087803b15801561027357600080fd5b505af1158015610287573d6000803e3d6000fd5b5050505050565b60606004805480602002602001604051908101604052809291908181526020016000905b8282101561035e5783829060005260206000200180546102d190610cd6565b80601f01602080910402602001604051908101604052809291908181526020018280546102fd90610cd6565b801561034a5780601f1061031f5761010080835404028352916020019161034a565b820191906000526020600020905b81548152906001019060200180831161032d57829003601f168201915b5050505050815260200190600101906102b2565b50505050905090565b8060068190555050565b6001805461037e90610cd6565b80601f01602080910402602001604051908101604052809291908181526020018280546103aa90610cd6565b80156103f75780601f106103cc576101008083540402835291602001916103f7565b820191906000526020600020905b8154815290600101906020018083116103da57829003601f168201915b505050505081565b600060058260405161041191906109f2565b90815260200160405180910390208190555060048190806001815401808255809150506001900390600052602060002001600090919091909150908051906020019061045e9291906106a6565b5050565b600160065410156104a8576040517f08c379a000000000000000000000000000000000000000000000000000000000815260040161049f90610a9f565b60405180910390fd5b600660008154809291906104bb90610cac565b9190505550600360009054906101000a900473ffffffffffffffffffffffffffffffffffffffff1673ffffffffffffffffffffffffffffffffffffffff166340c10f193368056bc75e2d631000006040518363ffffffff1660e01b8152600401610526929190610a09565b600060405180830381600087803b15801561054057600080fd5b505af1158015610554573d6000803e3d6000fd5b50505050565b600073ffffffffffffffffffffffffffffffffffffffff1660008054906101000a900473ffffffffffffffffffffffffffffffffffffffff1673ffffffffffffffffffffffffffffffffffffffff16146105e9576040517f08c379a00000000000000000000000000000000000000000000000000000000081526004016105e090610abf565b60405180910390fd5b336000806101000a81548173ffffffffffffffffffffffffffffffffffffffff021916908373ffffffffffffffffffffffffffffffffffffffff160217905550806001908051906020019061063f9291906106a6565b50600260009054906101000a900473ffffffffffffffffffffffffffffffffffffffff16600360006101000a81548173ffffffffffffffffffffffffffffffffffffffff021916908373ffffffffffffffffffffffffffffffffffffffff16021790555050565b8280546106b290610cd6565b90600052602060002090601f0160209004810192826106d4576000855561071b565b82601f106106ed57805160ff191683800117855561071b565b8280016001018555821561071b579182015b8281111561071a5782518255916020019190600101906106ff565b5b509050610728919061072c565b5090565b5b8082111561074557600081600090555060010161072d565b5090565b600061075c61075784610b24565b610aff565b90508281526020810184848401111561077457600080fd5b61077f848285610c6a565b509392505050565b600082601f83011261079857600080fd5b81356107a8848260208601610749565b91505092915050565b6000813590506107c081610e52565b92915050565b6000602082840312156107d857600080fd5b600082013567ffffffffffffffff8111156107f257600080fd5b6107fe84828501610787565b91505092915050565b60006020828403121561081957600080fd5b6000610827848285016107b1565b91505092915050565b600061083c83836108d7565b905092915050565b61084d81610c1c565b82525050565b600061085e82610b65565b6108688185610b88565b93508360208202850161087a85610b55565b8060005b858110156108b657848403895281516108978582610830565b94506108a283610b7b565b925060208a0199505060018101905061087e565b50829750879550505050505092915050565b6108d181610c58565b82525050565b60006108e282610b70565b6108ec8185610b99565b93506108fc818560208601610c79565b61090581610dc6565b840191505092915050565b600061091b82610b70565b6109258185610baa565b9350610935818560208601610c79565b61093e81610dc6565b840191505092915050565b600061095482610b70565b61095e8185610bbb565b935061096e818560208601610c79565b80840191505092915050565b6000610987601983610baa565b915061099282610dd7565b602082019050919050565b60006109aa601383610baa565b91506109b582610e00565b602082019050919050565b60006109cd601383610baa565b91506109d882610e29565b602082019050919050565b6109ec81610c4e565b82525050565b60006109fe8284610949565b915081905092915050565b6000604082019050610a1e6000830185610844565b610a2b60208301846108c8565b9392505050565b6000604082019050610a476000830185610844565b610a5460208301846109e3565b9392505050565b60006020820190508181036000830152610a758184610853565b905092915050565b60006020820190508181036000830152610a978184610910565b905092915050565b60006020820190508181036000830152610ab88161097a565b9050919050565b60006020820190508181036000830152610ad88161099d565b9050919050565b60006020820190508181036000830152610af8816109c0565b9050919050565b6000610b09610b1a565b9050610b158282610d08565b919050565b6000604051905090565b600067ffffffffffffffff821115610b3f57610b3e610d97565b5b610b4882610dc6565b9050602081019050919050565b6000819050602082019050919050565b600081519050919050565b600081519050919050565b6000602082019050919050565b600082825260208201905092915050565b600082825260208201905092915050565b600082825260208201905092915050565b600081905092915050565b6000610bd182610c4e565b9150610bdc83610c4e565b9250827fffffffffffffffffffffffffffffffffffffffffffffffffffffffffffffffff03821115610c1157610c10610d39565b5b828201905092915050565b6000610c2782610c2e565b9050919050565b600073ffffffffffffffffffffffffffffffffffffffff82169050919050565b6000819050919050565b6000610c6382610c4e565b9050919050565b82818337600083830152505050565b60005b83811015610c97578082015181840152602081019050610c7c565b83811115610ca6576000848401525b50505050565b6000610cb782610c4e565b91506000821415610ccb57610cca610d39565b5b600182039050919050565b60006002820490506001821680610cee57607f821691505b60208210811415610d0257610d01610d68565b5b50919050565b610d1182610dc6565b810181811067ffffffffffffffff82111715610d3057610d2f610d97565b5b80604052505050565b7f4e487b7100000000000000000000000000000000000000000000000000000000600052601160045260246000fd5b7f4e487b7100000000000000000000000000000000000000000000000000000000600052602260045260246000fd5b7f4e487b7100000000000000000000000000000000000000000000000000000000600052604160045260246000fd5b6000601f19601f8301169050919050565b7f4e6f206d6f7265206d6f64756c6573206176616c6169626c6500000000000000600082015250565b7f616c726561647920696e697469616c697a656400000000000000000000000000600082015250565b7f4e6f2066756e6473207472616e73666572656400000000000000000000000000600082015250565b610e5b81610c4e565b8114610e6657600080fd5b5056fea2646970667358221220b14dbfb1000f5e941d5e87bbac7e30672b845c647247d8f9efa5d4c766b6107164736f6c63430008040033",
  "linkReferences": {},
  "deployedLinkReferences": {}
}