{
  "_format": "hh-sol-artifact-1",
  "contractName": "InstituteFundsManagerFactory",
  "sourceName": "contracts/InstituteFundsManagerFactory.sol",
  "abi": [
    {
      "inputs": [
        {
          "internalType": "string",
          "name": "_name",
          "type": "string"
        },
        {
          "internalType": "string",
          "name": "_instId",
          "type": "string"
        }
      ],
      "name": "addInstitute",
      "outputs": [],
      "stateMutability": "nonpayable",
      "type": "function"
    },
    {
      "inputs": [],
      "name": "getALlInstitutesManager",
      "outputs": [
        {
          "components": [
            {
              "internalType": "string",
              "name": "name",
              "type": "string"
            },
            {
              "internalType": "contract InstituteFundsManager",
              "name": "instituteAddress",
              "type": "address"
            },
            {
              "internalType": "string",
              "name": "instituteId",
              "type": "string"
            }
          ],
          "internalType": "struct InstituteFundsManagerFactory.instituteDetails[]",
          "name": "",
          "type": "tuple[]"
        }
      ],
      "stateMutability": "view",
      "type": "function"
    },
    {
      "inputs": [
        {
          "internalType": "uint256",
          "name": "",
          "type": "uint256"
        }
      ],
      "name": "institutes",
      "outputs": [
        {
          "internalType": "string",
          "name": "name",
          "type": "string"
        },
        {
          "internalType": "contract InstituteFundsManager",
          "name": "instituteAddress",
          "type": "address"
        },
        {
          "internalType": "string",
          "name": "instituteId",
          "type": "string"
        }
      ],
      "stateMutability": "view",
      "type": "function"
    }
  ],
  "bytecode": "0x608060405234801561001057600080fd5b50611dd9806100206000396000f3fe60806040523480156200001157600080fd5b5060043610620000465760003560e01c80636e4b4d72146200004b57806389d896c3146200006b57806390ee20b0146200008d575b600080fd5b62000069600480360381019062000063919062000784565b620000c5565b005b62000075620001ea565b60405162000084919062000a54565b60405180910390f35b620000ab6004803603810190620000a5919062000ab3565b620003d5565b604051620000bc9392919062000b48565b60405180910390f35b600082604051620000d69062000550565b620000e2919062000b93565b604051809103906000f080158015620000ff573d6000803e3d6000fd5b509050600060405180606001604052808581526020018373ffffffffffffffffffffffffffffffffffffffff16815260200184815250908060018154018082558091505060019003906000526020600020906003020160009091909190915060008201518160000190805190602001906200017c9291906200055e565b5060208201518160010160006101000a81548173ffffffffffffffffffffffffffffffffffffffff021916908373ffffffffffffffffffffffffffffffffffffffff1602179055506040820151816002019080519060200190620001e29291906200055e565b505050505050565b60606000805480602002602001604051908101604052809291908181526020016000905b82821015620003cc5783829060005260206000209060030201604051806060016040529081600082018054620002449062000be6565b80601f0160208091040260200160405190810160405280929190818152602001828054620002729062000be6565b8015620002c35780601f106200029757610100808354040283529160200191620002c3565b820191906000526020600020905b815481529060010190602001808311620002a557829003601f168201915b505050505081526020016001820160009054906101000a900473ffffffffffffffffffffffffffffffffffffffff1673ffffffffffffffffffffffffffffffffffffffff1673ffffffffffffffffffffffffffffffffffffffff168152602001600282018054620003349062000be6565b80601f0160208091040260200160405190810160405280929190818152602001828054620003629062000be6565b8015620003b35780601f106200038757610100808354040283529160200191620003b3565b820191906000526020600020905b8154815290600101906020018083116200039557829003601f168201915b505050505081525050815260200190600101906200020e565b50505050905090565b60008181548110620003e657600080fd5b90600052602060002090600302016000915090508060000180546200040b9062000be6565b80601f0160208091040260200160405190810160405280929190818152602001828054620004399062000be6565b80156200048a5780601f106200045e576101008083540402835291602001916200048a565b820191906000526020600020905b8154815290600101906020018083116200046c57829003601f168201915b5050505050908060010160009054906101000a900473ffffffffffffffffffffffffffffffffffffffff1690806002018054620004c79062000be6565b80601f0160208091040260200160405190810160405280929190818152602001828054620004f59062000be6565b8015620005465780601f106200051a5761010080835404028352916020019162000546565b820191906000526020600020905b8154815290600101906020018083116200052857829003601f168201915b5050505050905083565b6111888062000c1c83390190565b8280546200056c9062000be6565b90600052602060002090601f016020900481019282620005905760008555620005dc565b82601f10620005ab57805160ff1916838001178555620005dc565b82800160010185558215620005dc579182015b82811115620005db578251825591602001919060010190620005be565b5b509050620005eb9190620005ef565b5090565b5b808211156200060a576000816000905550600101620005f0565b5090565b6000604051905090565b600080fd5b600080fd5b600080fd5b600080fd5b6000601f19601f8301169050919050565b7f4e487b7100000000000000000000000000000000000000000000000000000000600052604160045260246000fd5b62000677826200062c565b810181811067ffffffffffffffff821117156200069957620006986200063d565b5b80604052505050565b6000620006ae6200060e565b9050620006bc82826200066c565b919050565b600067ffffffffffffffff821115620006df57620006de6200063d565b5b620006ea826200062c565b9050602081019050919050565b82818337600083830152505050565b60006200071d6200071784620006c1565b620006a2565b9050828152602081018484840111156200073c576200073b62000627565b5b62000749848285620006f7565b509392505050565b600082601f83011262000769576200076862000622565b5b81356200077b84826020860162000706565b91505092915050565b600080604083850312156200079e576200079d62000618565b5b600083013567ffffffffffffffff811115620007bf57620007be6200061d565b5b620007cd8582860162000751565b925050602083013567ffffffffffffffff811115620007f157620007f06200061d565b5b620007ff8582860162000751565b9150509250929050565b600081519050919050565b600082825260208201905092915050565b6000819050602082019050919050565b600081519050919050565b600082825260208201905092915050565b60005b838110156200087157808201518184015260208101905062000854565b8381111562000881576000848401525b50505050565b6000620008948262000835565b620008a0818562000840565b9350620008b281856020860162000851565b620008bd816200062c565b840191505092915050565b600073ffffffffffffffffffffffffffffffffffffffff82169050919050565b6000819050919050565b6000620009136200090d6200090784620008c8565b620008e8565b620008c8565b9050919050565b60006200092782620008f2565b9050919050565b60006200093b826200091a565b9050919050565b6200094d816200092e565b82525050565b6000606083016000830151848203600086015262000972828262000887565b915050602083015162000989602086018262000942565b5060408301518482036040860152620009a3828262000887565b9150508091505092915050565b6000620009be838362000953565b905092915050565b6000602082019050919050565b6000620009e08262000809565b620009ec818562000814565b93508360208202850162000a008562000825565b8060005b8581101562000a42578484038952815162000a208582620009b0565b945062000a2d83620009c6565b925060208a0199505060018101905062000a04565b50829750879550505050505092915050565b6000602082019050818103600083015262000a708184620009d3565b905092915050565b6000819050919050565b62000a8d8162000a78565b811462000a9957600080fd5b50565b60008135905062000aad8162000a82565b92915050565b60006020828403121562000acc5762000acb62000618565b5b600062000adc8482850162000a9c565b91505092915050565b600082825260208201905092915050565b600062000b038262000835565b62000b0f818562000ae5565b935062000b2181856020860162000851565b62000b2c816200062c565b840191505092915050565b62000b42816200092e565b82525050565b6000606082019050818103600083015262000b64818662000af6565b905062000b75602083018562000b37565b818103604083015262000b89818462000af6565b9050949350505050565b6000602082019050818103600083015262000baf818462000af6565b905092915050565b7f4e487b7100000000000000000000000000000000000000000000000000000000600052602260045260246000fd5b6000600282049050600182168062000bff57607f821691505b60208210810362000c155762000c1462000bb7565b5b5091905056fe608060405273c760202a0d87ecd6b53a8bbc72ff63a9b411986d600260006101000a81548173ffffffffffffffffffffffffffffffffffffffff021916908373ffffffffffffffffffffffffffffffffffffffff160217905550620f424060065573b1b9ceeb2a1ee407caaf918830d37ec6bd0a8401600760006101000a81548173ffffffffffffffffffffffffffffffffffffffff021916908373ffffffffffffffffffffffffffffffffffffffff160217905550348015620000c257600080fd5b5060405162001188380380620011888339818101604052810190620000e89190620003f8565b336000806101000a81548173ffffffffffffffffffffffffffffffffffffffff021916908373ffffffffffffffffffffffffffffffffffffffff160217905550806001908051906020019062000140929190620001ab565b50600260009054906101000a900473ffffffffffffffffffffffffffffffffffffffff16600360006101000a81548173ffffffffffffffffffffffffffffffffffffffff021916908373ffffffffffffffffffffffffffffffffffffffff16021790555050620004ad565b828054620001b99062000478565b90600052602060002090601f016020900481019282620001dd576000855562000229565b82601f10620001f857805160ff191683800117855562000229565b8280016001018555821562000229579182015b82811115620002285782518255916020019190600101906200020b565b5b5090506200023891906200023c565b5090565b5b80821115620002575760008160009055506001016200023d565b5090565b6000604051905090565b600080fd5b600080fd5b600080fd5b600080fd5b6000601f19601f8301169050919050565b7f4e487b7100000000000000000000000000000000000000000000000000000000600052604160045260246000fd5b620002c48262000279565b810181811067ffffffffffffffff82111715620002e657620002e56200028a565b5b80604052505050565b6000620002fb6200025b565b9050620003098282620002b9565b919050565b600067ffffffffffffffff8211156200032c576200032b6200028a565b5b620003378262000279565b9050602081019050919050565b60005b838110156200036457808201518184015260208101905062000347565b8381111562000374576000848401525b50505050565b6000620003916200038b846200030e565b620002ef565b905082815260208101848484011115620003b057620003af62000274565b5b620003bd84828562000344565b509392505050565b600082601f830112620003dd57620003dc6200026f565b5b8151620003ef8482602086016200037a565b91505092915050565b60006020828403121562000411576200041062000265565b5b600082015167ffffffffffffffff8111156200043257620004316200026a565b5b6200044084828501620003c5565b91505092915050565b7f4e487b7100000000000000000000000000000000000000000000000000000000600052602260045260246000fd5b600060028204905060018216806200049157607f821691505b602082108103620004a757620004a662000449565b5b50919050565b610ccb80620004bd6000396000f3fe6080604052600436106100555760003560e01c806338a12df71461005a5780633bd84c0c146100765780633d18b912146100a15780634bccf116146100b85780637f5f21c6146100d4578063845c1115146100ff575b600080fd5b610074600480360381019061006f91906106f8565b610128565b005b34801561008257600080fd5b5061008b610278565b604051610098919061088b565b60405180910390f35b3480156100ad57600080fd5b506100b6610351565b005b6100d260048036038101906100cd91906108e3565b610400565b005b3480156100e057600080fd5b506100e961040a565b6040516100f6919061095a565b60405180910390f35b34801561010b57600080fd5b50610126600480360381019061012191906106f8565b610498565b005b6000340361016b576040517f08c379a0000000000000000000000000000000000000000000000000000000008152600401610162906109c8565b60405180910390fd5b3460058260405161017c9190610a24565b9081526020016040518091039020546101959190610a6a565b6005826040516101a59190610a24565b908152602001604051809103902081905550600360009054906101000a900473ffffffffffffffffffffffffffffffffffffffff1673ffffffffffffffffffffffffffffffffffffffff166340c10f19600760009054906101000a900473ffffffffffffffffffffffffffffffffffffffff166103e8346102269190610ac0565b6040518363ffffffff1660e01b8152600401610243929190610b6a565b600060405180830381600087803b15801561025d57600080fd5b505af1158015610271573d6000803e3d6000fd5b5050505050565b60606004805480602002602001604051908101604052809291908181526020016000905b828210156103485783829060005260206000200180546102bb90610bc2565b80601f01602080910402602001604051908101604052809291908181526020018280546102e790610bc2565b80156103345780601f1061030957610100808354040283529160200191610334565b820191906000526020600020905b81548152906001019060200180831161031757829003601f168201915b50505050508152602001906001019061029c565b50505050905090565b60016006546103609190610bf3565b600681905550600360009054906101000a900473ffffffffffffffffffffffffffffffffffffffff1673ffffffffffffffffffffffffffffffffffffffff166340c10f193368056bc75e2d631000006040518363ffffffff1660e01b81526004016103cc929190610c6c565b600060405180830381600087803b1580156103e657600080fd5b505af11580156103fa573d6000803e3d6000fd5b50505050565b8060068190555050565b6001805461041790610bc2565b80601f016020809104026020016040519081016040528092919081815260200182805461044390610bc2565b80156104905780601f1061046557610100808354040283529160200191610490565b820191906000526020600020905b81548152906001019060200180831161047357829003601f168201915b505050505081565b60006005826040516104aa9190610a24565b9081526020016040518091039020819055506004819080600181540180825580915050600190039060005260206000200160009091909190915090805190602001906104f79291906104fb565b5050565b82805461050790610bc2565b90600052602060002090601f0160209004810192826105295760008555610570565b82601f1061054257805160ff1916838001178555610570565b82800160010185558215610570579182015b8281111561056f578251825591602001919060010190610554565b5b50905061057d9190610581565b5090565b5b8082111561059a576000816000905550600101610582565b5090565b6000604051905090565b600080fd5b600080fd5b600080fd5b600080fd5b6000601f19601f8301169050919050565b7f4e487b7100000000000000000000000000000000000000000000000000000000600052604160045260246000fd5b610605826105bc565b810181811067ffffffffffffffff82111715610624576106236105cd565b5b80604052505050565b600061063761059e565b905061064382826105fc565b919050565b600067ffffffffffffffff821115610663576106626105cd565b5b61066c826105bc565b9050602081019050919050565b82818337600083830152505050565b600061069b61069684610648565b61062d565b9050828152602081018484840111156106b7576106b66105b7565b5b6106c2848285610679565b509392505050565b600082601f8301126106df576106de6105b2565b5b81356106ef848260208601610688565b91505092915050565b60006020828403121561070e5761070d6105a8565b5b600082013567ffffffffffffffff81111561072c5761072b6105ad565b5b610738848285016106ca565b91505092915050565b600081519050919050565b600082825260208201905092915050565b6000819050602082019050919050565b600081519050919050565b600082825260208201905092915050565b60005b838110156107a757808201518184015260208101905061078c565b838111156107b6576000848401525b50505050565b60006107c78261076d565b6107d18185610778565b93506107e1818560208601610789565b6107ea816105bc565b840191505092915050565b600061080183836107bc565b905092915050565b6000602082019050919050565b600061082182610741565b61082b818561074c565b93508360208202850161083d8561075d565b8060005b85811015610879578484038952815161085a85826107f5565b945061086583610809565b925060208a01995050600181019050610841565b50829750879550505050505092915050565b600060208201905081810360008301526108a58184610816565b905092915050565b6000819050919050565b6108c0816108ad565b81146108cb57600080fd5b50565b6000813590506108dd816108b7565b92915050565b6000602082840312156108f9576108f86105a8565b5b6000610907848285016108ce565b91505092915050565b600082825260208201905092915050565b600061092c8261076d565b6109368185610910565b9350610946818560208601610789565b61094f816105bc565b840191505092915050565b600060208201905081810360008301526109748184610921565b905092915050565b7f4e6f2066756e6473207472616e73666572656400000000000000000000000000600082015250565b60006109b2601383610910565b91506109bd8261097c565b602082019050919050565b600060208201905081810360008301526109e1816109a5565b9050919050565b600081905092915050565b60006109fe8261076d565b610a0881856109e8565b9350610a18818560208601610789565b80840191505092915050565b6000610a3082846109f3565b915081905092915050565b7f4e487b7100000000000000000000000000000000000000000000000000000000600052601160045260246000fd5b6000610a75826108ad565b9150610a80836108ad565b9250827fffffffffffffffffffffffffffffffffffffffffffffffffffffffffffffffff03821115610ab557610ab4610a3b565b5b828201905092915050565b6000610acb826108ad565b9150610ad6836108ad565b9250817fffffffffffffffffffffffffffffffffffffffffffffffffffffffffffffffff0483118215151615610b0f57610b0e610a3b565b5b828202905092915050565b600073ffffffffffffffffffffffffffffffffffffffff82169050919050565b6000610b4582610b1a565b9050919050565b610b5581610b3a565b82525050565b610b64816108ad565b82525050565b6000604082019050610b7f6000830185610b4c565b610b8c6020830184610b5b565b9392505050565b7f4e487b7100000000000000000000000000000000000000000000000000000000600052602260045260246000fd5b60006002820490506001821680610bda57607f821691505b602082108103610bed57610bec610b93565b5b50919050565b6000610bfe826108ad565b9150610c09836108ad565b925082821015610c1c57610c1b610a3b565b5b828203905092915050565b6000819050919050565b6000819050919050565b6000610c56610c51610c4c84610c27565b610c31565b6108ad565b9050919050565b610c6681610c3b565b82525050565b6000604082019050610c816000830185610b4c565b610c8e6020830184610c5d565b939250505056fea2646970667358221220890ea2a7da549821f62fe68bbabb731619eb57cb692b8ec62f5da7bb6f24f52564736f6c634300080d0033a264697066735822122073225716d2f1faf12d5a19a530f822da53a412ed72c3cf5358ce9d90835d23e764736f6c634300080d0033",
  "linkReferences": {},
  "deployedLinkReferences": {}
}