{
    "_format": "hh-sol-artifact-1",
    "contractName": "ProofOfAttendence",
    "sourceName": "contracts/ProofOfAttendence.sol",
    "abi": [
        {
            "inputs": [],
            "stateMutability": "nonpayable",
            "type": "constructor"
        },
        {
            "anonymous": false,
            "inputs": [
                {
                    "indexed": true,
                    "internalType": "address",
                    "name": "owner",
                    "type": "address"
                },
                {
                    "indexed": true,
                    "internalType": "address",
                    "name": "approved",
                    "type": "address"
                },
                {
                    "indexed": true,
                    "internalType": "uint256",
                    "name": "tokenId",
                    "type": "uint256"
                }
            ],
            "name": "Approval",
            "type": "event"
        },
        {
            "anonymous": false,
            "inputs": [
                {
                    "indexed": true,
                    "internalType": "address",
                    "name": "owner",
                    "type": "address"
                },
                {
                    "indexed": true,
                    "internalType": "address",
                    "name": "operator",
                    "type": "address"
                },
                {
                    "indexed": false,
                    "internalType": "bool",
                    "name": "approved",
                    "type": "bool"
                }
            ],
            "name": "ApprovalForAll",
            "type": "event"
        },
        {
            "anonymous": false,
            "inputs": [
                {
                    "indexed": true,
                    "internalType": "address",
                    "name": "previousOwner",
                    "type": "address"
                },
                {
                    "indexed": true,
                    "internalType": "address",
                    "name": "newOwner",
                    "type": "address"
                }
            ],
            "name": "OwnershipTransferred",
            "type": "event"
        },
        {
            "anonymous": false,
            "inputs": [
                {
                    "indexed": true,
                    "internalType": "address",
                    "name": "from",
                    "type": "address"
                },
                {
                    "indexed": true,
                    "internalType": "address",
                    "name": "to",
                    "type": "address"
                },
                {
                    "indexed": true,
                    "internalType": "uint256",
                    "name": "tokenId",
                    "type": "uint256"
                }
            ],
            "name": "Transfer",
            "type": "event"
        },
        {
            "inputs": [
                {
                    "internalType": "address",
                    "name": "to",
                    "type": "address"
                },
                {
                    "internalType": "uint256",
                    "name": "tokenId",
                    "type": "uint256"
                }
            ],
            "name": "approve",
            "outputs": [],
            "stateMutability": "nonpayable",
            "type": "function"
        },
        {
            "inputs": [
                {
                    "internalType": "address",
                    "name": "owner",
                    "type": "address"
                }
            ],
            "name": "balanceOf",
            "outputs": [
                {
                    "internalType": "uint256",
                    "name": "",
                    "type": "uint256"
                }
            ],
            "stateMutability": "view",
            "type": "function"
        },
        {
            "inputs": [
                {
                    "internalType": "uint256",
                    "name": "tokenId",
                    "type": "uint256"
                }
            ],
            "name": "getApproved",
            "outputs": [
                {
                    "internalType": "address",
                    "name": "",
                    "type": "address"
                }
            ],
            "stateMutability": "view",
            "type": "function"
        },
        {
            "inputs": [
                {
                    "internalType": "address",
                    "name": "owner",
                    "type": "address"
                },
                {
                    "internalType": "address",
                    "name": "operator",
                    "type": "address"
                }
            ],
            "name": "isApprovedForAll",
            "outputs": [
                {
                    "internalType": "bool",
                    "name": "",
                    "type": "bool"
                }
            ],
            "stateMutability": "view",
            "type": "function"
        },
        {
            "inputs": [],
            "name": "name",
            "outputs": [
                {
                    "internalType": "string",
                    "name": "",
                    "type": "string"
                }
            ],
            "stateMutability": "view",
            "type": "function"
        },
        {
            "inputs": [],
            "name": "owner",
            "outputs": [
                {
                    "internalType": "address",
                    "name": "",
                    "type": "address"
                }
            ],
            "stateMutability": "view",
            "type": "function"
        },
        {
            "inputs": [
                {
                    "internalType": "uint256",
                    "name": "tokenId",
                    "type": "uint256"
                }
            ],
            "name": "ownerOf",
            "outputs": [
                {
                    "internalType": "address",
                    "name": "",
                    "type": "address"
                }
            ],
            "stateMutability": "view",
            "type": "function"
        },
        {
            "inputs": [],
            "name": "renounceOwnership",
            "outputs": [],
            "stateMutability": "nonpayable",
            "type": "function"
        },
        {
            "inputs": [
                {
                    "internalType": "address",
                    "name": "to",
                    "type": "address"
                },
                {
                    "internalType": "string",
                    "name": "uri",
                    "type": "string"
                }
            ],
            "name": "safeMint",
            "outputs": [],
            "stateMutability": "nonpayable",
            "type": "function"
        },
        {
            "inputs": [
                {
                    "internalType": "address",
                    "name": "from",
                    "type": "address"
                },
                {
                    "internalType": "address",
                    "name": "to",
                    "type": "address"
                },
                {
                    "internalType": "uint256",
                    "name": "tokenId",
                    "type": "uint256"
                }
            ],
            "name": "safeTransferFrom",
            "outputs": [],
            "stateMutability": "nonpayable",
            "type": "function"
        },
        {
            "inputs": [
                {
                    "internalType": "address",
                    "name": "from",
                    "type": "address"
                },
                {
                    "internalType": "address",
                    "name": "to",
                    "type": "address"
                },
                {
                    "internalType": "uint256",
                    "name": "tokenId",
                    "type": "uint256"
                },
                {
                    "internalType": "bytes",
                    "name": "data",
                    "type": "bytes"
                }
            ],
            "name": "safeTransferFrom",
            "outputs": [],
            "stateMutability": "nonpayable",
            "type": "function"
        },
        {
            "inputs": [
                {
                    "internalType": "address",
                    "name": "operator",
                    "type": "address"
                },
                {
                    "internalType": "bool",
                    "name": "approved",
                    "type": "bool"
                }
            ],
            "name": "setApprovalForAll",
            "outputs": [],
            "stateMutability": "nonpayable",
            "type": "function"
        },
        {
            "inputs": [
                {
                    "internalType": "bytes4",
                    "name": "interfaceId",
                    "type": "bytes4"
                }
            ],
            "name": "supportsInterface",
            "outputs": [
                {
                    "internalType": "bool",
                    "name": "",
                    "type": "bool"
                }
            ],
            "stateMutability": "view",
            "type": "function"
        },
        {
            "inputs": [],
            "name": "symbol",
            "outputs": [
                {
                    "internalType": "string",
                    "name": "",
                    "type": "string"
                }
            ],
            "stateMutability": "view",
            "type": "function"
        },
        {
            "inputs": [],
            "name": "tokenCount",
            "outputs": [
                {
                    "internalType": "uint256",
                    "name": "",
                    "type": "uint256"
                }
            ],
            "stateMutability": "view",
            "type": "function"
        },
        {
            "inputs": [
                {
                    "internalType": "uint256",
                    "name": "tokenId",
                    "type": "uint256"
                }
            ],
            "name": "tokenURI",
            "outputs": [
                {
                    "internalType": "string",
                    "name": "",
                    "type": "string"
                }
            ],
            "stateMutability": "view",
            "type": "function"
        },
        {
            "inputs": [
                {
                    "internalType": "address",
                    "name": "from",
                    "type": "address"
                },
                {
                    "internalType": "address",
                    "name": "to",
                    "type": "address"
                },
                {
                    "internalType": "uint256",
                    "name": "tokenId",
                    "type": "uint256"
                }
            ],
            "name": "transferFrom",
            "outputs": [],
            "stateMutability": "nonpayable",
            "type": "function"
        },
        {
            "inputs": [
                {
                    "internalType": "address",
                    "name": "newOwner",
                    "type": "address"
                }
            ],
            "name": "transferOwnership",
            "outputs": [],
            "stateMutability": "nonpayable",
            "type": "function"
        }
    ],
    "bytecode": "0x60806040523480156200001157600080fd5b506040518060400160405280601181526020017f50726f6f664f66417474656e64656e63650000000000000000000000000000008152506040518060400160405280600381526020017f504f410000000000000000000000000000000000000000000000000000000000815250816000908051906020019062000096929190620001a6565b508060019080519060200190620000af929190620001a6565b505050620000d2620000c6620000d860201b60201c565b620000e060201b60201c565b620002ba565b600033905090565b6000600760009054906101000a900473ffffffffffffffffffffffffffffffffffffffff16905081600760006101000a81548173ffffffffffffffffffffffffffffffffffffffff021916908373ffffffffffffffffffffffffffffffffffffffff1602179055508173ffffffffffffffffffffffffffffffffffffffff168173ffffffffffffffffffffffffffffffffffffffff167f8be0079c531659141344cd1fd0a4f28419497f9722a3daafe3b4186f6b6457e060405160405180910390a35050565b828054620001b49062000285565b90600052602060002090601f016020900481019282620001d8576000855562000224565b82601f10620001f357805160ff191683800117855562000224565b8280016001018555821562000224579182015b828111156200022357825182559160200191906001019062000206565b5b50905062000233919062000237565b5090565b5b808211156200025257600081600090555060010162000238565b5090565b7f4e487b7100000000000000000000000000000000000000000000000000000000600052602260045260246000fd5b600060028204905060018216806200029e57607f821691505b602082108103620002b457620002b362000256565b5b50919050565b612ce080620002ca6000396000f3fe608060405234801561001057600080fd5b50600436106101165760003560e01c80638da5cb5b116100a2578063b88d4fde11610071578063b88d4fde146102cd578063c87b56dd146102e9578063d204c45e14610319578063e985e9c514610335578063f2fde38b1461036557610116565b80638da5cb5b1461025757806395d89b41146102755780639f181b5e14610293578063a22cb465146102b157610116565b806323b872dd116100e957806323b872dd146101b557806342842e0e146101d15780636352211e146101ed57806370a082311461021d578063715018a61461024d57610116565b806301ffc9a71461011b57806306fdde031461014b578063081812fc14610169578063095ea7b314610199575b600080fd5b61013560048036038101906101309190611b92565b610381565b6040516101429190611bda565b60405180910390f35b610153610463565b6040516101609190611c8e565b60405180910390f35b610183600480360381019061017e9190611ce6565b6104f5565b6040516101909190611d54565b60405180910390f35b6101b360048036038101906101ae9190611d9b565b61053b565b005b6101cf60048036038101906101ca9190611ddb565b610652565b005b6101eb60048036038101906101e69190611ddb565b6106b2565b005b61020760048036038101906102029190611ce6565b6106d2565b6040516102149190611d54565b60405180910390f35b61023760048036038101906102329190611e2e565b610783565b6040516102449190611e6a565b60405180910390f35b61025561083a565b005b61025f61084e565b60405161026c9190611d54565b60405180910390f35b61027d610878565b60405161028a9190611c8e565b60405180910390f35b61029b61090a565b6040516102a89190611e6a565b60405180910390f35b6102cb60048036038101906102c69190611eb1565b610910565b005b6102e760048036038101906102e29190612026565b610926565b005b61030360048036038101906102fe9190611ce6565b610988565b6040516103109190611c8e565b60405180910390f35b610333600480360381019061032e919061214a565b61099a565b005b61034f600480360381019061034a91906121a6565b6109eb565b60405161035c9190611bda565b60405180910390f35b61037f600480360381019061037a9190611e2e565b610a7f565b005b60007f80ac58cd000000000000000000000000000000000000000000000000000000007bffffffffffffffffffffffffffffffffffffffffffffffffffffffff1916827bffffffffffffffffffffffffffffffffffffffffffffffffffffffff1916148061044c57507f5b5e139f000000000000000000000000000000000000000000000000000000007bffffffffffffffffffffffffffffffffffffffffffffffffffffffff1916827bffffffffffffffffffffffffffffffffffffffffffffffffffffffff1916145b8061045c575061045b82610b02565b5b9050919050565b60606000805461047290612215565b80601f016020809104026020016040519081016040528092919081815260200182805461049e90612215565b80156104eb5780601f106104c0576101008083540402835291602001916104eb565b820191906000526020600020905b8154815290600101906020018083116104ce57829003601f168201915b5050505050905090565b600061050082610b6c565b6004600083815260200190815260200160002060009054906101000a900473ffffffffffffffffffffffffffffffffffffffff169050919050565b6000610546826106d2565b90508073ffffffffffffffffffffffffffffffffffffffff168373ffffffffffffffffffffffffffffffffffffffff16036105b6576040517f08c379a00000000000000000000000000000000000000000000000000000000081526004016105ad906122b8565b60405180910390fd5b8073ffffffffffffffffffffffffffffffffffffffff166105d5610bb7565b73ffffffffffffffffffffffffffffffffffffffff1614806106045750610603816105fe610bb7565b6109eb565b5b610643576040517f08c379a000000000000000000000000000000000000000000000000000000000815260040161063a9061234a565b60405180910390fd5b61064d8383610bbf565b505050565b61066361065d610bb7565b82610c78565b6106a2576040517f08c379a0000000000000000000000000000000000000000000000000000000008152600401610699906123dc565b60405180910390fd5b6106ad838383610d0d565b505050565b6106cd83838360405180602001604052806000815250610926565b505050565b6000806002600084815260200190815260200160002060009054906101000a900473ffffffffffffffffffffffffffffffffffffffff169050600073ffffffffffffffffffffffffffffffffffffffff168173ffffffffffffffffffffffffffffffffffffffff160361077a576040517f08c379a000000000000000000000000000000000000000000000000000000000815260040161077190612448565b60405180910390fd5b80915050919050565b60008073ffffffffffffffffffffffffffffffffffffffff168273ffffffffffffffffffffffffffffffffffffffff16036107f3576040517f08c379a00000000000000000000000000000000000000000000000000000000081526004016107ea906124da565b60405180910390fd5b600360008373ffffffffffffffffffffffffffffffffffffffff1673ffffffffffffffffffffffffffffffffffffffff168152602001908152602001600020549050919050565b610842610f73565b61084c6000610ff1565b565b6000600760009054906101000a900473ffffffffffffffffffffffffffffffffffffffff16905090565b60606001805461088790612215565b80601f01602080910402602001604051908101604052809291908181526020018280546108b390612215565b80156109005780601f106108d557610100808354040283529160200191610900565b820191906000526020600020905b8154815290600101906020018083116108e357829003601f168201915b5050505050905090565b60095481565b61092261091b610bb7565b83836110b7565b5050565b610937610931610bb7565b83610c78565b610976576040517f08c379a000000000000000000000000000000000000000000000000000000000815260040161096d906123dc565b60405180910390fd5b61098284848484611223565b50505050565b60606109938261127f565b9050919050565b6109a2610f73565b600960008154809291906109b590612529565b919050555060006109c66008611391565b90506109d2600861139f565b6109dc83826113b5565b6109e681836113d3565b505050565b6000600560008473ffffffffffffffffffffffffffffffffffffffff1673ffffffffffffffffffffffffffffffffffffffff16815260200190815260200160002060008373ffffffffffffffffffffffffffffffffffffffff1673ffffffffffffffffffffffffffffffffffffffff16815260200190815260200160002060009054906101000a900460ff16905092915050565b610a87610f73565b600073ffffffffffffffffffffffffffffffffffffffff168173ffffffffffffffffffffffffffffffffffffffff1603610af6576040517f08c379a0000000000000000000000000000000000000000000000000000000008152600401610aed906125e3565b60405180910390fd5b610aff81610ff1565b50565b60007f01ffc9a7000000000000000000000000000000000000000000000000000000007bffffffffffffffffffffffffffffffffffffffffffffffffffffffff1916827bffffffffffffffffffffffffffffffffffffffffffffffffffffffff1916149050919050565b610b7581611447565b610bb4576040517f08c379a0000000000000000000000000000000000000000000000000000000008152600401610bab90612448565b60405180910390fd5b50565b600033905090565b816004600083815260200190815260200160002060006101000a81548173ffffffffffffffffffffffffffffffffffffffff021916908373ffffffffffffffffffffffffffffffffffffffff160217905550808273ffffffffffffffffffffffffffffffffffffffff16610c32836106d2565b73ffffffffffffffffffffffffffffffffffffffff167f8c5be1e5ebec7d5bd14f71427d1e84f3dd0314c0f7b2291e5b200ac8c7c3b92560405160405180910390a45050565b600080610c84836106d2565b90508073ffffffffffffffffffffffffffffffffffffffff168473ffffffffffffffffffffffffffffffffffffffff161480610cc65750610cc581856109eb565b5b80610d0457508373ffffffffffffffffffffffffffffffffffffffff16610cec846104f5565b73ffffffffffffffffffffffffffffffffffffffff16145b91505092915050565b8273ffffffffffffffffffffffffffffffffffffffff16610d2d826106d2565b73ffffffffffffffffffffffffffffffffffffffff1614610d83576040517f08c379a0000000000000000000000000000000000000000000000000000000008152600401610d7a90612675565b60405180910390fd5b600073ffffffffffffffffffffffffffffffffffffffff168273ffffffffffffffffffffffffffffffffffffffff1603610df2576040517f08c379a0000000000000000000000000000000000000000000000000000000008152600401610de990612707565b60405180910390fd5b610dfd8383836114b3565b610e08600082610bbf565b6001600360008573ffffffffffffffffffffffffffffffffffffffff1673ffffffffffffffffffffffffffffffffffffffff1681526020019081526020016000206000828254610e589190612727565b925050819055506001600360008473ffffffffffffffffffffffffffffffffffffffff1673ffffffffffffffffffffffffffffffffffffffff1681526020019081526020016000206000828254610eaf919061275b565b92505081905550816002600083815260200190815260200160002060006101000a81548173ffffffffffffffffffffffffffffffffffffffff021916908373ffffffffffffffffffffffffffffffffffffffff160217905550808273ffffffffffffffffffffffffffffffffffffffff168473ffffffffffffffffffffffffffffffffffffffff167fddf252ad1be2c89b69c2b068fc378daa952ba7f163c4a11628f55a4df523b3ef60405160405180910390a4610f6e8383836114b8565b505050565b610f7b610bb7565b73ffffffffffffffffffffffffffffffffffffffff16610f9961084e565b73ffffffffffffffffffffffffffffffffffffffff1614610fef576040517f08c379a0000000000000000000000000000000000000000000000000000000008152600401610fe6906127fd565b60405180910390fd5b565b6000600760009054906101000a900473ffffffffffffffffffffffffffffffffffffffff16905081600760006101000a81548173ffffffffffffffffffffffffffffffffffffffff021916908373ffffffffffffffffffffffffffffffffffffffff1602179055508173ffffffffffffffffffffffffffffffffffffffff168173ffffffffffffffffffffffffffffffffffffffff167f8be0079c531659141344cd1fd0a4f28419497f9722a3daafe3b4186f6b6457e060405160405180910390a35050565b8173ffffffffffffffffffffffffffffffffffffffff168373ffffffffffffffffffffffffffffffffffffffff1603611125576040517f08c379a000000000000000000000000000000000000000000000000000000000815260040161111c90612869565b60405180910390fd5b80600560008573ffffffffffffffffffffffffffffffffffffffff1673ffffffffffffffffffffffffffffffffffffffff16815260200190815260200160002060008473ffffffffffffffffffffffffffffffffffffffff1673ffffffffffffffffffffffffffffffffffffffff16815260200190815260200160002060006101000a81548160ff0219169083151502179055508173ffffffffffffffffffffffffffffffffffffffff168373ffffffffffffffffffffffffffffffffffffffff167f17307eab39ab6107e8899845ad3d59bd9653f200f220920489ca2b5937696c31836040516112169190611bda565b60405180910390a3505050565b61122e848484610d0d565b61123a848484846114bd565b611279576040517f08c379a0000000000000000000000000000000000000000000000000000000008152600401611270906128fb565b60405180910390fd5b50505050565b606061128a82610b6c565b60006006600084815260200190815260200160002080546112aa90612215565b80601f01602080910402602001604051908101604052809291908181526020018280546112d690612215565b80156113235780601f106112f857610100808354040283529160200191611323565b820191906000526020600020905b81548152906001019060200180831161130657829003601f168201915b505050505090506000611334611644565b9050600081510361134957819250505061138c565b60008251111561137e578082604051602001611366929190612957565b6040516020818303038152906040529250505061138c565b61138784611664565b925050505b919050565b600081600001549050919050565b6001816000016000828254019250508190555050565b6113cf8282604051806020016040528060008152506116cc565b5050565b6113dc82611447565b61141b576040517f08c379a0000000000000000000000000000000000000000000000000000000008152600401611412906129ed565b60405180910390fd5b80600660008481526020019081526020016000209080519060200190611442929190611a83565b505050565b60008073ffffffffffffffffffffffffffffffffffffffff166002600084815260200190815260200160002060009054906101000a900473ffffffffffffffffffffffffffffffffffffffff1673ffffffffffffffffffffffffffffffffffffffff1614159050919050565b505050565b505050565b60006114de8473ffffffffffffffffffffffffffffffffffffffff16611727565b15611637578373ffffffffffffffffffffffffffffffffffffffff1663150b7a02611507610bb7565b8786866040518563ffffffff1660e01b81526004016115299493929190612a62565b6020604051808303816000875af192505050801561156557506040513d601f19601f820116820180604052508101906115629190612ac3565b60015b6115e7573d8060008114611595576040519150601f19603f3d011682016040523d82523d6000602084013e61159a565b606091505b5060008151036115df576040517f08c379a00000000000000000000000000000000000000000000000000000000081526004016115d6906128fb565b60405180910390fd5b805181602001fd5b63150b7a0260e01b7bffffffffffffffffffffffffffffffffffffffffffffffffffffffff1916817bffffffffffffffffffffffffffffffffffffffffffffffffffffffff19161491505061163c565b600190505b949350505050565b6060604051806060016040528060228152602001612c8960229139905090565b606061166f82610b6c565b6000611679611644565b9050600081511161169957604051806020016040528060008152506116c4565b806116a38461174a565b6040516020016116b4929190612957565b6040516020818303038152906040525b915050919050565b6116d683836118aa565b6116e360008484846114bd565b611722576040517f08c379a0000000000000000000000000000000000000000000000000000000008152600401611719906128fb565b60405180910390fd5b505050565b6000808273ffffffffffffffffffffffffffffffffffffffff163b119050919050565b606060008203611791576040518060400160405280600181526020017f300000000000000000000000000000000000000000000000000000000000000081525090506118a5565b600082905060005b600082146117c35780806117ac90612529565b915050600a826117bc9190612b1f565b9150611799565b60008167ffffffffffffffff8111156117df576117de611efb565b5b6040519080825280601f01601f1916602001820160405280156118115781602001600182028036833780820191505090505b5090505b6000851461189e5760018261182a9190612727565b9150600a856118399190612b50565b6030611845919061275b565b60f81b81838151811061185b5761185a612b81565b5b60200101907effffffffffffffffffffffffffffffffffffffffffffffffffffffffffffff1916908160001a905350600a856118979190612b1f565b9450611815565b8093505050505b919050565b600073ffffffffffffffffffffffffffffffffffffffff168273ffffffffffffffffffffffffffffffffffffffff1603611919576040517f08c379a000000000000000000000000000000000000000000000000000000000815260040161191090612bfc565b60405180910390fd5b61192281611447565b15611962576040517f08c379a000000000000000000000000000000000000000000000000000000000815260040161195990612c68565b60405180910390fd5b61196e600083836114b3565b6001600360008473ffffffffffffffffffffffffffffffffffffffff1673ffffffffffffffffffffffffffffffffffffffff16815260200190815260200160002060008282546119be919061275b565b92505081905550816002600083815260200190815260200160002060006101000a81548173ffffffffffffffffffffffffffffffffffffffff021916908373ffffffffffffffffffffffffffffffffffffffff160217905550808273ffffffffffffffffffffffffffffffffffffffff16600073ffffffffffffffffffffffffffffffffffffffff167fddf252ad1be2c89b69c2b068fc378daa952ba7f163c4a11628f55a4df523b3ef60405160405180910390a4611a7f600083836114b8565b5050565b828054611a8f90612215565b90600052602060002090601f016020900481019282611ab15760008555611af8565b82601f10611aca57805160ff1916838001178555611af8565b82800160010185558215611af8579182015b82811115611af7578251825591602001919060010190611adc565b5b509050611b059190611b09565b5090565b5b80821115611b22576000816000905550600101611b0a565b5090565b6000604051905090565b600080fd5b600080fd5b60007fffffffff0000000000000000000000000000000000000000000000000000000082169050919050565b611b6f81611b3a565b8114611b7a57600080fd5b50565b600081359050611b8c81611b66565b92915050565b600060208284031215611ba857611ba7611b30565b5b6000611bb684828501611b7d565b91505092915050565b60008115159050919050565b611bd481611bbf565b82525050565b6000602082019050611bef6000830184611bcb565b92915050565b600081519050919050565b600082825260208201905092915050565b60005b83811015611c2f578082015181840152602081019050611c14565b83811115611c3e576000848401525b50505050565b6000601f19601f8301169050919050565b6000611c6082611bf5565b611c6a8185611c00565b9350611c7a818560208601611c11565b611c8381611c44565b840191505092915050565b60006020820190508181036000830152611ca88184611c55565b905092915050565b6000819050919050565b611cc381611cb0565b8114611cce57600080fd5b50565b600081359050611ce081611cba565b92915050565b600060208284031215611cfc57611cfb611b30565b5b6000611d0a84828501611cd1565b91505092915050565b600073ffffffffffffffffffffffffffffffffffffffff82169050919050565b6000611d3e82611d13565b9050919050565b611d4e81611d33565b82525050565b6000602082019050611d696000830184611d45565b92915050565b611d7881611d33565b8114611d8357600080fd5b50565b600081359050611d9581611d6f565b92915050565b60008060408385031215611db257611db1611b30565b5b6000611dc085828601611d86565b9250506020611dd185828601611cd1565b9150509250929050565b600080600060608486031215611df457611df3611b30565b5b6000611e0286828701611d86565b9350506020611e1386828701611d86565b9250506040611e2486828701611cd1565b9150509250925092565b600060208284031215611e4457611e43611b30565b5b6000611e5284828501611d86565b91505092915050565b611e6481611cb0565b82525050565b6000602082019050611e7f6000830184611e5b565b92915050565b611e8e81611bbf565b8114611e9957600080fd5b50565b600081359050611eab81611e85565b92915050565b60008060408385031215611ec857611ec7611b30565b5b6000611ed685828601611d86565b9250506020611ee785828601611e9c565b9150509250929050565b600080fd5b600080fd5b7f4e487b7100000000000000000000000000000000000000000000000000000000600052604160045260246000fd5b611f3382611c44565b810181811067ffffffffffffffff82111715611f5257611f51611efb565b5b80604052505050565b6000611f65611b26565b9050611f718282611f2a565b919050565b600067ffffffffffffffff821115611f9157611f90611efb565b5b611f9a82611c44565b9050602081019050919050565b82818337600083830152505050565b6000611fc9611fc484611f76565b611f5b565b905082815260208101848484011115611fe557611fe4611ef6565b5b611ff0848285611fa7565b509392505050565b600082601f83011261200d5761200c611ef1565b5b813561201d848260208601611fb6565b91505092915050565b600080600080608085870312156120405761203f611b30565b5b600061204e87828801611d86565b945050602061205f87828801611d86565b935050604061207087828801611cd1565b925050606085013567ffffffffffffffff81111561209157612090611b35565b5b61209d87828801611ff8565b91505092959194509250565b600067ffffffffffffffff8211156120c4576120c3611efb565b5b6120cd82611c44565b9050602081019050919050565b60006120ed6120e8846120a9565b611f5b565b90508281526020810184848401111561210957612108611ef6565b5b612114848285611fa7565b509392505050565b600082601f83011261213157612130611ef1565b5b81356121418482602086016120da565b91505092915050565b6000806040838503121561216157612160611b30565b5b600061216f85828601611d86565b925050602083013567ffffffffffffffff8111156121905761218f611b35565b5b61219c8582860161211c565b9150509250929050565b600080604083850312156121bd576121bc611b30565b5b60006121cb85828601611d86565b92505060206121dc85828601611d86565b9150509250929050565b7f4e487b7100000000000000000000000000000000000000000000000000000000600052602260045260246000fd5b6000600282049050600182168061222d57607f821691505b6020821081036122405761223f6121e6565b5b50919050565b7f4552433732313a20617070726f76616c20746f2063757272656e74206f776e6560008201527f7200000000000000000000000000000000000000000000000000000000000000602082015250565b60006122a2602183611c00565b91506122ad82612246565b604082019050919050565b600060208201905081810360008301526122d181612295565b9050919050565b7f4552433732313a20617070726f76652063616c6c6572206973206e6f7420746f60008201527f6b656e206f776e6572206e6f7220617070726f76656420666f7220616c6c0000602082015250565b6000612334603e83611c00565b915061233f826122d8565b604082019050919050565b6000602082019050818103600083015261236381612327565b9050919050565b7f4552433732313a2063616c6c6572206973206e6f7420746f6b656e206f776e6560008201527f72206e6f7220617070726f766564000000000000000000000000000000000000602082015250565b60006123c6602e83611c00565b91506123d18261236a565b604082019050919050565b600060208201905081810360008301526123f5816123b9565b9050919050565b7f4552433732313a20696e76616c696420746f6b656e2049440000000000000000600082015250565b6000612432601883611c00565b915061243d826123fc565b602082019050919050565b6000602082019050818103600083015261246181612425565b9050919050565b7f4552433732313a2061646472657373207a65726f206973206e6f74206120766160008201527f6c6964206f776e65720000000000000000000000000000000000000000000000602082015250565b60006124c4602983611c00565b91506124cf82612468565b604082019050919050565b600060208201905081810360008301526124f3816124b7565b9050919050565b7f4e487b7100000000000000000000000000000000000000000000000000000000600052601160045260246000fd5b600061253482611cb0565b91507fffffffffffffffffffffffffffffffffffffffffffffffffffffffffffffffff8203612566576125656124fa565b5b600182019050919050565b7f4f776e61626c653a206e6577206f776e657220697320746865207a65726f206160008201527f6464726573730000000000000000000000000000000000000000000000000000602082015250565b60006125cd602683611c00565b91506125d882612571565b604082019050919050565b600060208201905081810360008301526125fc816125c0565b9050919050565b7f4552433732313a207472616e736665722066726f6d20696e636f72726563742060008201527f6f776e6572000000000000000000000000000000000000000000000000000000602082015250565b600061265f602583611c00565b915061266a82612603565b604082019050919050565b6000602082019050818103600083015261268e81612652565b9050919050565b7f4552433732313a207472616e7366657220746f20746865207a65726f2061646460008201527f7265737300000000000000000000000000000000000000000000000000000000602082015250565b60006126f1602483611c00565b91506126fc82612695565b604082019050919050565b60006020820190508181036000830152612720816126e4565b9050919050565b600061273282611cb0565b915061273d83611cb0565b9250828210156127505761274f6124fa565b5b828203905092915050565b600061276682611cb0565b915061277183611cb0565b9250827fffffffffffffffffffffffffffffffffffffffffffffffffffffffffffffffff038211156127a6576127a56124fa565b5b828201905092915050565b7f4f776e61626c653a2063616c6c6572206973206e6f7420746865206f776e6572600082015250565b60006127e7602083611c00565b91506127f2826127b1565b602082019050919050565b60006020820190508181036000830152612816816127da565b9050919050565b7f4552433732313a20617070726f766520746f2063616c6c657200000000000000600082015250565b6000612853601983611c00565b915061285e8261281d565b602082019050919050565b6000602082019050818103600083015261288281612846565b9050919050565b7f4552433732313a207472616e7366657220746f206e6f6e20455243373231526560008201527f63656976657220696d706c656d656e7465720000000000000000000000000000602082015250565b60006128e5603283611c00565b91506128f082612889565b604082019050919050565b60006020820190508181036000830152612914816128d8565b9050919050565b600081905092915050565b600061293182611bf5565b61293b818561291b565b935061294b818560208601611c11565b80840191505092915050565b60006129638285612926565b915061296f8284612926565b91508190509392505050565b7f45524337323155524953746f726167653a2055524920736574206f66206e6f6e60008201527f6578697374656e7420746f6b656e000000000000000000000000000000000000602082015250565b60006129d7602e83611c00565b91506129e28261297b565b604082019050919050565b60006020820190508181036000830152612a06816129ca565b9050919050565b600081519050919050565b600082825260208201905092915050565b6000612a3482612a0d565b612a3e8185612a18565b9350612a4e818560208601611c11565b612a5781611c44565b840191505092915050565b6000608082019050612a776000830187611d45565b612a846020830186611d45565b612a916040830185611e5b565b8181036060830152612aa38184612a29565b905095945050505050565b600081519050612abd81611b66565b92915050565b600060208284031215612ad957612ad8611b30565b5b6000612ae784828501612aae565b91505092915050565b7f4e487b7100000000000000000000000000000000000000000000000000000000600052601260045260246000fd5b6000612b2a82611cb0565b9150612b3583611cb0565b925082612b4557612b44612af0565b5b828204905092915050565b6000612b5b82611cb0565b9150612b6683611cb0565b925082612b7657612b75612af0565b5b828206905092915050565b7f4e487b7100000000000000000000000000000000000000000000000000000000600052603260045260246000fd5b7f4552433732313a206d696e7420746f20746865207a65726f2061646472657373600082015250565b6000612be6602083611c00565b9150612bf182612bb0565b602082019050919050565b60006020820190508181036000830152612c1581612bd9565b9050919050565b7f4552433732313a20746f6b656e20616c7265616479206d696e74656400000000600082015250565b6000612c52601c83611c00565b9150612c5d82612c1c565b602082019050919050565b60006020820190508181036000830152612c8181612c45565b905091905056fe68747470733a2f2f676174657761792e70696e6174612e636c6f75642f697066732fa26469706673582212203b28b41c642d785c2ed02dc6b8bc6c9051a7bdbea950e97862ca4990a0d71f7464736f6c634300080d0033",
    "linkReferences": {},
    "deployedLinkReferences": {}
}