{
  "_format": "hh-sol-artifact-1",
  "contractName": "ProofOfAttendence",
  "sourceName": "contracts/ProofOfAttendence.sol",
  "abi": [
    {
      "inputs": [],
      "stateMutability": "nonpayable",
      "type": "constructor"
    },
    {
      "anonymous": false,
      "inputs": [
        {
          "indexed": true,
          "internalType": "address",
          "name": "owner",
          "type": "address"
        },
        {
          "indexed": true,
          "internalType": "address",
          "name": "approved",
          "type": "address"
        },
        {
          "indexed": true,
          "internalType": "uint256",
          "name": "tokenId",
          "type": "uint256"
        }
      ],
      "name": "Approval",
      "type": "event"
    },
    {
      "anonymous": false,
      "inputs": [
        {
          "indexed": true,
          "internalType": "address",
          "name": "owner",
          "type": "address"
        },
        {
          "indexed": true,
          "internalType": "address",
          "name": "operator",
          "type": "address"
        },
        {
          "indexed": false,
          "internalType": "bool",
          "name": "approved",
          "type": "bool"
        }
      ],
      "name": "ApprovalForAll",
      "type": "event"
    },
    {
      "anonymous": false,
      "inputs": [
        {
          "indexed": true,
          "internalType": "address",
          "name": "previousOwner",
          "type": "address"
        },
        {
          "indexed": true,
          "internalType": "address",
          "name": "newOwner",
          "type": "address"
        }
      ],
      "name": "OwnershipTransferred",
      "type": "event"
    },
    {
      "anonymous": false,
      "inputs": [
        {
          "indexed": true,
          "internalType": "address",
          "name": "from",
          "type": "address"
        },
        {
          "indexed": true,
          "internalType": "address",
          "name": "to",
          "type": "address"
        },
        {
          "indexed": true,
          "internalType": "uint256",
          "name": "tokenId",
          "type": "uint256"
        }
      ],
      "name": "Transfer",
      "type": "event"
    },
    {
      "inputs": [
        {
          "internalType": "address",
          "name": "to",
          "type": "address"
        },
        {
          "internalType": "uint256",
          "name": "tokenId",
          "type": "uint256"
        }
      ],
      "name": "approve",
      "outputs": [],
      "stateMutability": "nonpayable",
      "type": "function"
    },
    {
      "inputs": [
        {
          "internalType": "address",
          "name": "owner",
          "type": "address"
        }
      ],
      "name": "balanceOf",
      "outputs": [
        {
          "internalType": "uint256",
          "name": "",
          "type": "uint256"
        }
      ],
      "stateMutability": "view",
      "type": "function"
    },
    {
      "inputs": [
        {
          "internalType": "uint256",
          "name": "tokenId",
          "type": "uint256"
        }
      ],
      "name": "getApproved",
      "outputs": [
        {
          "internalType": "address",
          "name": "",
          "type": "address"
        }
      ],
      "stateMutability": "view",
      "type": "function"
    },
    {
      "inputs": [
        {
          "internalType": "address",
          "name": "owner",
          "type": "address"
        },
        {
          "internalType": "address",
          "name": "operator",
          "type": "address"
        }
      ],
      "name": "isApprovedForAll",
      "outputs": [
        {
          "internalType": "bool",
          "name": "",
          "type": "bool"
        }
      ],
      "stateMutability": "view",
      "type": "function"
    },
    {
      "inputs": [],
      "name": "name",
      "outputs": [
        {
          "internalType": "string",
          "name": "",
          "type": "string"
        }
      ],
      "stateMutability": "view",
      "type": "function"
    },
    {
      "inputs": [],
      "name": "owner",
      "outputs": [
        {
          "internalType": "address",
          "name": "",
          "type": "address"
        }
      ],
      "stateMutability": "view",
      "type": "function"
    },
    {
      "inputs": [
        {
          "internalType": "uint256",
          "name": "tokenId",
          "type": "uint256"
        }
      ],
      "name": "ownerOf",
      "outputs": [
        {
          "internalType": "address",
          "name": "",
          "type": "address"
        }
      ],
      "stateMutability": "view",
      "type": "function"
    },
    {
      "inputs": [],
      "name": "renounceOwnership",
      "outputs": [],
      "stateMutability": "nonpayable",
      "type": "function"
    },
    {
      "inputs": [
        {
          "internalType": "address",
          "name": "to",
          "type": "address"
        },
        {
          "internalType": "string",
          "name": "uri",
          "type": "string"
        }
      ],
      "name": "safeMint",
      "outputs": [],
      "stateMutability": "nonpayable",
      "type": "function"
    },
    {
      "inputs": [
        {
          "internalType": "address",
          "name": "from",
          "type": "address"
        },
        {
          "internalType": "address",
          "name": "to",
          "type": "address"
        },
        {
          "internalType": "uint256",
          "name": "tokenId",
          "type": "uint256"
        }
      ],
      "name": "safeTransferFrom",
      "outputs": [],
      "stateMutability": "nonpayable",
      "type": "function"
    },
    {
      "inputs": [
        {
          "internalType": "address",
          "name": "from",
          "type": "address"
        },
        {
          "internalType": "address",
          "name": "to",
          "type": "address"
        },
        {
          "internalType": "uint256",
          "name": "tokenId",
          "type": "uint256"
        },
        {
          "internalType": "bytes",
          "name": "data",
          "type": "bytes"
        }
      ],
      "name": "safeTransferFrom",
      "outputs": [],
      "stateMutability": "nonpayable",
      "type": "function"
    },
    {
      "inputs": [
        {
          "internalType": "address",
          "name": "operator",
          "type": "address"
        },
        {
          "internalType": "bool",
          "name": "approved",
          "type": "bool"
        }
      ],
      "name": "setApprovalForAll",
      "outputs": [],
      "stateMutability": "nonpayable",
      "type": "function"
    },
    {
      "inputs": [
        {
          "internalType": "bytes4",
          "name": "interfaceId",
          "type": "bytes4"
        }
      ],
      "name": "supportsInterface",
      "outputs": [
        {
          "internalType": "bool",
          "name": "",
          "type": "bool"
        }
      ],
      "stateMutability": "view",
      "type": "function"
    },
    {
      "inputs": [],
      "name": "symbol",
      "outputs": [
        {
          "internalType": "string",
          "name": "",
          "type": "string"
        }
      ],
      "stateMutability": "view",
      "type": "function"
    },
    {
      "inputs": [],
      "name": "tokenCount",
      "outputs": [
        {
          "internalType": "uint256",
          "name": "",
          "type": "uint256"
        }
      ],
      "stateMutability": "view",
      "type": "function"
    },
    {
      "inputs": [
        {
          "internalType": "uint256",
          "name": "tokenId",
          "type": "uint256"
        }
      ],
      "name": "tokenURI",
      "outputs": [
        {
          "internalType": "string",
          "name": "",
          "type": "string"
        }
      ],
      "stateMutability": "view",
      "type": "function"
    },
    {
      "inputs": [
        {
          "internalType": "address",
          "name": "from",
          "type": "address"
        },
        {
          "internalType": "address",
          "name": "to",
          "type": "address"
        },
        {
          "internalType": "uint256",
          "name": "tokenId",
          "type": "uint256"
        }
      ],
      "name": "transferFrom",
      "outputs": [],
      "stateMutability": "nonpayable",
      "type": "function"
    },
    {
      "inputs": [
        {
          "internalType": "address",
          "name": "newOwner",
          "type": "address"
        }
      ],
      "name": "transferOwnership",
      "outputs": [],
      "stateMutability": "nonpayable",
      "type": "function"
    }
  ],
  "bytecode": "0x60806040523480156200001157600080fd5b506040518060400160405280601181526020017f50726f6f664f66417474656e64656e63650000000000000000000000000000008152506040518060400160405280600381526020017f504f410000000000000000000000000000000000000000000000000000000000815250816000908051906020019062000096929190620001a6565b508060019080519060200190620000af929190620001a6565b505050620000d2620000c6620000d860201b60201c565b620000e060201b60201c565b620002ba565b600033905090565b6000600760009054906101000a900473ffffffffffffffffffffffffffffffffffffffff16905081600760006101000a81548173ffffffffffffffffffffffffffffffffffffffff021916908373ffffffffffffffffffffffffffffffffffffffff1602179055508173ffffffffffffffffffffffffffffffffffffffff168173ffffffffffffffffffffffffffffffffffffffff167f8be0079c531659141344cd1fd0a4f28419497f9722a3daafe3b4186f6b6457e060405160405180910390a35050565b828054620001b49062000285565b90600052602060002090601f016020900481019282620001d8576000855562000224565b82601f10620001f357805160ff191683800117855562000224565b8280016001018555821562000224579182015b828111156200022357825182559160200191906001019062000206565b5b50905062000233919062000237565b5090565b5b808211156200025257600081600090555060010162000238565b5090565b7f4e487b7100000000000000000000000000000000000000000000000000000000600052602260045260246000fd5b600060028204905060018216806200029e57607f821691505b602082108103620002b457620002b362000256565b5b50919050565b612cd880620002ca6000396000f3fe608060405234801561001057600080fd5b50600436106101165760003560e01c80638da5cb5b116100a2578063b88d4fde11610071578063b88d4fde146102cd578063c87b56dd146102e9578063d204c45e14610319578063e985e9c514610335578063f2fde38b1461036557610116565b80638da5cb5b1461025757806395d89b41146102755780639f181b5e14610293578063a22cb465146102b157610116565b806323b872dd116100e957806323b872dd146101b557806342842e0e146101d15780636352211e146101ed57806370a082311461021d578063715018a61461024d57610116565b806301ffc9a71461011b57806306fdde031461014b578063081812fc14610169578063095ea7b314610199575b600080fd5b61013560048036038101906101309190611b8a565b610381565b6040516101429190611bd2565b60405180910390f35b610153610463565b6040516101609190611c86565b60405180910390f35b610183600480360381019061017e9190611cde565b6104f5565b6040516101909190611d4c565b60405180910390f35b6101b360048036038101906101ae9190611d93565b61053b565b005b6101cf60048036038101906101ca9190611dd3565b610652565b005b6101eb60048036038101906101e69190611dd3565b6106b2565b005b61020760048036038101906102029190611cde565b6106d2565b6040516102149190611d4c565b60405180910390f35b61023760048036038101906102329190611e26565b610783565b6040516102449190611e62565b60405180910390f35b61025561083a565b005b61025f61084e565b60405161026c9190611d4c565b60405180910390f35b61027d610878565b60405161028a9190611c86565b60405180910390f35b61029b61090a565b6040516102a89190611e62565b60405180910390f35b6102cb60048036038101906102c69190611ea9565b610910565b005b6102e760048036038101906102e2919061201e565b610926565b005b61030360048036038101906102fe9190611cde565b610988565b6040516103109190611c86565b60405180910390f35b610333600480360381019061032e9190612142565b61099a565b005b61034f600480360381019061034a919061219e565b6109e3565b60405161035c9190611bd2565b60405180910390f35b61037f600480360381019061037a9190611e26565b610a77565b005b60007f80ac58cd000000000000000000000000000000000000000000000000000000007bffffffffffffffffffffffffffffffffffffffffffffffffffffffff1916827bffffffffffffffffffffffffffffffffffffffffffffffffffffffff1916148061044c57507f5b5e139f000000000000000000000000000000000000000000000000000000007bffffffffffffffffffffffffffffffffffffffffffffffffffffffff1916827bffffffffffffffffffffffffffffffffffffffffffffffffffffffff1916145b8061045c575061045b82610afa565b5b9050919050565b6060600080546104729061220d565b80601f016020809104026020016040519081016040528092919081815260200182805461049e9061220d565b80156104eb5780601f106104c0576101008083540402835291602001916104eb565b820191906000526020600020905b8154815290600101906020018083116104ce57829003601f168201915b5050505050905090565b600061050082610b64565b6004600083815260200190815260200160002060009054906101000a900473ffffffffffffffffffffffffffffffffffffffff169050919050565b6000610546826106d2565b90508073ffffffffffffffffffffffffffffffffffffffff168373ffffffffffffffffffffffffffffffffffffffff16036105b6576040517f08c379a00000000000000000000000000000000000000000000000000000000081526004016105ad906122b0565b60405180910390fd5b8073ffffffffffffffffffffffffffffffffffffffff166105d5610baf565b73ffffffffffffffffffffffffffffffffffffffff1614806106045750610603816105fe610baf565b6109e3565b5b610643576040517f08c379a000000000000000000000000000000000000000000000000000000000815260040161063a90612342565b60405180910390fd5b61064d8383610bb7565b505050565b61066361065d610baf565b82610c70565b6106a2576040517f08c379a0000000000000000000000000000000000000000000000000000000008152600401610699906123d4565b60405180910390fd5b6106ad838383610d05565b505050565b6106cd83838360405180602001604052806000815250610926565b505050565b6000806002600084815260200190815260200160002060009054906101000a900473ffffffffffffffffffffffffffffffffffffffff169050600073ffffffffffffffffffffffffffffffffffffffff168173ffffffffffffffffffffffffffffffffffffffff160361077a576040517f08c379a000000000000000000000000000000000000000000000000000000000815260040161077190612440565b60405180910390fd5b80915050919050565b60008073ffffffffffffffffffffffffffffffffffffffff168273ffffffffffffffffffffffffffffffffffffffff16036107f3576040517f08c379a00000000000000000000000000000000000000000000000000000000081526004016107ea906124d2565b60405180910390fd5b600360008373ffffffffffffffffffffffffffffffffffffffff1673ffffffffffffffffffffffffffffffffffffffff168152602001908152602001600020549050919050565b610842610f6b565b61084c6000610fe9565b565b6000600760009054906101000a900473ffffffffffffffffffffffffffffffffffffffff16905090565b6060600180546108879061220d565b80601f01602080910402602001604051908101604052809291908181526020018280546108b39061220d565b80156109005780601f106108d557610100808354040283529160200191610900565b820191906000526020600020905b8154815290600101906020018083116108e357829003601f168201915b5050505050905090565b60095481565b61092261091b610baf565b83836110af565b5050565b610937610931610baf565b83610c70565b610976576040517f08c379a000000000000000000000000000000000000000000000000000000000815260040161096d906123d4565b60405180910390fd5b6109828484848461121b565b50505050565b606061099382611277565b9050919050565b600960008154809291906109ad90612521565b919050555060006109be6008611389565b90506109ca6008611397565b6109d483826113ad565b6109de81836113cb565b505050565b6000600560008473ffffffffffffffffffffffffffffffffffffffff1673ffffffffffffffffffffffffffffffffffffffff16815260200190815260200160002060008373ffffffffffffffffffffffffffffffffffffffff1673ffffffffffffffffffffffffffffffffffffffff16815260200190815260200160002060009054906101000a900460ff16905092915050565b610a7f610f6b565b600073ffffffffffffffffffffffffffffffffffffffff168173ffffffffffffffffffffffffffffffffffffffff1603610aee576040517f08c379a0000000000000000000000000000000000000000000000000000000008152600401610ae5906125db565b60405180910390fd5b610af781610fe9565b50565b60007f01ffc9a7000000000000000000000000000000000000000000000000000000007bffffffffffffffffffffffffffffffffffffffffffffffffffffffff1916827bffffffffffffffffffffffffffffffffffffffffffffffffffffffff1916149050919050565b610b6d8161143f565b610bac576040517f08c379a0000000000000000000000000000000000000000000000000000000008152600401610ba390612440565b60405180910390fd5b50565b600033905090565b816004600083815260200190815260200160002060006101000a81548173ffffffffffffffffffffffffffffffffffffffff021916908373ffffffffffffffffffffffffffffffffffffffff160217905550808273ffffffffffffffffffffffffffffffffffffffff16610c2a836106d2565b73ffffffffffffffffffffffffffffffffffffffff167f8c5be1e5ebec7d5bd14f71427d1e84f3dd0314c0f7b2291e5b200ac8c7c3b92560405160405180910390a45050565b600080610c7c836106d2565b90508073ffffffffffffffffffffffffffffffffffffffff168473ffffffffffffffffffffffffffffffffffffffff161480610cbe5750610cbd81856109e3565b5b80610cfc57508373ffffffffffffffffffffffffffffffffffffffff16610ce4846104f5565b73ffffffffffffffffffffffffffffffffffffffff16145b91505092915050565b8273ffffffffffffffffffffffffffffffffffffffff16610d25826106d2565b73ffffffffffffffffffffffffffffffffffffffff1614610d7b576040517f08c379a0000000000000000000000000000000000000000000000000000000008152600401610d729061266d565b60405180910390fd5b600073ffffffffffffffffffffffffffffffffffffffff168273ffffffffffffffffffffffffffffffffffffffff1603610dea576040517f08c379a0000000000000000000000000000000000000000000000000000000008152600401610de1906126ff565b60405180910390fd5b610df58383836114ab565b610e00600082610bb7565b6001600360008573ffffffffffffffffffffffffffffffffffffffff1673ffffffffffffffffffffffffffffffffffffffff1681526020019081526020016000206000828254610e50919061271f565b925050819055506001600360008473ffffffffffffffffffffffffffffffffffffffff1673ffffffffffffffffffffffffffffffffffffffff1681526020019081526020016000206000828254610ea79190612753565b92505081905550816002600083815260200190815260200160002060006101000a81548173ffffffffffffffffffffffffffffffffffffffff021916908373ffffffffffffffffffffffffffffffffffffffff160217905550808273ffffffffffffffffffffffffffffffffffffffff168473ffffffffffffffffffffffffffffffffffffffff167fddf252ad1be2c89b69c2b068fc378daa952ba7f163c4a11628f55a4df523b3ef60405160405180910390a4610f668383836114b0565b505050565b610f73610baf565b73ffffffffffffffffffffffffffffffffffffffff16610f9161084e565b73ffffffffffffffffffffffffffffffffffffffff1614610fe7576040517f08c379a0000000000000000000000000000000000000000000000000000000008152600401610fde906127f5565b60405180910390fd5b565b6000600760009054906101000a900473ffffffffffffffffffffffffffffffffffffffff16905081600760006101000a81548173ffffffffffffffffffffffffffffffffffffffff021916908373ffffffffffffffffffffffffffffffffffffffff1602179055508173ffffffffffffffffffffffffffffffffffffffff168173ffffffffffffffffffffffffffffffffffffffff167f8be0079c531659141344cd1fd0a4f28419497f9722a3daafe3b4186f6b6457e060405160405180910390a35050565b8173ffffffffffffffffffffffffffffffffffffffff168373ffffffffffffffffffffffffffffffffffffffff160361111d576040517f08c379a000000000000000000000000000000000000000000000000000000000815260040161111490612861565b60405180910390fd5b80600560008573ffffffffffffffffffffffffffffffffffffffff1673ffffffffffffffffffffffffffffffffffffffff16815260200190815260200160002060008473ffffffffffffffffffffffffffffffffffffffff1673ffffffffffffffffffffffffffffffffffffffff16815260200190815260200160002060006101000a81548160ff0219169083151502179055508173ffffffffffffffffffffffffffffffffffffffff168373ffffffffffffffffffffffffffffffffffffffff167f17307eab39ab6107e8899845ad3d59bd9653f200f220920489ca2b5937696c318360405161120e9190611bd2565b60405180910390a3505050565b611226848484610d05565b611232848484846114b5565b611271576040517f08c379a0000000000000000000000000000000000000000000000000000000008152600401611268906128f3565b60405180910390fd5b50505050565b606061128282610b64565b60006006600084815260200190815260200160002080546112a29061220d565b80601f01602080910402602001604051908101604052809291908181526020018280546112ce9061220d565b801561131b5780601f106112f05761010080835404028352916020019161131b565b820191906000526020600020905b8154815290600101906020018083116112fe57829003601f168201915b50505050509050600061132c61163c565b90506000815103611341578192505050611384565b60008251111561137657808260405160200161135e92919061294f565b60405160208183030381529060405292505050611384565b61137f8461165c565b925050505b919050565b600081600001549050919050565b6001816000016000828254019250508190555050565b6113c78282604051806020016040528060008152506116c4565b5050565b6113d48261143f565b611413576040517f08c379a000000000000000000000000000000000000000000000000000000000815260040161140a906129e5565b60405180910390fd5b8060066000848152602001908152602001600020908051906020019061143a929190611a7b565b505050565b60008073ffffffffffffffffffffffffffffffffffffffff166002600084815260200190815260200160002060009054906101000a900473ffffffffffffffffffffffffffffffffffffffff1673ffffffffffffffffffffffffffffffffffffffff1614159050919050565b505050565b505050565b60006114d68473ffffffffffffffffffffffffffffffffffffffff1661171f565b1561162f578373ffffffffffffffffffffffffffffffffffffffff1663150b7a026114ff610baf565b8786866040518563ffffffff1660e01b81526004016115219493929190612a5a565b6020604051808303816000875af192505050801561155d57506040513d601f19601f8201168201806040525081019061155a9190612abb565b60015b6115df573d806000811461158d576040519150601f19603f3d011682016040523d82523d6000602084013e611592565b606091505b5060008151036115d7576040517f08c379a00000000000000000000000000000000000000000000000000000000081526004016115ce906128f3565b60405180910390fd5b805181602001fd5b63150b7a0260e01b7bffffffffffffffffffffffffffffffffffffffffffffffffffffffff1916817bffffffffffffffffffffffffffffffffffffffffffffffffffffffff191614915050611634565b600190505b949350505050565b6060604051806060016040528060228152602001612c8160229139905090565b606061166782610b64565b600061167161163c565b9050600081511161169157604051806020016040528060008152506116bc565b8061169b84611742565b6040516020016116ac92919061294f565b6040516020818303038152906040525b915050919050565b6116ce83836118a2565b6116db60008484846114b5565b61171a576040517f08c379a0000000000000000000000000000000000000000000000000000000008152600401611711906128f3565b60405180910390fd5b505050565b6000808273ffffffffffffffffffffffffffffffffffffffff163b119050919050565b606060008203611789576040518060400160405280600181526020017f3000000000000000000000000000000000000000000000000000000000000000815250905061189d565b600082905060005b600082146117bb5780806117a490612521565b915050600a826117b49190612b17565b9150611791565b60008167ffffffffffffffff8111156117d7576117d6611ef3565b5b6040519080825280601f01601f1916602001820160405280156118095781602001600182028036833780820191505090505b5090505b6000851461189657600182611822919061271f565b9150600a856118319190612b48565b603061183d9190612753565b60f81b81838151811061185357611852612b79565b5b60200101907effffffffffffffffffffffffffffffffffffffffffffffffffffffffffffff1916908160001a905350600a8561188f9190612b17565b945061180d565b8093505050505b919050565b600073ffffffffffffffffffffffffffffffffffffffff168273ffffffffffffffffffffffffffffffffffffffff1603611911576040517f08c379a000000000000000000000000000000000000000000000000000000000815260040161190890612bf4565b60405180910390fd5b61191a8161143f565b1561195a576040517f08c379a000000000000000000000000000000000000000000000000000000000815260040161195190612c60565b60405180910390fd5b611966600083836114ab565b6001600360008473ffffffffffffffffffffffffffffffffffffffff1673ffffffffffffffffffffffffffffffffffffffff16815260200190815260200160002060008282546119b69190612753565b92505081905550816002600083815260200190815260200160002060006101000a81548173ffffffffffffffffffffffffffffffffffffffff021916908373ffffffffffffffffffffffffffffffffffffffff160217905550808273ffffffffffffffffffffffffffffffffffffffff16600073ffffffffffffffffffffffffffffffffffffffff167fddf252ad1be2c89b69c2b068fc378daa952ba7f163c4a11628f55a4df523b3ef60405160405180910390a4611a77600083836114b0565b5050565b828054611a879061220d565b90600052602060002090601f016020900481019282611aa95760008555611af0565b82601f10611ac257805160ff1916838001178555611af0565b82800160010185558215611af0579182015b82811115611aef578251825591602001919060010190611ad4565b5b509050611afd9190611b01565b5090565b5b80821115611b1a576000816000905550600101611b02565b5090565b6000604051905090565b600080fd5b600080fd5b60007fffffffff0000000000000000000000000000000000000000000000000000000082169050919050565b611b6781611b32565b8114611b7257600080fd5b50565b600081359050611b8481611b5e565b92915050565b600060208284031215611ba057611b9f611b28565b5b6000611bae84828501611b75565b91505092915050565b60008115159050919050565b611bcc81611bb7565b82525050565b6000602082019050611be76000830184611bc3565b92915050565b600081519050919050565b600082825260208201905092915050565b60005b83811015611c27578082015181840152602081019050611c0c565b83811115611c36576000848401525b50505050565b6000601f19601f8301169050919050565b6000611c5882611bed565b611c628185611bf8565b9350611c72818560208601611c09565b611c7b81611c3c565b840191505092915050565b60006020820190508181036000830152611ca08184611c4d565b905092915050565b6000819050919050565b611cbb81611ca8565b8114611cc657600080fd5b50565b600081359050611cd881611cb2565b92915050565b600060208284031215611cf457611cf3611b28565b5b6000611d0284828501611cc9565b91505092915050565b600073ffffffffffffffffffffffffffffffffffffffff82169050919050565b6000611d3682611d0b565b9050919050565b611d4681611d2b565b82525050565b6000602082019050611d616000830184611d3d565b92915050565b611d7081611d2b565b8114611d7b57600080fd5b50565b600081359050611d8d81611d67565b92915050565b60008060408385031215611daa57611da9611b28565b5b6000611db885828601611d7e565b9250506020611dc985828601611cc9565b9150509250929050565b600080600060608486031215611dec57611deb611b28565b5b6000611dfa86828701611d7e565b9350506020611e0b86828701611d7e565b9250506040611e1c86828701611cc9565b9150509250925092565b600060208284031215611e3c57611e3b611b28565b5b6000611e4a84828501611d7e565b91505092915050565b611e5c81611ca8565b82525050565b6000602082019050611e776000830184611e53565b92915050565b611e8681611bb7565b8114611e9157600080fd5b50565b600081359050611ea381611e7d565b92915050565b60008060408385031215611ec057611ebf611b28565b5b6000611ece85828601611d7e565b9250506020611edf85828601611e94565b9150509250929050565b600080fd5b600080fd5b7f4e487b7100000000000000000000000000000000000000000000000000000000600052604160045260246000fd5b611f2b82611c3c565b810181811067ffffffffffffffff82111715611f4a57611f49611ef3565b5b80604052505050565b6000611f5d611b1e565b9050611f698282611f22565b919050565b600067ffffffffffffffff821115611f8957611f88611ef3565b5b611f9282611c3c565b9050602081019050919050565b82818337600083830152505050565b6000611fc1611fbc84611f6e565b611f53565b905082815260208101848484011115611fdd57611fdc611eee565b5b611fe8848285611f9f565b509392505050565b600082601f83011261200557612004611ee9565b5b8135612015848260208601611fae565b91505092915050565b6000806000806080858703121561203857612037611b28565b5b600061204687828801611d7e565b945050602061205787828801611d7e565b935050604061206887828801611cc9565b925050606085013567ffffffffffffffff81111561208957612088611b2d565b5b61209587828801611ff0565b91505092959194509250565b600067ffffffffffffffff8211156120bc576120bb611ef3565b5b6120c582611c3c565b9050602081019050919050565b60006120e56120e0846120a1565b611f53565b90508281526020810184848401111561210157612100611eee565b5b61210c848285611f9f565b509392505050565b600082601f83011261212957612128611ee9565b5b81356121398482602086016120d2565b91505092915050565b6000806040838503121561215957612158611b28565b5b600061216785828601611d7e565b925050602083013567ffffffffffffffff81111561218857612187611b2d565b5b61219485828601612114565b9150509250929050565b600080604083850312156121b5576121b4611b28565b5b60006121c385828601611d7e565b92505060206121d485828601611d7e565b9150509250929050565b7f4e487b7100000000000000000000000000000000000000000000000000000000600052602260045260246000fd5b6000600282049050600182168061222557607f821691505b602082108103612238576122376121de565b5b50919050565b7f4552433732313a20617070726f76616c20746f2063757272656e74206f776e6560008201527f7200000000000000000000000000000000000000000000000000000000000000602082015250565b600061229a602183611bf8565b91506122a58261223e565b604082019050919050565b600060208201905081810360008301526122c98161228d565b9050919050565b7f4552433732313a20617070726f76652063616c6c6572206973206e6f7420746f60008201527f6b656e206f776e6572206e6f7220617070726f76656420666f7220616c6c0000602082015250565b600061232c603e83611bf8565b9150612337826122d0565b604082019050919050565b6000602082019050818103600083015261235b8161231f565b9050919050565b7f4552433732313a2063616c6c6572206973206e6f7420746f6b656e206f776e6560008201527f72206e6f7220617070726f766564000000000000000000000000000000000000602082015250565b60006123be602e83611bf8565b91506123c982612362565b604082019050919050565b600060208201905081810360008301526123ed816123b1565b9050919050565b7f4552433732313a20696e76616c696420746f6b656e2049440000000000000000600082015250565b600061242a601883611bf8565b9150612435826123f4565b602082019050919050565b600060208201905081810360008301526124598161241d565b9050919050565b7f4552433732313a2061646472657373207a65726f206973206e6f74206120766160008201527f6c6964206f776e65720000000000000000000000000000000000000000000000602082015250565b60006124bc602983611bf8565b91506124c782612460565b604082019050919050565b600060208201905081810360008301526124eb816124af565b9050919050565b7f4e487b7100000000000000000000000000000000000000000000000000000000600052601160045260246000fd5b600061252c82611ca8565b91507fffffffffffffffffffffffffffffffffffffffffffffffffffffffffffffffff820361255e5761255d6124f2565b5b600182019050919050565b7f4f776e61626c653a206e6577206f776e657220697320746865207a65726f206160008201527f6464726573730000000000000000000000000000000000000000000000000000602082015250565b60006125c5602683611bf8565b91506125d082612569565b604082019050919050565b600060208201905081810360008301526125f4816125b8565b9050919050565b7f4552433732313a207472616e736665722066726f6d20696e636f72726563742060008201527f6f776e6572000000000000000000000000000000000000000000000000000000602082015250565b6000612657602583611bf8565b9150612662826125fb565b604082019050919050565b600060208201905081810360008301526126868161264a565b9050919050565b7f4552433732313a207472616e7366657220746f20746865207a65726f2061646460008201527f7265737300000000000000000000000000000000000000000000000000000000602082015250565b60006126e9602483611bf8565b91506126f48261268d565b604082019050919050565b60006020820190508181036000830152612718816126dc565b9050919050565b600061272a82611ca8565b915061273583611ca8565b925082821015612748576127476124f2565b5b828203905092915050565b600061275e82611ca8565b915061276983611ca8565b9250827fffffffffffffffffffffffffffffffffffffffffffffffffffffffffffffffff0382111561279e5761279d6124f2565b5b828201905092915050565b7f4f776e61626c653a2063616c6c6572206973206e6f7420746865206f776e6572600082015250565b60006127df602083611bf8565b91506127ea826127a9565b602082019050919050565b6000602082019050818103600083015261280e816127d2565b9050919050565b7f4552433732313a20617070726f766520746f2063616c6c657200000000000000600082015250565b600061284b601983611bf8565b915061285682612815565b602082019050919050565b6000602082019050818103600083015261287a8161283e565b9050919050565b7f4552433732313a207472616e7366657220746f206e6f6e20455243373231526560008201527f63656976657220696d706c656d656e7465720000000000000000000000000000602082015250565b60006128dd603283611bf8565b91506128e882612881565b604082019050919050565b6000602082019050818103600083015261290c816128d0565b9050919050565b600081905092915050565b600061292982611bed565b6129338185612913565b9350612943818560208601611c09565b80840191505092915050565b600061295b828561291e565b9150612967828461291e565b91508190509392505050565b7f45524337323155524953746f726167653a2055524920736574206f66206e6f6e60008201527f6578697374656e7420746f6b656e000000000000000000000000000000000000602082015250565b60006129cf602e83611bf8565b91506129da82612973565b604082019050919050565b600060208201905081810360008301526129fe816129c2565b9050919050565b600081519050919050565b600082825260208201905092915050565b6000612a2c82612a05565b612a368185612a10565b9350612a46818560208601611c09565b612a4f81611c3c565b840191505092915050565b6000608082019050612a6f6000830187611d3d565b612a7c6020830186611d3d565b612a896040830185611e53565b8181036060830152612a9b8184612a21565b905095945050505050565b600081519050612ab581611b5e565b92915050565b600060208284031215612ad157612ad0611b28565b5b6000612adf84828501612aa6565b91505092915050565b7f4e487b7100000000000000000000000000000000000000000000000000000000600052601260045260246000fd5b6000612b2282611ca8565b9150612b2d83611ca8565b925082612b3d57612b3c612ae8565b5b828204905092915050565b6000612b5382611ca8565b9150612b5e83611ca8565b925082612b6e57612b6d612ae8565b5b828206905092915050565b7f4e487b7100000000000000000000000000000000000000000000000000000000600052603260045260246000fd5b7f4552433732313a206d696e7420746f20746865207a65726f2061646472657373600082015250565b6000612bde602083611bf8565b9150612be982612ba8565b602082019050919050565b60006020820190508181036000830152612c0d81612bd1565b9050919050565b7f4552433732313a20746f6b656e20616c7265616479206d696e74656400000000600082015250565b6000612c4a601c83611bf8565b9150612c5582612c14565b602082019050919050565b60006020820190508181036000830152612c7981612c3d565b905091905056fe68747470733a2f2f676174657761792e70696e6174612e636c6f75642f697066732fa264697066735822122057becca4a45b37919cbb12bd94f7d8378e9aac5bd80f342e793eb855b642926c64736f6c634300080d0033",
  "linkReferences": {},
  "deployedLinkReferences": {}
}